:020000040000FA
:1000000000040020E508000079050000C508000094
:10001000830500008D05000097050000000000002A
:1000200000000000000000000000000009090000BE
:10003000A105000000000000AB050000B5050000B0
:10004000BF050000C9050000D3050000DD05000064
:10005000E7050000F1050000FB05000005060000B3
:100060000F06000019060000230600002D06000000
:1000700037060000410600004B0600005506000050
:100080005F06000069060000730600007D060000A0
:1000900087060000910600009B060000A5060000F0
:1000A000AF060000B9060000C3060000CD06000040
:1000B000D7060000E1060000EB060000F506000090
:1000C000FF06000009070000130700001D070000DD
:1000D00027070000310700003B070000450700002C
:1000E0004F07000059070000630700006D0700007C
:1000F00077070000810700008B07000095070000CC
:100100009F0700001FB500F003F88DE80F001FBD2A
:1001100000F0DEBB1FB56FF00100009040100390AF
:10012000029001904FF010208069000B420900F00E
:100130001F045DF822300120A04083434DF8223097
:10014000684600F044F91FBDF0B54FF6FF734FF459
:10015000B4751A466E1E11E0A94201D3344600E080
:100160000C46091B30F8027B641E3B441A44F9D14B
:100170009CB204EB134394B204EB12420029EBD17E
:1001800098B200EB134002EB124140EA0140F0BD8F
:10019000DD4992B00446D1E90001CDE91001FF220A
:1001A0004021684600F03AFB94E80F008DE80F000C
:1001B000684610A902E004C841F8042D8842FAD12B
:1001C00010216846FFF7C0FF1090AA208DF8440068
:1001D000FFF7A0FF00F0F2F84FF01024A069102202
:1001E0006946803000F001F9A069082210A900F0EA
:1001F000FCF800F0D7F84FF080510A6949690068AF
:100200004A43824201D8102070470020704710B541
:10021000D0E900214FF0805002EB8103026944696C
:100220006243934209D84FF01022536903EB8103D4
:100230000169406941438B4201D9092010BD5069D1
:10024000401C01D0002010BD0F2010BD70B501680A
:100250000446AE4D4FF01020062951D2DFE801F0E0
:10026000320318283B1DD4E90265646829463046EC
:1002700000F0CDF82A462146304600F0B6F8AA0034
:100280002146304600F09EFA002800D0032070BDC1
:1002900000F050FB4FF4805007E0201DFFF7ABFF4C
:1002A0000028F4D100F046FB60682860002070BD93
:1002B000241D94E80700920000F084FA0028F6D08C
:1002C0000E2070BD8069401C12D0201DFFF79FFFDB
:1002D0000028F6D109E08069401C09D0201DFFF7F5
:1002E0008AFF0028EDD1606820B12046FFF750FF5B
:1002F000042070BDFFF70EFF00F060F800F052F828
:10030000072070BD10B50C46182802D001200860E7
:1003100010BD2068FFF79AFF206010BD4FF0102439
:10032000A069401C05D0A569A66980353079AA2846
:1003300008D06069401C2DD060690068401C29D03D
:1003400060692CE010212846FFF7FEFE31688142EB
:100350001CD1A16901F18002C03105E030B108CAA9
:1003600051F8040D984201D1012000E000208A429A
:10037000F4D158B1286810B1042803D0FEE728460C
:1003800000F057F861496868086008E000F016F866
:1003900000F008F84FF480500168491C01D000F0CB
:1003A000A3FAFEE7BFF34F8F59480168594A01F499
:1003B000E06111430160BFF34F8FFEE74FF0102063
:1003C0008169491C02D0806900F0ADB87047524A7B
:1003D00001681160121D416811604F4A8168103236
:1003E0001160111DC068086070472DE9F041174683
:1003F0000D460646002406E03046296800F0A6F8BF
:10040000641C2D1D361DBC42F6D3BDE8F08170B5CD
:100410000C4605464FF4806608E0284600F083F855
:10042000B44205D3A4F5806405F58055002CF4D1C1
:1004300070BD4168044609B1012500E000254FF078
:1004400010267069A268920000F0BCF9C8B120467D
:1004500000F01AF89DB17669A56864684FF4002031
:1004600084420AD2854208D229463046FFF7CFFFA0
:100470002A4621463046FFF7B8FFFFF79FFFFFF7F8
:1004800091FFFFF747FEF8E72DE9FF414FF01024F9
:10049000616980680D0B01EB800000F6FF70010BB5
:1004A00000200090019002900246039068460123CC
:1004B0000BE0560902F01F0C50F8267003FA0CFCF2
:1004C00047EA0C0740F82670521CAA42F1D30AE012
:1004D0004A0901F01F0650F8225003FA06F6354388
:1004E00040F82250491C8029F2D3A169090B4A091E
:1004F00001F01F0150F822408B409C4340F82240FD
:10050000FFF765FFBDE8FF815809000000000020EB
:100510000CED00E00400FA050006004014480168F4
:100520000029FCD07047134A0221116010490B6862
:10053000002BFCD00F4B1B1D186008680028FCD056
:100540000020106008680028FCD07047094B10B5E7
:1005500001221A60064A1468002CFCD00160106861
:100560000028FCD00020186010680028FCD010BDC6
:1005700000E4014004E5014008208F49096809585A
:10058000084710208C4909680958084714208A49EF
:100590000968095808471820874909680958084711
:1005A0003020854909680958084738208249096878
:1005B000095808473C2080490968095808474020E5
:1005C0007D4909680958084744207B49096809584A
:1005D0000847482078490968095808474C20764957
:1005E000096809580847502073490968095808479D
:1005F0005420714909680958084758206E4909680C
:10060000095808475C206C49096809580847602068
:100610006949096809580847642067490968095801
:100620000847682064490968095808476C206249EE
:1006300009680958084770205F4909680958084740
:1006400074205D4909680958084778205A490968A3
:10065000095808477C2058490968095808478020EC
:1006600055490968095808478420534909680958B9
:100670000847882050490968095808478C204E4986
:1006800009680958084790204B49096809580847E4
:10069000942049490968095808479820464909683B
:1006A000095808479C204449096809580847A02070
:1006B0004149096809580847A4203F490968095871
:1006C0000847A8203C49096809580847AC203A491E
:1006D000096809580847B020374909680958084788
:1006E000B4203549096809580847B82032490968D3
:1006F00009580847BC203049096809580847C020F4
:100700002D49096809580847C4202B490968095828
:100710000847C8202849096809580847CC202649B5
:10072000096809580847D02023490968095808472B
:10073000D4202149096809580847D8201E4909686A
:1007400009580847DC201C49096809580847E02077
:100750001949096809580847E420174909680958E0
:100760000847E8201449096809580847EC2012494D
:10077000096809580847F0200F49096809580847CF
:10078000F4200D49096809580847F8200A49096802
:1007900009580847FC2008490968095808475FF4C8
:1007A0008070054909680958084700000348044952
:1007B000024A034B70470000000000206809000057
:1007C0006809000040EA010310B59B070FD1042A15
:1007D0000DD310C808C9121F9C42F8D020BA19BA0C
:1007E000884201D9012010BD4FF0FF3010BD1AB171
:1007F000D30703D0521C07E0002010BD10F8013BC6
:1008000011F8014B1B1B07D110F8013B11F8014BEC
:100810001B1B01D1921EF1D1184610BD02F0FF033F
:1008200043EA032242EA024200F005B870477047EB
:1008300070474FF000020429C0F0128010F0030C42
:1008400000F01B80CCF1040CBCF1020F18BF00F8C3
:10085000012BA8BF20F8022BA1EB0C0100F00DB872
:100860005FEAC17C24BF00F8012B00F8012B48BFD0
:1008700000F8012B70474FF0000200B51346944674
:100880009646203922BFA0E80C50A0E80C50B1F1E8
:100890002001BFF4F7AF090728BFA0E80C5048BFFC
:1008A0000CC05DF804EB890028BF40F8042B08BF9A
:1008B000704748BF20F8022B11F0804F18BF00F896
:1008C000012B7047014B1B68DB68184700000020B4
:1008D00009480A497047FFF7FBFFFFF713FC00BD0B
:1008E00020BFFDE7064B1847064A1060016881F3F8
:1008F0000888406800470000680900006809000097
:100900001D030000000000201EF0040F0CBFEFF3D9
:100910000881EFF30981886902380078182803D12B
:1009200000E00000074A1047074A12682C3212689C
:100930001047000000B5054B1B68054A9B589847B7
:1009400000BD000005030000000000205409000065
:1009500004000000001000000000000000FFFFFF86
:040960000090D00330
:101000008811002091B001005D960000E1AF010061
:101010005D9600005D9600005D96000000000000F7
:10102000000000000000000000000000EDB0010022
:101030005D960000000000005D9600005D960000D7
:1010400055B101005BB101005D9600005D960000A6
:101050005D9600005D9600005D9600005D960000C4
:1010600061B101005D9600005D96000067B101006E
:101070005D9600006DB1010073B1010079B101000E
:101080005D9600005D9600005D9600005D96000094
:101090005D9600005D9600005D9600005D96000084
:1010A0007FB1010085B101005D9600005D960000F2
:1010B0005D9600005D9600005D9600005D96000064
:1010C0008BB101005D9600005D9600005D9600000A
:1010D0005D9600005D9600005D9600005D96000044
:1010E0005D9600005D9600005D9600005D96000034
:1010F0005D9600005D9600005D9600005D96000024
:101100005D9600005D96000000F002F819F09DFF6A
:101110000AA090E8000C82448344AAF10107DA4552
:1011200001D119F092FFAFF2090EBAE80F0013F0E7
:10113000010F18BFFB1A43F00103184748A501002F
:1011400068A501000A4410F8014B14F00F0508BF10
:1011500010F8015B240908BF10F8014B6D1E05D083
:1011600010F8013B6D1E01F8013BF9D1641E03D05C
:10117000641E01F8015BFBD19142E4D3704700008B
:101180000023002400250026103A28BF78C1FBD890
:10119000520728BF30C148BF0B6070471FB500F031
:1011A0003DF88DE80F001FBD1EF0040F0CBFEFF3DC
:1011B0000880EFF30980014A10470000AF94000057
:1011C0008269034981614FF00100104470470000BB
:1011D000D511000001B41EB400B510F075F901B4CA
:1011E0000198864601BC01B01EBD0000F0B4404627
:1011F000494652465B460FB402A0013001B506488D
:10120000004700BF01BC86460FBC80468946924617
:101210009B46F0BC704700000911000019F012BF96
:1012200070B51C4C054608202070A01C00F065F825
:101230005920A08029462046BDE8704006F069BBD1
:1012400010B506F071FB13490020891E087010BD0F
:1012500070B50C460F49891E097829B1A0F16001CB
:10126000532906D3012011E0602802D043F2010087
:101270000CE020CC084E94E80E0006EB8000A0F5B0
:101280008050241FD0F8806E2846B047206070BD83
:10129000012070470A000020D0B1010010B50446BB
:1012A0000021012000F03FF80021182000F03BF859
:1012B00000210B2000F037F80421192000F033F84A
:1012C00004210D2000F02FF804210E2000F02BF84F
:1012D00004210F2000F027F80421C84300F023F870
:1012E0000721162000F01FF80721152000F01BF839
:1012F0002046FFF795FF002010BD88210180704730
:10130000FFF79EBF10487047104A10B514680F4B86
:101310000F4A08331A60FFF79BFF0C48001D04605A
:1013200010BD704770474907090E002806DA00F023
:101330000F0000F1E02080F8141D704700F1E0205C
:1013400080F800147047000003F9004310050240C4
:101350000100000130B5FB4D044610280AD0112CC5
:1013600006D02846122C817806D0132C08D0FFDF37
:10137000AC7030BDFFDFFBE71129F9D0FFDFF7E7E5
:101380001129F5D0FFDFF3E770B50EF02CF9044614
:101390000FF062FE201AC4B206200CF0EBFA0546EC
:1013A00006200CF0EFFA2E1A07200CF0E3FA05469F
:1013B00007200CF0E7FAE349281A32188878122837
:1013C0000DD000231A4413280BD0002002440878C3
:1013D000022808D000201044201AC0B270BD01239A
:1013E000F0E70120F2E70120F5E7D64810B5C17813
:1013F00094B0A9B15FF017018DF800104168CDF8E5
:1014000002100089ADF8060009A968460AF0C3F881
:101410000446112801D004B1FFDF14B0204610BDEE
:101420003221E9E702210CF0FABA2DE9F04194B03B
:101430001D4690460E460746FFF7F4FF04000BD00A
:101440002078222804D3A07FC0F34010A84206D100
:10145000082014B0BDE8F08143F20200F9E737201C
:101460008DF80000ADF802703DB101208DF8040048
:101470008DF805608DF8068002E000208DF80400EC
:1014800009A968460AF087F8A07F65F34510A077A0
:101490000020DEE730B50446A1F120000D460A2801
:1014A0004AD2DFE800F005070C1C2328353A3F44F8
:1014B000FFDF42E0207820283FD1FFDF3DE0A14858
:1014C0000178032939D08078132836D02078242851
:1014D00033D0252831D023282FD0FFDF2DE02078EE
:1014E00022282AD0232828D8FFDF26E020782228A7
:1014F00023D0FFDF21E0207822281ED024281CD012
:1015000026281AD0272818D0292816D0FFDF14E063
:101510002078252811D0FFDF0FE0207825280CD077
:10152000FFDF0AE02078252807D0FFDF05E02078DC
:10153000282802D0FFDF00E0FFDF257030BD30B586
:101540000B8840F67B444FF6FF72022801D093428D
:1015500004D09D1FA54224D2022802D04D88954276
:1015600003D04D88AD1FA5421BD24C88A34218D88A
:101570008B88B3F5FA7F14D2022802D0C888904233
:1015800005D0C88840F677450A38A84209D2C888ED
:10159000904208D0944206D05B1C6343B3EB800FAB
:1015A00001DB072030BD002030BD70B5044610F0CF
:1015B000F3F960BB207930B1082802D8217B0829D3
:1015C00005D9072070BD217B0029FAD0F6E718B1B4
:1015D000206810F0E1F9D0B9207B18B1A06810F0B4
:1015E000DBF9A0B9002507E0206850F8250010F0CD
:1015F000D3F960B96D1CEDB22079A842F4D800256A
:1016000009E0A06850F8250010F0C6F908B11020D4
:1016100070BD6D1CEDB2207BA842F2D8002070BDD9
:1016200010B5028943F6FD73111F994212D2418908
:1016300004290FD3B1F5804F0CD891420AD8017814
:10164000890705D5406818B1FFF7AFFF002800D122
:10165000002010BD072010BDF0B50024059D10B17D
:10166000A94203D851E009B90020F0BD0920F0BD1E
:10167000055D8DB107197E78112E3FD00FDC0A2E43
:101680003CD2DFE806F03B1624242A2A2C2C3333E4
:10169000025D72BB641CE4B28C42F9D3E4E71D2EF8
:1016A0002CDAA6F11206042E28D2DFE806F027274E
:1016B0001018022DDAD1BD781D70072D01D26D07EB
:1016C00001D40A20F0BD157845F0010515E0EE4380
:1016D000F60707E0012D07D010E00620F0BD2E0729
:1016E000A6F18056002EF5D06046F0BD1578AE0705
:1016F00001D50B20F0BD45F002051570055D641C99
:101700002C44E4B28C4202D9B0E74FF4485C8C42DE
:10171000AED3A9E710B504784CB1012243F20223FD
:10172000012C07D0022C0FD0032C17D112E000227D
:101730000A7015E00A7082790324B4EB921F0DD170
:101740000EE00000A80100200A708479B2EB941F1B
:1017500004D105E00A708279920901D0184610BDC3
:1017600050F8012F41F8012F80888880002010BD9B
:1017700008B538B1FEA06B4600680090487903EBCD
:10178000901000781070086842F8010F88889080E7
:1017900008BD30B50C46097895B0222902D2082040
:1017A00015B030BD28218DF80010ADF80200132AC5
:1017B00003D03B2A01D00720F2E78DF8042009A9C5
:1017C000684609F0E8FE050003D121212046FFF715
:1017D00061FE2846E4E700B595B023218DF800109E
:1017E000ADF802001088ADF804005088ADF806008E
:1017F000D088ADF80A009088ADF808000020ADF858
:101800000C00ADF80E0009A9684609F0C4FE15B039
:1018100000BD70B50E46050003D00021092010F070
:1018200078F8D44C0120022EE0701CD0032E00D09A
:10183000FFDF0621201D0FF061FD607A20F0C0005F
:1018400084F80900FFF7D1FD608A00280AD0002D36
:1018500008D083000122002109200FF0BDFF0928D4
:1018600000D0FFDF70BD0321E01D0FF047FD607A5F
:1018700020F0C00040F040006072E01C02F03BFC31
:10188000E0E72DE9FF410220BA4E8DF80400002761
:10189000F08AADF80600B84655E001A80CF029F82A
:1018A000050006D0F08AB0B3A6F81680ADF8068021
:1018B00047E0039C2078212843D0A07F01072BD547
:1018C00004F123000090A28EBDF80800214604F127
:1018D000360301F02BFD050003D011282AD0FFDFCD
:1018E00028E0A07F20F00800A077E07F810861F366
:1018F0000000C10861F34100E07794F8210000F096
:101900001F0084F820002078282824D1292120468F
:10191000FFF7C0FD1FE01CE0400712D5BDF808002E
:10192000214604F10E02FFF756FF050004D01128EE
:1019300000D0FFDF00250EE0A07F20F00400A0779C
:1019400009E07F1CFFB202200CF014F8401CB842E2
:10195000A3D8052D07D0BDF80600F082052D04D0D0
:10196000284604B076E5A6F816800020F9E72DE9B0
:10197000F047040000D1FFDF20787E4E20F00F00FA
:10198000801C20F0F0007030207060680178091F22
:1019900011290BD2DFE801F0F1090A4FF00A0CF02F
:1019A000F0360A0A0A0AF174F100FFDFBDE8F08799
:1019B00087883846FFF736FD050000D1FFDF6078E5
:1019C000212140F008006070307D40F00400307547
:1019D0002846FFF75FFD384606F0E7FC384603F07F
:1019E00023FC384604F03DFC394602200FF091FFFD
:1019F000A87F20F01000A877FFF743FF0028D5D07C
:101A0000FFDFD3E785882846FFF70CFD00B9FFDF2D
:101A100060688078012800D0FFDF606881792846FF
:101A200006F027FF0028C1D0617841F008016170FD
:101A30006168C880BAE786883046FFF7F3FC050086
:101A400000D1FFDF6078314640F0080060706068C8
:101A5000C088288160680089688160684089A881A1
:101A600002200FF056FF0020A875A87F00F00300A9
:101A700002289BD1FFF705FF002897D0FFDF95E7ED
:101A800080783C2803D0002502280AD000E00125F8
:101A9000002720B13C2802D0022800D0FFDF17B178
:101AA0007EE00127F5E7607840F008006070307D47
:101AB00040F008003075EDBB606802218788384629
:101AC0000BF0A4FF0546032138460BF09FFF82462A
:101AD000052138460BF09AFF8146042138460BF069
:101AE00095FF804605B9FFDFBAF1000F00D1FFDF97
:101AF000B9F1000F00D1FFDFB8F1000F00D1FFDF17
:101B000022212846FFF7C6FC60688079012837D07B
:101B10004FF00208A87F68F30100A8776068C08AC8
:101B200028816068008B68816068408BA88160684C
:101B3000C07900E027E0E87560688168A961808964
:101B4000A8836068807B6870606850F80F1FC5F8D4
:101B500002108088E880A87F00F00301384606F074
:101B600016FCB8F1010F0ED0B8F1020F18D005E045
:101B70000302FF01A80100201FE023E0FFDF15E7BB
:101B80004FF00108C6E73078032800D0FFDF0021BE
:101B900008460FF0BEFEBDE8F047012000F087BF09
:101BA000B078132800D0FFDF002107200FF0B1FE2E
:101BB000BDE8F0471120FFF7CDBB2046BDE8F04758
:101BC00001F08CBE607840F008006070EEE62DE910
:101BD000F0470546007800270009DFF894A69146F3
:101BE0000C463E46012871D0BC464FF6FF710228D4
:101BF0006DD0072809D00A286AD0FFDFA9F8006055
:101C00000CB1278066800020D0E6686804F10802E5
:101C100003780D2B40D006DC042B7DD0072B44D05D
:101C20000A2B7AD106E0122B46D0132B51D0142B5D
:101C3000F7D1C0E011270926002C6FD0B0F804803E
:101C4000A4F804806868807920729AF814104046DD
:101C500021F004018AF8141004210BF0F2FE052192
:101C600040460BF0EEFE002140460BF0EAFE01215B
:101C700040460BF0E6FE032140460BF0E2FE022157
:101C800040460BF0DEFE062140460BF0DAFE07214F
:101C900040460BF0D6FEB1E701270926002CCCD038
:101CA0008088A080686880790EE0122710268088DE
:101CB000214600F01EFFA1E71C270926002CBCD0FE
:101CC0004088A08068680079207297E78AE0B3E0D6
:101CD00082E081783C2938D010272026002CACD017
:101CE0008088A0806868C08A60836868C08A208312
:101CF0006868008BA0836868408BE0836868417FD8
:101D0000E07D61F30000E0756968497F490861F38F
:101D10004700E075696802E022E05CE08BE0C8798A
:101D20000831FFF725FD696804F10F0201F10F008A
:101D30008B7B01461846FFF71BFD6868807910B160
:101D40000120A07507E00220FBE71B270926002CD5
:101D500071D084F808C09AF8141021F008018CE0C2
:101D60001D273026002C66D0A1806868411D0079AF
:101D7000FFF7FEFC686890F82B00E0736868C07895
:101D80000428207C14D020F00100207469681F22F0
:101D9000C97861F3420020746968C97A61F3C700A9
:101DA0002074696804F111000C3119F04DF825E731
:101DB00040F00100E9E720271026E4B3A18068681D
:101DC00004F10902407A20726968CB1C88781946B0
:101DD000FFF7CEFC12E74A4621462846BDE8F04709
:101DE00001F001BF287E012803D0022813D0FFDFB5
:101DF00004E71F271026F4B16888A080688B208133
:101E0000A88B6081E88BA081288CE0819AF814105F
:101E100021F0200131E012271026688800F069FEC9
:101E20004CB1687800F007000328C0D19AF814106C
:101E300021F0020121E027E0287E062822D2DFE8F7
:101E400000F0040F0F030303C5E71B270926DCB1CD
:101E5000A18084F808C09AF8141021F001010CE068
:101E60001B27092684B1A180287E012808D00320E1
:101E700020729AF8141021F010018AF81410BDE6AF
:101E80000220F5E7FFDFB9E6A9F80060BBE610B570
:101E9000F74894B08078132802D0082014B010BD01
:101EA00022208DF8000009A9684609F074FB044659
:101EB000002107200FF02DFD2046EFE700B5EC488C
:101EC00095B08078122801D00820A0E41E208DF85B
:101ED000000000208DF802008DF8030009A9684673
:101EE00009F059FB0028F0D1002107200FF011FD67
:101EF0001120FFF72FFA002089E400B5DC4895B0E7
:101F00000078022803D0032801D008207FE41B209A
:101F10008DF8000000208DF8020009A9684609F03C
:101F20003AFB0028F2D1002108460FF0F2FC012014
:101F300000F0BDFD00206AE42DE9F0410027CC4C03
:101F40000A287CD2DFE800F0057B1C7B7B7B7B448E
:101F50003B6AFFF7D2FF002831D105F021FC0028B1
:101F60002DD0017821F00F01891C21F0F0012031E2
:101F70000170077605F0F2FB207D40F001001DE0C6
:101F80008EB23046FFF74EFA050000D1FFDF287809
:101F9000212814D005F004FC98B1017821F00F013C
:101FA000891C21F0F0011031017002210176468078
:101FB000AF7505F0D3FB207D40F002002075BDE831
:101FC000F08129463046BDE8F0411322FFF7E1BB1E
:101FD000A578122D03D0132D04D0FFDFEFE7FFF714
:101FE0006DFF01E0FFF753FF0028E8D105F0D8FBB3
:101FF0000028E4D0017821F00F01891C21F0F001C4
:1020000020310170122D07D00221017605F0A6FBC8
:10201000207D40F01000D1E70121F6E7607A012130
:10202000B1EB901F02D1022104E008E0800900D04A
:10203000FFDF0321BDE8F0410020FFF7EABBFFDF2F
:10204000BDE72DE9F04114460D00074600D1FFDF42
:102050002878012803D0022821D0FFDFAFE73846D7
:10206000FFF7E0F9060000D1FFDF0220B07520780D
:1020700020F00F00801C20F0F000103020706078FD
:1020800040F0080060702868A0616868E0612889F5
:1020900020847748017D41F0200101758FE73846A3
:1020A000FFF7C0F9060000D1FFDF69884FF6FF7027
:1020B000814209D1AA88824206D131463846BDE81C
:1020C000F0411322FFF765BB814201D1A88898B186
:1020D000207820F00F00801C20F0F00010302070DD
:1020E000607840F0080060702868A0616868E0616E
:1020F00028892084002006E0782300223946022027
:102100000FF06AFB0120B07559E730B5054695B070
:102110000C4608460FF040FC78BB00200121203D12
:10212000062D5FD2DFE805F0032540444A57002121
:1021300008200FF0C7FB10B1112015B030BD2420CE
:102140008DF80000D4F80200CDF80200A0798DF8D7
:10215000060009A9684609F01EFA05002CD10823DB
:102160000022114618460FF037FB082824D0FFDF65
:1021700022E060680FF052FC08B11020DDE73C203F
:102180008DF800002088ADF802006088ADF80400EA
:1021900009A9684609F0FFF905000DD1606858B13A
:1021A000BDF82810018007E0206801F0E2FF02E09E
:1021B000204600F0B1FC05462846BEE73D220BE074
:1021C0008DF8021002E000BF8DF8020009A96846F0
:1021D00009F0E1F9EFE734228DF800202278D207E8
:1021E000F2D0EDE70720A8E730B5054695B00C46DC
:1021F00008460FF0F5FB70BB203D052D35D2DFE81A
:1022000005F00323232523002088FFF70BF920B1D5
:102210000078222804D208208FE743F202008CE7DE
:1022200025208DF800002088ADF8020009A9684635
:1022300009F0B1F9002880D1DDF82A10C4F80210A5
:102240009DF82E10A17178E7062076E7206838B156
:102250000FF0E4FB08B110206FE7206801F07DFF6C
:102260000348408AA080002067E7072065E7000058
:10227000A8010020FE487047FD4810B518210A3813
:1022800018F059FE012000F012FC1120FFF762F84F
:10229000F74C00200A3C211D60744FF4617060828D
:1022A000E01C05F045FBD4F80300C4F80A00B4F8BC
:1022B0000700E081607A2074FFF797F800B1FFDF34
:1022C00000F09CFCBDE8104001F0C2BA10B50C460D
:1022D0003E21204618F02FFEA07F20F00300A077BB
:1022E000202020700020A07584F8220010BD7047C7
:1022F0002DE9FC4105460E4608460FF04DFB10B196
:102300001020BDE8FC81DA4C0A3C15B1012D38D112
:102310002CE0D4F803000090B4F80700ADF80400F6
:102320008046677A8DF80670E11C3046FFF7F2F9B7
:102330000028E6D1FFF759F830B10099C4F803102E
:10234000A4F807806772DCE7307808B1012808D16B
:10235000D4F80300C4F80A00B4F80700E081607AFA
:102360002074002109200FF0D4FA0FE0317841B138
:10237000012906D0022906D0032904D043F2022005
:10238000BFE70720BDE70120FFF743FA657400208F
:10239000B7E710B504460FF023FB08B1102010BDBD
:1023A000B34922460A39C878091DFFF7E1F9002030
:1023B00010BD2DE9F0419AB0054600208DF85C0073
:1023C0008DF858008DF828008DF860001E461446E0
:1023D000884628460FF02BFB18B920460FF027FB44
:1023E00010B110201AB0EAE555EA040018D01F27F2
:1023F0000AAB17AA414628460097FFF72DF9002897
:10240000F0D118AB16AA314620460097FFF724F901
:102410000028E7D19DF85800C00703D00A20E1E763
:102420000720DFE701AF7DB11A208DF804008DF899
:10243000068042462946F81C18F006FD0BA901A8A3
:1024400009F0A9F80028CDD17CB120208DF8040036
:102450008DF8066032462146F81C18F0F5FC0BA9F1
:1024600001A809F098F80028BCD181499DF82800FE
:102470000A3948700020B5E770B506460A200C46B8
:10248000087015461146204609F085F830B9382104
:1024900021702046294609F07EF820B1082801D194
:1024A00043F2032070BD2A462146304600F05BFB14
:1024B0000446082800D1FFDF204670BD2DE9F04119
:1024C0006CA196B00446D1E90001CDE914010027C2
:1024D00020460FF061FA30B92078012806D16068F3
:1024E0000FF05AFA10B1102016B068E5604D0A3DA1
:1024F0002878012801D00820F6E707200BF042FADF
:1025000018B9207848B1012807D0FEF73DFF30B157
:10251000287D10F00C0F09D103E01220E4E713200E
:10252000E2E7C10702D1A846800701D51120DBE709
:10253000208A43F6E172A0F120019142217807D36D
:10254000012942D1002840D1618A00293DD10FE004
:10255000022901D0032901D1A02836D3012907D0AF
:1025600098F80110C90703D0618A71B3B4292CD837
:10257000217831B1012908D0022904D0032924D1BE
:1025800015E0002516E0022514E008B9608A60B164
:1025900004256068007868B101280AD0022808D0B4
:1025A000032806D043F202209EE70125F1E7032528
:1025B00000E00127207A30B1012807D0022807D097
:1025C00003286AD106E0002605E066E0012602E065
:1025D000022600E003260DB1022D13D196B1E0686A
:1025E00018B1FEF7E2FF002886D198F801008007B5
:1025F00002D043F2012077E7022D03D1022E4CD006
:10260000032E4AD018208DF82C00208AADF82E0019
:10261000208AADF830008DF8325098F80310002071
:102620004FF0010811B1012968D102E08DF83300A3
:1026300001E08DF833808DF834702178012925D0A0
:10264000CDF83500ADF839008DF83C60207DC0F341
:102650004002014662F35F01C0F3800041EA80005E
:1026600014A9085C8DF83B00B8B169460BA805E0D9
:10267000B2010020070605040302010008F08BFFE9
:10268000002891D15DB1022D09D011E0606850F8A9
:10269000011FCDF835108088D4E7072024E73EB12C
:1026A000E06828B16A460BA9FFF7E6FE0028A2D130
:1026B0001B208DF82C008DF82E8069460BA808F0A1
:1026C0006AFF002897D19DF801001B2816D1052D1F
:1026D00009D2DFE805F0030305050300032000E04D
:1026E000022000F0E4F9012D0AD0608A40B10022F6
:1026F0008300114610460FF06FF808B10320F3E68F
:102700000020F1E62DE9FC4107460D460326084668
:102710000FF08DF9002863D13846FEF783FE0400E0
:1027200004D02078222804D20820EAE543F20200EF
:10273000E7E5A07F00F0030C2DB129466046FEF7C7
:10274000FEFE0600F1D1F948BCF1010F05D0BCF145
:10275000020F17D0FFDF3046D3E5A27D2946012ABC
:1027600002D0007D800701D51120CAE529B968464D
:1027700000F0FDFA0028D8D16946384605F0F6FF8A
:102780000646E8E7A17D022914D1007D800611D418
:1027900025B1A07F40070BD4002100E0012138467D
:1027A00006F02FF80600D6D1A075002DD3D002E098
:1027B0001126D0E7A5B12A4621463846FFF70BF887
:1027C00006461128C7D1A07F4107C4D4296844F820
:1027D0000E1F6968616040F0040020740026BAE7AB
:1027E00010208EE570B50C460546FEF71BFE010075
:1027F00005D022462846BDE87040FEF7CABF43F226
:10280000020070BD00B595B031218DF800108DF833
:10281000020009A9684608F0BEFE15B000BD0123FC
:10282000FEF703BE00231A461946FEF7FEBD70B53B
:1028300094B004460FF0B0F810B1102014B070BD81
:102840002046FEF7EDFE0028F8D1B84DA8781128F3
:1028500001D00820F2E7FEF797FD20B1287DC006E1
:1028600003D51120EAE71320E8E71D208DF80000CA
:10287000207800F001008DF802002089ADF80400F6
:102880006089ADF806002078C0F340008DF809009B
:10289000E8780025012618B1012804D00320CDE7EF
:1028A0008DF8085001E08DF8086009A9684608F025
:1028B00072FE0028C2D12078800707D5606828B151
:1028C00009AA6946FFF7D8FD0028B7D11E208DF868
:1028D00000008DF802608DF8035009A9684608F0E1
:1028E0005AFE0028AAD1A08900F0F5F80400A5D16D
:1028F0001220FEF72FFD2046A0E7F0B595B0154653
:102900000C4607460FF093F838B920460FF044F80C
:1029100018B928460FF040F810B1102015B0F0BDDE
:10292000824E307D10F0180F01D1400701D51120E3
:10293000F4E72046FEF774FE0028EFD12078C0F3BC
:102940004001394302D0800702D50FB10720E5E7E7
:1029500029460220FEF7F3FD0028DFD1B0781128C8
:1029600003D0122801D00820D8E706200BF00AF87F
:1029700018B1B078122802D005E01220CEE7FFF798
:102980009DFA0028CAD1FEF7FFFC022801D21320CD
:10299000C4E72078800707D5606828B109AA69468E
:1029A000FFF76AFD0028B9D121208DF800002089A9
:1029B000ADF802006089ADF8040020784FF0010105
:1029C000C0F340008DF80600207882074FF0000029
:1029D00015D43A7842B1012A09D0022A07D0032A35
:1029E00005D043F2022099E78DF8070001E08DF849
:1029F000071057F8012F0292BA88ADF80C20F27830
:102A00001AB1012A04D0032088E78DF80E0001E0F6
:102A10008DF80E102988ADF810106988ADF81210E5
:102A2000A988ADF81410E988ADF81800ADF81610B3
:102A3000ADF81A0009A9684608F0ADFD002886D156
:102A4000A08900F048F804008ED11320FEF782FC24
:102A5000204663E730B5054695B00C4608460EF0B3
:102A6000BFFF10B1102015B030BD2846FEF7DAFCCC
:102A700038B10178222902D3807F800604D408204F
:102A8000F1E743F20200EEE713208DF80000ADF805
:102A9000025009A9684608F07EFD0028E3D19DF99F
:102AA0002A107F2901D02170DDE70520DBE730B552
:102AB0001E4D040008D0012C04D0022C06D0032C9B
:102AC00004D0FFDF2C7030BDFFDFFBE72878012842
:102AD000F8D0FFDFF6E710B548B1830000221146B9
:102AE00007200EF079FE072801D0032010BD00203A
:102AF00010BD70B50C0006460DD0FEF793FC050026
:102B000000D1FFDFA680288920812889608168891B
:102B1000A081A889E08170BD10B50446006840B16D
:102B20000EF085FF20B1102010BD0000A80100208C
:102B3000206801F005FBA0882F4C6082607C012892
:102B40000FD1002109200EF0BDFE00B10120617AF5
:102B50000122B2EB911F01D1022100E00321FEF717
:102B600058FE0020E0E72DE9F047002592460C468C
:102B70000646A8464FF001090B2721E0306850F8BF
:102B80002500007820B1012805D00720BDE8F08796
:102B900084F8028001E084F80290306850F8250043
:102BA00050F8011FC4F803108088A4F807002770AC
:102BB0005146204608F0EFFC0028E7D16D1CEDB22D
:102BC0003079A842DAD8002539270FE0B068102202
:102BD00050F82510A01C18F037F9277051462046F0
:102BE00008F0D9FC0028D1D16D1CEDB2307BA84291
:102BF000ECD80020CAE70000A8010020E848002126
:102C00000160818070472DE9FF41804692B01C46EB
:102C10000E4618460EF0C0FE18B1102016B0BDE8E2
:102C2000F08121460120FEF78AFC0028F6D101251B
:102C30008DF842504FF4C050ADF84000002210A96A
:102C4000284603F0ACFD0028E8D18DF842504FF43F
:102C50002850ADF8400000271C216846099718F05D
:102C60008CF99DF82400ADF8346020F00F00401C72
:102C700020F0F00010308DF824009DF82500ADF80C
:102C8000367020F0FF008DF825009DF8260007AA79
:102C900020F00600801C40F001008DF826009DF811
:102CA00000000BA940F002008DF800001F20ADF8D5
:102CB000380009A80C9010A80B90CDF83C8068460D
:102CC00003F070FB0028A9D1B54EBDF81C0007AA7F
:102CD00030808DF8425042F60120ADF840009DF85A
:102CE00026000BA920F00600801C20F001008DF8C2
:102CF00026000220ADF83400ADF8380014A80F907B
:102D0000684603F04FFB002888D1BDF81C00708096
:102D1000311D204600F0ECF880E73EB5044608205F
:102D2000ADF8000020460EF037FE08B110203EBD81
:102D300021460120FEF703FC0028F8D12088ADF8D9
:102D400004006088ADF80600A088ADF80800E088AF
:102D5000ADF80A00924801AB6A468088002103F072
:102D60000BFFBDF800100829E1D003203EBD1FB5C0
:102D70000446002002900820ADF80800CDF80CD0E1
:102D800020460EF009FE10B1102004B010BD84489A
:102D900002AA81884FF6FF7004F07DF80028F4D174
:102DA000BDF80810082901D00320EEE7BDF8001097
:102DB0002180BDF802106180BDF80410A180BDF82B
:102DC0000610E180E1E701B582B00220ADF8000015
:102DD000734802AB6A464088002103F0CDFEBDF87F
:102DE0000010022900D003200EBD1CB50021009167
:102DF0000221ADF8001001900EF0F2FD08B1102094
:102E00001CBD67486A4641884FF6FF7004F043F8DE
:102E1000BDF800100229F3D003201CBDFEB5074603
:102E200014460E4608460EF0B7FD08B11020FEBD50
:102E30001F2C01D90C20FEBD38460EF0ADFD584DBB
:102E400018BB288801A903F023F80028F3D13878AB
:102E50008DF80500288801A903F06FFE0028EAD14B
:102E600000909DF800009DF8051040F002008DF8DC
:102E70000000090703D040F008008DF80000288802
:102E8000694603F0FDFD0028D5D1ADF8084028883B
:102E9000334602AA002103F06FFEBDF80810A142DC
:102EA000C9D00320FEBD7CB50546002000900190EE
:102EB0000888ADF800000C46284601950EF0AEFDDE
:102EC00018B920460EF08CFD08B110207CBD15B15C
:102ED000BDF8000050B132486A4601884FF6FF70D5
:102EE00003F0D9FFBDF8001021807CBD0C207CBD13
:102EF00030B593B0044600200D460090142101A87F
:102F000018F03BF81C2108A818F037F89DF80000CD
:102F1000CDF808D020F00F00401C20F0F000103059
:102F20008DF800009DF8010006AA20F0FF008DF842
:102F300001009DF8200001A940F002008DF820005A
:102F400001208DF8460042F60420ADF8440011A897
:102F500001902088ADF83C006088ADF83E00A08864
:102F6000ADF84000E088ADF842009DF8020020F086
:102F70000600801C20F001008DF802000820ADF84A
:102F80000C00ADF810000FA8059008A803F00AFA8D
:102F9000002803D1BDF818002880002013B030BDF0
:102FA00010000020094810B504680A490848086064
:102FB0000DF07AFB0848046010BD08490020086045
:102FC0004FF0E0210220C1F8800270471005024056
:102FD000010000011805024014050240FC1F0040DA
:102FE00070B50C46054606F0B1FE21462846BDE800
:102FF000704007F08EBE704770477047704770474B
:1030000010FFFFFFDBE5B15100C001008800FFFFAA
:1030100010B504460EF0C0FC08B1102010BD207899
:10302000C0F30210042807D86078072804D3A178D9
:10303000102901D8814201D2072010BDE078410754
:1030400006D421794A0703D4000701D4080701D523
:10305000062010BD002010BD10B513785C08C37F9A
:1030600064F30003C3771478A40864F34103C377BF
:103070001078C309887863F34100887013781C09BD
:103080004B7864F347134B701378DB0863F300004D
:1030900088705078487110BD10B5C4780B7864F30F
:1030A00000030B70C478640864F341030B70C478A8
:1030B000A40864F382030B70C478E40864F3C303C8
:1030C0000B700379117863F30001117003795B08C9
:1030D00063F34101117003799B0863F3820111705E
:1030E0000079C00860F3C301117010BD70B51446BB
:1030F0000D46064604F054FB80B10178142221F0FD
:103100000F01891C21F0F001A03100F8181B2146A5
:1031100017F0DFFEBDE8704004F020BB29463046C2
:10312000BDE870401322FEF734BB70B514460E465E
:10313000054604F035FB70B1017821F00F01891CC0
:1031400021F0F00120310170458021688161BDE8E6
:10315000704004F003BB31462846BDE8704013229E
:10316000FEF717BB10B5FE4C94F8300000280CD1C8
:1031700004F120014FF6FF72A1F110000CF0A9F844
:1031800000B1FFDF012084F8300010BD2DE9F047C9
:10319000064608A8894690E830041F469046142148
:1031A000284617F0EAFE0021CAF80010B8F1000F17
:1031B00003D0B9F1000F03D114E03878C00711D063
:1031C00020680EF00DFCE8BBB8F1000F07D12068B5
:1031D000123028602068143068602068A860216878
:1031E000CAF800103878800727D560680EF016FC02
:1031F00040BBB9F1000F2CD0FFF73CF80168C6F8CE
:10320000B4118188A6F8B811807986F8BA01FFF761
:10321000A9FFDFF84C8308F12008C5F80C8062682C
:103220005AB196F8B40106F2B5111032FEF7A0FAC1
:1032300010224146606817F007FE3878400712D523
:10324000A06800E002E00EF0CBFB50B11020BDE81A
:10325000F08760680028F9D0E8606068C6F8B001BF
:10326000EBE7A06828610020F1E730B50546087853
:103270000C4620F00F00401C20F0F00110312170AE
:103280000020607095F8220030B104280FD0052886
:1032900011D0062814D0FFDF20780121B1EB101FD8
:1032A00004D295F8200000F01F00607030BD21F0BE
:1032B000F000203002E021F0F00030302070EBE729
:1032C00021F0F0004030F9E710B510B190F8A940B6
:1032D00044B1A34890F8354000205CB1086010600C
:1032E000186010BD00F1A8040C6000F1D001F830A6
:1032F0001160F5E79A4C34340C60F0E700B58BB000
:103300000823CDE902128DF8013001919449002380
:1033100064310591099301468DF8103068460BF031
:10332000B0FF002800D0FFDF0BB000BD30B595B076
:103330000C462C2518998DF80050ADF80200B3B159
:103340001868019058680290ADF80C2010220DF119
:103350000E0017F079FD09A9684608F01CF900284D
:1033600003D1A17F41F01001A17715B030BD00203D
:103370000190E8E72DE9F0470646008A8AB080B25E
:103380000D468146FEF74EF80446754F3078283FCB
:10339000DFF8CC814FF0000A122873D2DFE800F08A
:1033A00072E9350936777E98A8F3E7E6E5E4DF5B56
:1033B000DFDFA07F00F00300012806D0002148468F
:1033C0000AF02DFB050003D101E00121F7E7FFDF43
:1033D00098F85C10090602D5D8F860000BE00321CC
:1033E00005F121000DF08AFFD5F821005D49B0FB01
:1033F000F1F201FB1200C5F8210070686866B06840
:10340000A8662078252800D0FFDFECE0A07F00F040
:103410000300012806D0002148460AF000FB060000
:1034200003D101E00121F7E7FFDF7078810702D5C2
:103430002178252904D040F0010070700AB006E719
:103440000220287096F82000287106F121003136FC
:10345000C5E90206F2E7A07F00F00300012806D0CC
:10346000002148460AF0DBFA040003D101E0012103
:10347000F7E7FFDF6078C10605D5142028704134D6
:103480006C60DBE7E2E140F008006070D6E73448AA
:10349000082128380DF032FF032016E02A208DF88D
:1034A000000010220DF10200716817F0CDFC10220F
:1034B0000DF11200B16817F0C7FC294968462C3994
:1034C00008F069F800B1FFDF042028706F60B5E7ED
:1034D000E07FC00600D5FFDFB0680090B388062209
:1034E0000321484604F0C1FF0028A7D0FFDFA5E76D
:1034F00004B9FFDF716821B1102204F1230017F035
:10350000A3FC28212046FDF7C5FFA07F00F00300A3
:1035100002280ED104F12300002300901A46214610
:103520004846FFF703FF112807D029212046FDF761
:10353000B1FF307A84F8200080E7A07F000700D533
:10354000FFDF14F81E0F40F008002070A4F816A04A
:10355000C4F818A0C4F81CA0617808460AE034E05A
:103560005C02002040420F006CE19AE090E062E0D3
:1035700009E03FE061F38200410861F3C30060703D
:10358000307AE0705AE7A07F00F00300012806D0EF
:10359000002148460AF043FA040003D101E001216A
:1035A000F7E7FFDF022104F175000DF0A7FE1120FF
:1035B000287004F5DA706860B4F875002882FD4858
:1035C0006C346C61C5E9028038E7A07F00F003002D
:1035D000012805D0002148460AF021FA18B901E077
:1035E0000121F8E7FFDF0AB0324621464846BDE830
:1035F000F0477BE504B9FFDF207821289CD930799A
:10360000012802D002280AD103E0E07F40F0100038
:10361000E07798F85C1041F0010188F85C103246C0
:1036200021464846FFF762FD0AB02046BDE8F04754
:103630002321FDF72FBF327901230321484604F0EF
:10364000B9FD98B1122005F8040B327925F8042B46
:10365000281DA91E0095CDE901100023032148462D
:1036600004F025FE00288DD0FFDFE7E6A07F00F004
:103670000300012806D0002148460AF0D0F90400D2
:1036800003D101E00121F7E7FFDF30792070D5E6B3
:103690000321484605F085F9002895D113202870AC
:1036A000CCE6A07F00F00300012806D000214846A8
:1036B0000AF0B5F9050003D101E00121F7E7FFDFCA
:1036C00095F8740000F00300012878D1A07F00F085
:1036D0000307E07FC0F3400616B1012F04D02BE0B2
:1036E00095F89000C0072AD0D5F8AC0118B395F82A
:1036F0007320017C62F387010174E27FD5F8AC018D
:1037000062F341010174D5F8AC0166F30001017464
:10371000AEB1D5F8AC01102204F12301783517F0D1
:1037200093FB287E40F001002876287820F00100E5
:1037300005F8780900E016B1022F04D02CE095F8C6
:103740007800C00726D0D5F8A80118B395F87320E3
:10375000017C62F387010174E27FD5F8A80162F36E
:1037600041010174D5F8A80166F3000101748EB11E
:10377000D5F8A801102204F12301783517F064FB75
:10378000287840F0010005F8180B287820F0010097
:1037900005F89009022F51D05FF0000000EB4000C7
:1037A00005EBC00090F87800800708D5D5F8B02167
:1037B00095F86C0005F16D011032FDF7D9FF052079
:1037C00060F3070815F8740F00F0030060F30F288A
:1037D000287960F31748287F60F31F687548AC3874
:1037E000027822F00F02921C22F0F00220320270C6
:1037F000427822F00702D21C4270A0F80290C0F872
:10380000188004F035F92078252805D0212807D024
:10381000FFDF2078222803D922212046FDF73AFE37
:10382000A07F00F0030001280AD0002148460AF0DA
:1038300008F900283FF40EAEFFDFFFE50120ADE7F9
:103840000121F3E7716881F801A0F7E5FFDFF5E5F5
:1038500070B5584C0025103C14F85C0F20F0800027
:10386000207065600BF0D7FC5249A1F1100004F004
:1038700091F804F82C5C072060724E487C3020617F
:103880005030A0611030E06170BD70B50D46FDF79D
:10389000C9FD040000D1FFDF4FF4DE71284617F0A8
:1038A0006CFB44485430686104F123002861A07F18
:1038B00000F00300012809D05FF0020105F59070C7
:1038C0000BF0AAFC002800D0FFDF70BD0121F5E756
:1038D0000A46014602F590700BF0BCBC70B5054677
:1038E00040689AB0017808290DD00B2903D00C2923
:1038F00036D101218171686886883046FDF792FDD6
:10390000040035D133E046883046FDF78BFD0400D6
:1039100000D1FFDF2078212822D0282822D1686812
:1039200002210C3001F09EF9E0B168680821001D09
:1039300001F098F9B0B12D208DF80000ADF80260CB
:10394000102204F1230101A817F07EFA09A96846A4
:1039500007F021FE00B1FFDF29212046FDF79AFD87
:103960001AB070BD687840F008006870F8E7FFDFB3
:10397000A07F00F00301022902D120F01000A077FF
:10398000207821280AD06868817909B1807898B1B7
:10399000A07F00F0030002285BD0FFDFA07F00F0D3
:1039A00003000228DCD1FDF76CFF0028D8D0FFDF30
:1039B000D6E700006C020020687840F008006870CC
:1039C000E07FC10720D0800701D5062000E0052058
:1039D00084F822002078292818D02428DED1314606
:1039E00006200DF096FF22212046FDF753FDA07F13
:1039F00000F0030001282AD0002130460AF021F807
:103A00000028CBD0FFDFC9E70420E1E7A07F00F06A
:103A10000300012806D0002130460AF000F8050016
:103A200003D101E00121F7E7FFDF25212046FDF763
:103A300031FD10208DF8500014A905F590700BF0A1
:103A400000FC0228AAD00028A8D0FFDFA6E70121A9
:103A5000D3E7687840F0080068709FE72DE9F047E9
:103A60008CB01D46904689460646DDF850A0FDF70D
:103A7000D9FC040052D0207822284FD323284DD0DF
:103A8000E07FC0064AD4A07F00F00300012806D0E2
:103A90000021304609F0C3FF070002D00BE00121EE
:103AA000F7E7A07F00F00300012804D10121304690
:103AB00009F0ACFF074601AB02AA03A93846FFF79D
:103AC00003FC039800B9FFDF4FB1039807F5907727
:103AD00087612078222806D0242804D007E00399A3
:103AE0000020886103E025212046FDF7D3FC0398E0
:103AF0000C2141704662A0F80480C0F80890A0F83C
:103B000006A0C560029901610199416104A90BF009
:103B1000B8FB022802D0002800D0FFDF0CB0BDE8BF
:103B2000F08730B589B00546FDF77CFC0178222985
:103B300033D9807F00F00300012806D000212846F9
:103B400009F06DFF040003D101E00121F7E7FFDF79
:103B5000227801230321284604F02CFB00281CD0E6
:103B600012208DF80C00227806A8811F05ABCDE944
:103B700000310290ADF8102000230321284604F004
:103B800096FB00B1FFDF03A904F590700BF059FB21
:103B9000022802D0002800D0FFDF09B030BD10B5E8
:103BA00086B00446FDF73EFC0178222919D9807FB2
:103BB00000F00300012806D00021204609F02FFF65
:103BC000040003D101E00121F7E7FFDF13208DF8A6
:103BD0000000694604F590700BF033FB002800D01C
:103BE000FFDF06B010BD2DE9F05F05460C4600274B
:103BF0000078904601093E46BB4604F1080A0229B6
:103C00007ED0072902D00A2909D141E068680178ED
:103C1000082905D00B292BD00C2929D0FFDFC5E1BD
:103C200014271C26002C6CD04088A080FDF7FAFBDE
:103C30005FEA000900D1FFDF99F81700524609F149
:103C40001801FDF795FD68688089208269684868D9
:103C5000C4F812008868C4F81600A07E20F00600A0
:103C600040F00100A07699F81E0040F040014DE0C0
:103C70001A270A26002CD6D08088A080FDF7D2FB18
:103C8000050000D1FFDF51462846FFF7EEFA8DE12F
:103C90000CB1288DA080287E0E287CD006DC01285F
:103CA0007AD0022808D0032804D135E0102874D037
:103CB000112873D0FFDF79E11E270926002CB2D02E
:103CC000A088FDF7AFFB5FEA000900D1FFDF287F86
:103CD00000F003000128207A1BD020F001002072A0
:103CE000297F890861F341002072297FC90861F3A7
:103CF00082002072297F090961F3C300207201E06C
:103D000049E116E199F81E0040F0800189F81E1083
:103D10004CE140F00100E2E713270D26002CAAD069
:103D2000A088FDF77FFB8146807F00F0030001281B
:103D300006D00021A08809F072FE050003D101E041
:103D40000121F7E7FFDF99F81E0000F00302012AC6
:103D500059D0A86E817801F003010129217A54D04D
:103D600021F00101217283789B0863F341012172E4
:103D70008378DB0863F38201217283781B0963F384
:103D8000C3012172037863F306112172437863F350
:103D9000C711217203E060E0A6E08EE09EE084F8A7
:103DA00009B0C178A172012A32D04279E17A62F376
:103DB0000001E1724279520862F34101E1724279F5
:103DC000920862F38201E1724279D20862F3C30180
:103DD000E1720279217B62F30001217302795208BA
:103DE00062F3410121730279920862F38201217327
:103DF0000079C00860F3C301217399F800002328FB
:103E00005AD9262168E0686EA4E741F00101A9E7CC
:103E10000279E17A62F30001E1720279520862F3F9
:103E20004101E1720279920862F38201E172027942
:103E3000D20862F3C301E1724279217B62F300018F
:103E400021734279520862F3410121734279920849
:103E500062F3820121734079CBE718271026002CEA
:103E600067D0A088FDF7DEFA8246807F00F003006D
:103E7000012807D00021A08809F0D1FD5FEA0009E0
:103E800003D101E00121F6E7FFDFE869A06099F8BE
:103E9000010040F0040189F8011099F80200800740
:103EA00008D5012020739AF8000023287ED9272105
:103EB000504663E084F80CB078E015270F26C4B3B1
:103EC000A088FDF7AFFA814606225146E86907F05F
:103ED000C8FB0120A073AEE048464FE01627092634
:103EE0003CB3287F207261E0287FFE4902280CD075
:103EF00019270E26ECB101280DD003281AD004286A
:103F00001BD0052819D0FFDF23E01B270926BCB3EF
:103F10000120207205E001202072607A20F0030069
:103F2000607211F85C0F4208520062F306000870DC
:103F30000FE02BE00220207207E0697F052801F0E6
:103F40000F0141F0800121721BD0607A20F0030044
:103F50006072A088FDF766FA05460078212825D012
:103F6000232800D0FFDFA87F00F00300012810D035
:103F70000021A08809F065FD22212846FDF78AFA74
:103F800014E0607A20F00300401CE1E7A8F800602C
:103F900011E00121EDE70CB16888A080287E03289C
:103FA0002BD004280AD005284BD0FFDFA8F80060EA
:103FB0000CB1278066800020BDE8F09F15270F26F2
:103FC000002CE3D0A088FDF72DFA807F00F00300DD
:103FD000012806D00021A08809F021FD050003D1A9
:103FE00001E00121F7E7FFDFD5F821000622514665
:103FF00007F037FB84F80EB0D8E717270926002C06
:10400000C4D0A088FDF70EFA8146807F00F003003F
:10401000012806D00021A08809F001FD050003D188
:1040200001E00121F7E7FFDFA878800701D5022032
:1040300000E00120207299F800002328B6D927213A
:104040004AE719270E26002CA0D0A088FDF7EAF930
:104050005FEA000900D1FFDFC4F808B0A4F80CB093
:1040600084F808B0A07A40F00300A07299F81F10FD
:1040700061F38200A07299F81F1001EA510161F307
:10408000C300A072687E00F0030001288ED1607A20
:1040900040F00400607299F81E0000F0030001284F
:1040A00014D0E97E607B61F300006073AA7E217BFF
:1040B00062F300012173EA7E520862F341006073EB
:1040C000A87E400860F3410121736FE7E87E217B01
:1040D00060F300012173AA7E607B62F300006073CD
:1040E000EA7E520862F341012173A97E490861F317
:1040F000410060735AE730B504468079012591B0DC
:10410000B5EB901F00D0FFDFFFF72CF84FF6FF70E4
:10411000099074488DF8015020300190201D0290C4
:10412000601C0B900AA968460BF0ABF800B1FFDFEA
:104130000B980188A4F801108078E07011B030BDB0
:1041400010B5684C30B10146102204F1200016F081
:104150007BFE012084F8300010BD10B50446FFF747
:1041600001F8604920461022BDE81040203116F0C9
:104170006BBE70B55B4C06004FF0000514D00DF01F
:104180000BFC08B110250DE00621304607F050FA6F
:10419000411C06D0206614F85C0F40F080002070AF
:1041A00000E00725284670BD14F85C0F20F0800061
:1041B000F5E72DE9F041804688B00D460027084616
:1041C0000DF035FCA8B94046FDF72CF9040003D0EA
:1041D0002078222815D104E043F2020008B0BDE89F
:1041E000F08145B9A07F010603D500F00300022845
:1041F00001D01020F2E7A07FC10601D4010702D54B
:104200000DB10820EAE7374991F85C10C90701D0E1
:104210001120E3E7E17FC90601D50D20DEE700F0BC
:104220000300022805D125B12846FEF7F1FE07005C
:10423000D4D1A07F00F00300012806D00021404621
:1042400009F0EDFB060002D00CE00121F7E7A07FAA
:1042500000F0030001280BD00021404609F0D6FBF6
:10426000060007D0A07F00F00300022804D009E078
:104270000121F2E70420B1E725B12A463146204664
:10428000FEF7EAFE07AB1A4669463046FFF71CF810
:10429000009800B9FFDF00990D20487006F5907076
:1042A000C1F82480486100200881A07F00F003004D
:1042B00001282BD0F5B302200871301D8861707879
:1042C00040090877B078C0F340004877287800F0BC
:1042D0000102887F62F301008877E27F62F3820047
:1042E000887701E05C020020E27F520862F3C3009D
:1042F0008877B27862F304108877A878C87701F1DC
:10430000210228462031FEF7C7FE22E00120087175
:10431000287800F00102087E62F3010008762A780E
:10432000520862F3820008762A78920862F3C3008A
:10433000087600E009E02A78D20862F304100876D3
:1043400024212046FDF7A6F80BE003200871052084
:10435000087625212046FDF79DF8A07F20F08000FB
:10436000A07701A900980AF08CFF022801D000B1C3
:10437000FFDF384632E72DE9FF4FF94A0D4699B085
:104380009A4607CA14AB002783E807001998FDF77F
:1043900049F8060006D03078262806D008201DB03F
:1043A000BDE8F08F43F20200F9E7B07F00F00309A7
:1043B000B9F1010F03D0B9F1020F07D008E03DB900
:1043C0001B98FEF725FE0028E9D101E01B9878BB79
:1043D000B07F00F00300012806D00021199809F0F1
:1043E0001EFB040003D101E00121F7E7FFDF852D6B
:1043F00025D007DCD5B1812D1BD0822D1BD0832D7C
:1044000008D11AE0862D1CD0882D1CD0892D1CD0F7
:104410008A2D1CD00F2020710F281AD001208DF872
:104420003400201D0E902079A8B158E10020F2E759
:104430000FE00120EFE70220EDE70320EBE7052086
:10444000E9E70620E7E70820E5E70920E3E70A2097
:10445000E1E70720A3E7B9F1010F17D0D4E919501C
:1044600080460220019001200090A87898F8021060
:10447000C0F3C000C1F3C00108405FEA000B5DD08B
:1044800050460DF089FA00286CD12DE0D4E9198549
:104490000120019002200090214630461B9AFEF731
:1044A000DBFD1B98007800F00101A87861F30100A2
:1044B000A870F17F61F38200A870F17F490861F371
:1044C000C300A870A17861F30410A8706078400957
:1044D0002870A078C0F3400068701B988078E8705E
:1044E000002068712871C0E7DAF80C000DF054FA6A
:1044F000C0BBDAF81C000DF04FFA98BBDAF80C00DC
:10450000A060DAF81C00E06098F80100A17800F0E3
:10451000010041EA4000A07098F80210C0B2C1F357
:104520000011891E0840A070002084F82000009926
:1045300006F1170002290BD001210AE098F80110BA
:10454000A07801F00101FD2242EA41010840E2E7C2
:10455000002104EB810188610199701C022902D0BD
:10456000012101E028E0002104EB81018861A878A5
:1045700000F00300012849D198F8020000F0030080
:10458000012843D1B9F1010F04D12A1D691D1B98DF
:10459000FEF782FD297998F8040001408DF82C106F
:1045A000687998F8052010408DF8300001432DD02F
:1045B00050460DF0F1F908B11020F0E60AF11000B4
:1045C00004F5D47104F17C020490B9F1020F3CD0DF
:1045D0000090CDE9012100210BAB5A462046FEF7A1
:1045E000D5FD0028E9D104F5D67104F19402B9F1A2
:1045F000010F30D004980090CDE9012100210CABCF
:104600005A462046FEF7C2FD0028D6D1A078800782
:1046100040D4A87898F80210C0F38000C1F380015C
:10462000084337D0297898F8000014AAB9F1010F8F
:1046300017D032F810204B00DA4012F0030718D0E0
:10464000012F1ED0022F12D11DE0CDF800A0CDE920
:1046500001210121C0E7CDF800A0CDE90121012110
:10466000CDE732F811204300DA4002F00307032FB0
:1046700007D0BBF1000F0DD0012906D0042904D0CA
:1046800008E00227F5E70127F3E7012801D0042815
:1046900000D10427F07F40F001006BF34100F07778
:1046A000A07881074FF003000CD5A071BBF1000F7B
:1046B00015D100BF8DF85C0017AA31461998FEF796
:1046C00034FD0CE00221022F18D0012F18D0042F46
:1046D00022D00020A071F07F20F00100F07725218A
:1046E0003046FCF7D7FE0DA904F590700AF0A9FD3D
:1046F00010B1022800D0FFDF002050E6A171D9E7F9
:10470000A1710D2104F1240016F037FC607840F00F
:10471000020060700420CDE70120A071DFE72DE9E1
:10472000F04387B0914688460446FCF77BFE0700BD
:1047300006D03878272806D0082007B0BDE8F083D7
:1047400043F20200F9E7B87F00F00300012809D026
:104750000021204609F063F9040006D104E00000BE
:104760001CB301000121F4E7FFDFA679012E08D078
:10477000B8F1000F0FD048460DF00EF9B8B1102077
:10478000DBE7B9F1000F25D1B8F1000F09D0B8F17E
:10479000010F1FD120E0022E05D0032E05D0FFDF30
:1047A00028E00C2526E0012524E0022522E0B8F1CE
:1047B000020F03D0B8F1010F0AD00BE0032E09D18C
:1047C00000251022494604F1210016F03DFB11E0BE
:1047D000022E01D00720B0E70025102104F12100AE
:1047E00016F0A9FB5FEA090004D0062106F020FFBD
:1047F000C4F821006078252140F00200607038463E
:10480000FCF748FE6078C10713D020F0010060700B
:1048100002208DF8000004F1210002908DF8045070
:104820006946FF300AF00DFD022804D018B1FFDF01
:1048300001E084F8205000207FE730B587B00D46B6
:104840000446FCF7EFFD88B1807F00F003000128EB
:104850000FD00021204609F0E2F804000ED02846CF
:104860000DF09AF838B1102007B030BD43F20200C5
:10487000FAE70121EEE76078400701D40820F3E76A
:10488000294604F141002022054616F0DDFA607841
:1048900040F01000607001070FD520F00800607034
:1048A00014208DF80000694604F5907001950AF017
:1048B000C8FC022801D000B1FFDF0020D4E770B5AA
:1048C00094B00D460646FCF7ADFD18B101782729D6
:1048D00044D103E043F2020014B070BD807F00F0C9
:1048E0000300012806D00021304609F098F80400A2
:1048F00003D101E00121F7E7FFDFA07902282DD1E4
:10490000A078C0072AD0002302220321304603F0FA
:1049100051FC28B30D208DF80D0007A80222811F3D
:10492000ADF8142006ABCDE900310C9604F5907477
:104930000290089400230321304603F0B8FC00B134
:10494000FFDF04208DF810008DF824500DA903A876
:104950000AF097FC00B1FFDF0020BDE70820BBE7AD
:104960001120B9E770B5064686B014460D460846D4
:104970000DF012F818B920460DF032F810B11020E1
:1049800006B070BDA6F57F40FF380DD03046FCF76D
:1049900049FD30B14378811C22461846FCF7E8FEF9
:1049A00007E043F20200EBE72046FDF7F2FC0028A7
:1049B000E6D11021E01D0CF0A1FCE21D294668465D
:1049C000FEF79CFC102204F11700019916F03CFA46
:1049D0000020D5E72DE9F041044690B01546884601
:1049E000002708460DF023F818B928460DF01FF8E7
:1049F00018B1102010B0BDE8F0812046FCF712FD80
:104A0000060003D03078272818D102E043F20200D4
:104A1000F0E7B07F00F00300012806D00021204617
:104A200008F0FDFF040003D101E00121F7E7FFDFFB
:104A30006078400702D5A078800701D40820D9E724
:104A4000B07F00F00300012818D0D4E919014078A4
:104A500000B1B5B1487810B1B8F1000F11D0C5B1AF
:104A6000EA1D02A8E168FEF749FC102205F11700D3
:104A7000039916F0BDF930B104270AE0D4E9191002
:104A8000E5E70720B6E71022E91D04F1310016F032
:104A9000DBF9B8F1000F06D0102208F1070104F18C
:104AA000210016F0D1F96078252140F002006070F5
:104AB0003046FCF7EFFC6078C10715D020F001000C
:104AC000607002208DF8200004F121000A9010305F
:104AD0000B908DF8247008A9EF300AF0B2FB022881
:104AE00004D018B1FFDF01E084F82070002081E7D6
:104AF000F8B515460E460746FCF794FC040004D0B2
:104B00002078222804D00820F8BD43F20200F8BD26
:104B1000A07F00F00300022802D043F20500F8BD98
:104B200030460CF039FF18B928460CF035FF08B1B3
:104B30001020F8BD00953288B31C21463846FEF798
:104B4000F5FB112814D00028F3D1297C4A08E17F15
:104B500062F30001E1772A7C62F34101E177297C6D
:104B6000890884F82010A17F21F08001A177F8BD89
:104B7000A17F0907FBD4D6F80200C4F83600D6F8A6
:104B80000600C4F83A003088A0861022294604F1B5
:104B9000230016F059F9287C4108E07F61F3820078
:104BA000E077297C61F3C300E077287C800884F8F3
:104BB0002100A07F40F00800A0770020D3E770B567
:104BC00094B00D4606460BB1072085E6FCF72AFC9B
:104BD000040007D02078222802D3A07F400604D406
:104BE000082079E643F2020076E6C5B12D208DF863
:104BF0000000ADF802601022294601A816F024F941
:104C0000287C4108E07F61F30000E077297C61F3B4
:104C10004100E077287C800884F8200004E02E2002
:104C20008DF80000ADF8026009A9684606F0B3FCF3
:104C3000A17F21F04001A1774EE670B50D46FCF74B
:104C4000F1FB040005D028460CF0CAFE20B110206C
:104C500070BD43F2020070BD29462046FEF705FBF9
:104C6000002070BD05E000BF10F8012B0AB1002044
:104C70007047491E89B2F7D20120704770B50D46C2
:104C8000007804991446042803D0052832D0FFDFA9
:104C900070BDA88B0E2200EB400002EB4000188094
:104CA00033200880002CF3D0A88BA081002613E0CD
:104CB000A87F012814D006EBC60005EB400106EBE7
:104CC000460204EB4202088CD081102022311032BF
:104CD0000AF078FB761CB6B2A089B042E8D870BD65
:104CE00005EB860106EB460204EB4202088CD081FC
:104CF0000220EBE7A88B102200EBC00002EB400083
:104D0000188034200880A87F012808D0022806D007
:104D1000FFDF002CE3D0A88BA081002613E0A07356
:104D2000F7E7A87F012812D006EBC60005EB40018B
:104D300004EB40000A8C028210221230223116F05D
:104D400083F8761CB6B2A089B042EAD870BD05EBF4
:104D5000860106EBC602088C04EB42022231108267
:104D6000022012320AF02EFBEBE72DE9F041057824
:104D70000E20DDF818C001F1200402F10E074FF0FB
:104D80000008022D06D0032D2DD0062D6AD0FFDF9E
:104D9000BDE8F081CD8B05EB850600EB4600188061
:104DA0003120ACF80000002AF2D0087F9581801FE6
:104DB000C6B214E061682088388031F8020BF880B0
:104DC00031F8020B3881BA1C30460AF0FBFA06B102
:104DD00018B187F80480A7F8028008340A376D1EDE
:104DE000ADB2E7D2D4E7CD8B05EB850600EB4600EC
:104DF00018803220ACF80000002AC9D0087F9581C5
:104E0000401FC6B22AE06168228811F8010BFA80BF
:104E10003A79430860F3000263F34102830863F3C5
:104E20008202C30863F3C302030963F30412430954
:104E300063F34512830963F386123A71C0097871EE
:104E400031F8020B38813A4630460AF0BBFA18B105
:104E500087F80280A7F8008008340A376D1EADB2CB
:104E6000D1D295E7087FCD8B801E86B206F108006F
:104E70006843103018803520ACF80000002A87D035
:104E8000958102F11007D68107EBC5080BE0208859
:104E90003880C7F8048032464046616815F0D4FF78
:104EA0000834B04408376D1EADB2F0D270E72DE97A
:104EB000F0471D46089E0C4681462AB1607E00F5EB
:104EC0008070D080E08B108199F800000E274FF0A1
:104ED00000084FF0100A0C287ED2DFE800F096069A
:104EE000152129313F4E636B6B6B207F914608285B
:104EF00002D0032800D0FFDF2F8030200BE000BF5E
:104F0000A9F80C80BDE8F087207F9146042800D0E6
:104F1000FFDF2F8031203080B9F1000FF0D1F1E7B1
:104F2000207F9146042800D0FFDF2F803220F2E757
:104F3000207F9146022800D0FFDF2F803320EAE750
:104F4000207F1746022800D0FFDF3420A5F800A0FC
:104F50003080002FD6D0A7F80C80D3E7207F1746EB
:104F6000042800D0FFDF3520A5F800A03080002FF6
:104F7000C8D04046A7F80C8012E0207F17460528CD
:104F800002D0062800D0FFDF122028803620308093
:104F9000002FB7D0E08BB881A7F81080B9F80200D5
:104FA000F881AFE7207F9146072800D0FFDF2F80F0
:104FB0003720B0E74FF0140018804FF0380017008A
:104FC00030809FD0E08BB881A7F8128099F800005C
:104FD000092807D00A2800E017E009D00B280DD0D7
:104FE000FFDF8FE7207F0C2800D0FFDF01200AE0E1
:104FF000207F0D2800D0FFDF042004E0207F0E2852
:1050000000D0FFDF0520B8737CE7FFDF7AE770B5DB
:105010000C460546FCF706FA20B10078222804D297
:10502000082070BD43F2020070BD0521284608F03B
:10503000F6FC206008B1002070BD032070BDFFB5F4
:1050400085B007461720ADF80C00089814460D46A9
:10505000022628B908A93846FFF7D9FF00283ED113
:105060005DB10023BDF80C203146384603F0A2F8AC
:10507000B8B308980078A0BB05E02078092822D0B2
:105080000F282FD0FFDF002004A9CDE90010034630
:105090000290BDF80C203146384603F008F900288C
:1050A0001DD1089803A9801DC4E901072046049A70
:1050B00004F007FB60B3072828D2DFE800F01E1CCD
:1050C00027272520220007260023BDF80C20314683
:1050D000384603F06FF80028D5D143F2040009B038
:1050E000F0BD08E00023BDF80C203146384603F03F
:1050F00061F80028C7D11120F1E70020EFE7082070
:10510000EDE743F20300EAE70720E8E70320E6E7DC
:1051100004980090BDF80C3004223146384603F064
:10512000A4F90028DBD1002DD9D008990D70D6E75D
:1051300010B588B01C46AAB104238DF8003013883E
:10514000ADF80C305288ADF80E208A788DF8122018
:105150000988ADF8101000236A462146FFF76FFF5B
:1051600008B010BD1020FBE72DE9F041074600789C
:105170000C46122839D2DFE800F0383434141036E7
:1051800009090909090909090909090904B9FFDF18
:10519000607840F00800607028E0002CF8D1FFDF54
:1051A000F6E7B888052186B2304608F038FC054697
:1051B00004B1FFDF05B9FFDF3146A81D04F07AFA1C
:1051C00002F0EEFA040007D0607840F0080060704A
:1051D000668002F0C3FA0AE013213046FDF702FBB5
:1051E00016E0FFDF02E0FFDF00E0FFDF84B1607860
:1051F00000070DD52078582220F00F00C01C20F0A9
:10520000F00090302070394604F1180015F061FE6E
:105210000020BDE500200870881D04F048BA0A4649
:105220000146901D04F04CBA70B50546052108F002
:10523000F6FB040000D1FFDF2946A01DBDE8704049
:1052400004F038BA2DE9FE4F4FF00009ADF8089090
:10525000ADF8049047880C4605469346052138462C
:1052600008F0DDFB060000D1FFDF24B1A780A4F821
:105270000690A4F80890297E04F112003827C91E70
:105280004FF001084FF0360A00900F2970D2DFE886
:1052900001F0F9FA6F6108AD6A70812CB6C9E59525
:1052A00095003078012800D0FFDFA88B0E2101EB9C
:1052B000C001ADF804103021ADF80810002C13D057
:1052C000A08100200DE004EBC00132790A747288DD
:1052D000CA8105EB8002401CD38B4B82128C8A82E0
:1052E00080B2A1898142EED8E8E03078012800D070
:1052F000FFDFE88B0E2101EBC001ADF80410302177
:10530000ADF80810297F091FC9B20091002CEBD01D
:10531000A08100271AE000BF05EBC70A04EBC7080D
:1053200008F10E02DAF8241000980AF04BF818B1D0
:1053300088F81090A8F80E90BAF82010A8F812106B
:10534000BAF822107F1CA8F81410BFB2A089B84286
:10535000E2D8B3E002A8009001AB224629463046CD
:10536000FFF78CFCAAE03078072806D0FFDF04E0C6
:10537000A3E03078072800D0FFDFE88BADF808A065
:105380001230ADF80400002C38D0A98BA1817188AF
:10539000E18123E03078082800D0FFDFA88B00F1FE
:1053A0000E01ADF804103721ADF80810002C25D0FF
:1053B000A081AA8B04F10E00296A4CE0E88B123020
:1053C00080B23921ADF80400ADF80810F4B3A98B10
:1053D000A181287E102807D00221A173E98B2182A8
:1053E000EA8B296A009836E00121F6E702A80090CE
:1053F00001AB224629463046FFF7B7FC5EE0307825
:10540000092800D0FFDF1420ADF80400ADF80870C3
:105410001CB3A98BA181A4F81290A4F8109084F871
:105420000E804BE030780A2800D0FFDF288CADF8E2
:1054300008701430ADF804007CB10421A173A98B6D
:10544000A181E98B2182298C618200E032E02A8CE3
:1054500004F11400696A15F0F7FC2FE030780B288E
:1054600000D0FFDF1420ADF80400ADF8087004B3DD
:105470000521A173A4F80C90A4F81090A4F8129040
:105480001CE000E008E002A8009001AB224629469B
:105490003046FFF70CFD11E00D203A21ADF8040075
:1054A000ADF8081034B1A4F80680A4F8089084F888
:1054B0000C9003E0ABF8000014E0FFDFBDF804003F
:1054C000ABF8000074B1BDF808002080BDF80400FE
:1054D0006080287E032805D0102803D0112801D031
:1054E00086F800900020BDE8FE8F2DE9F84356882D
:1054F0000F46804615460521304608F090FA040014
:1055000000D1FFDFA41D33462A46394640460094A9
:1055100004F054FABDE8F8832DE9F0438DB00D4650
:105520001446814607A9FFF772FD002814D14FF6F3
:10553000FF7601274FF420588CB103208DF800002E
:105540001020ADF8140008A802460690204605A9D0
:1055500009F057FF78B107200DB0BDE8F0830820AF
:10556000ADF80C508DF812708DF80000ADF80E609B
:10557000ADF810800CE00798A17801712188418076
:105580008DF81270ADF80C50ADF81080ADF80E60CB
:105590006A4601214846079BFFF751FDDCE708B545
:1055A00001228DF8022042F60202ADF800200A46E0
:1055B00002236946FFF7BCFD08BD08B501228DF83E
:1055C000022042F60302ADF800200A460323694692
:1055D000FFF7AEFD08BD00B587B079B102228DF8A6
:1055E00000200A88ADF80C204988ADF80E10002381
:1055F0006A460421FFF723FD07B000BD1020FBE73A
:1056000009B1062394E50720704770B588B00D46B0
:105610001446064607A9FFF7FAFC00280ED17CB114
:105620000620ADF80C508DF80000ADF80E40079B39
:105630006A4607215C803046FFF701FD08B070BD67
:1056400005208DF80000ADF80C50F0E700B587B0EC
:1056500059B107238DF80030ADF80C2004910023D8
:105660006A460821FFF7EBFCC6E71020C4E770B5D7
:10567000002488B0172391B10A78062A20D2DFE8E7
:1056800002F01F04041503171523DB1E9DB2CB88FF
:105690000BB18E681EB1AB4203D90C20CEE71020AF
:1056A000CCE7042A04D08B8853B901E00620C5E773
:1056B000012A13D0022A05D0042A1CD0052A2AD098
:1056C0000720BBE709228DF800204A88ADF80C209E
:1056D000CA88ADF80E208968049123E00C228DF869
:1056E00000204A88ADF80C20CA88ADF80E208968E1
:1056F0000924049116E00D228DF800204A88ADF8A7
:105700000C208A88ADF80E20CA88ADF81020896870
:105710000A24059106E00E228DF8002049788DF8C4
:105720000C100B2400236A462146FFF788FC85E70E
:1057300000B587B00F228DF80020ADF80C100023C3
:105740006A461946FFF77BFC56E700B587B071B192
:1057500002228DF800200A88ADF80C204988ADF8A7
:105760000E1000236A460521FFF769FC44E710206C
:1057700042E7000018B1817801293CD101E01020F6
:105780007047018842F60213C81A4FF4807299429A
:1057900033D01CDC42F60103A1EB030099422CD06C
:1057A0000CDCF9B1B1F5C05F27D06FF4C050081818
:1057B00023D0A0F57060FF381DD11EE001281CD059
:1057C00002281AD0FF2818D0904214D115E0904238
:1057D00013D008DC012810D002280ED0FE280CD0EF
:1057E000FF2808D109E0A0F58070013805D0012814
:1057F00003D0022801D0002070470F2070470B28EB
:1058000026D008DC1BD2DFE800F01C2025251A2555
:10581000292325271E0011281CD008DC0C2817D0AE
:105820000D281DD00F2815D0102808D110E082288F
:1058300009D0842810D0852810D0872812D00320C2
:105840007047002070470520704743F203007047FF
:10585000072070470F2070470420704706207047CC
:105860000C2070474FF45050704707280DD2DFE8E6
:1058700000F00406040C0C080A00002070471120F8
:105880007047072070470820704703207047007852
:1058900010F00F0204D0012A05D0022A0CD110E02A
:1058A000000909D10AE00009012807D0022805D023
:1058B000032803D0042801D0072070470870002077
:1058C00070470620704705282AD2DFE800F003075A
:1058D0000F171F00087820F0FF001EE0087820F066
:1058E0000F00401C20F0F000103016E0087820F087
:1058F0000F00401C20F0F00020300EE0087820F06F
:105900000F00401C20F0F000303006E0087820F056
:105910000F00401C20F0F00040300870002070475D
:105920000720704738B50C46050041D06946FFF79F
:10593000AEFF002819D19DF80010607861F30200D5
:1059400060706946681CFFF7A2FF00280DD19DF822
:105950000010607861F3C5006070A978C1F341015F
:10596000012903D0022905D0072038BD217821F074
:10597000200102E0217841F020012170410704D08C
:10598000A978C90861F386106070607810F0380F4C
:1059900007D0A978090961F3C710607010F0380FBB
:1059A00002D16078400603D5207840F04000207096
:1059B000002038BD70B50446002008801546606898
:1059C000FFF7B0FF002816D12089A189884211D89D
:1059D00060688078C0070AD0B1F5007F0AD840F22D
:1059E0000120B1FBF0F200FB1210288007E0B1F5B6
:1059F000FF7F01D90C2070BD01F201212980002018
:105A000070BD10B50478137864F300031370047844
:105A1000640864F3410313700478A40864F38203F8
:105A200013700478E40864F3C30313700478240942
:105A300064F3041313700478640964F3451313705A
:105A40000078800960F38613137031B10878C107BC
:105A500001D1800701D5012000E0002060F3C713C9
:105A6000137010BD4278530702D002F0070306E01E
:105A700012F0380F02D0C2F3C20300E001234A78CB
:105A800063F302024A70407810F0380F02D0C0F37E
:105A9000C20005E0430702D000F0070000E001204B
:105AA00060F3C5024A7070472DE9F04792B00D00CF
:105AB000804613D0B8F1000F14D01221284615F0FB
:105AC0003AFA03AAFF21012005F0C3FB0024264671
:105AD00037464FF420596FF4205A6DE0102012B071
:105AE000BDE8F0870720FAE79DF8160001280AD1E3
:105AF000BDF8140048450BD010EB0A000AD001286D
:105B00000CD002280CD0042C0ED0052C0FD10DE0A7
:105B1000012400E00224BDF8126008E0032406E03E
:105B20000424BDF8127002E0052400E00624BDF84C
:105B30001210414540D12C7486B34FF007090DF186
:105B400034080EAACDF80090CDE9012810230022D8
:105B5000FF21304605F019FCF0B9BDF834002A46A3
:105B6000C0B20EA909F02EFCB0B9AE81B7B108AE33
:105B7000CDF80090CDE9016813230022FF213846BB
:105B800005F003FC40B9BDF83400F11CC01EC0B2E2
:105B90002A1D09F017FC10B10320A0E70AE0BDF8A8
:105BA0002100E881062C05D19DF81600A872BDF8E9
:105BB00014002881002092E703A805F052FB00287A
:105BC00092D0FFF71CFE8AE72DE9F0438BB00E461A
:105BD000DDE9129805461C461746142103A815F066
:105BE000CCF901208DF810008DF80C008DF8118093
:105BF000ADF8147064B1A178C90709D08DF816000A
:105C0000E088ADF81A00A088ADF81800A0680790E9
:105C100001F0C6FD040025D06580002009A9CDE96A
:105C200000101722034601460290ADF820202846B6
:105C300002F03DFB002812D108368DE8700008AA5A
:105C4000494603A8099B04F032FE06466078000727
:105C500001D501F083FD5EB13046FFF706FE0BB0C3
:105C6000BDE8F08313212846FCF7BCFD0320F6E7CE
:105C700009980090BDF8203004220021284602F047
:105C8000F4FBECE770B506468AB000200D4605909F
:105C900007240490069003A900940790CDE9010120
:105CA000024610232946304605F06FFB68B904A967
:105CB000009108A8CDE90140BDF80C30002229462A
:105CC000304605F071F9002801D0FFF798FD0AB0C1
:105CD00070BD05F02CB82DE9FC470546002700787B
:105CE0000C46B846B9460C2873D2DFE800F0B80677
:105CF0000D2FCE5F5F7F96B49AA504B1FFDF288990
:105D000080B201F0BFFEABE0A888042180B28146DA
:105D100007F085FE064604B1FFDF06B9FFDF4946FE
:105D200006F1080004F02CFA01F03AFD040008D056
:105D3000607840F008006070A4F8029001F00EFD59
:105D40008FE013214846FCF74DFD9EE004B9FFDFCC
:105D50006088042107F063FE060000D1FFDFA6F88B
:105D60000090002029791EE005EBC0029268D3B2B2
:105D70005FEA037C07D5DB0605D505EBC10030F8EB
:105D8000020C308007E0120A52060AD5307105EB8A
:105D9000C000C08870806078022740F00800607002
:105DA0005EE0401CC0B28142DED859E0E888ADF820
:105DB000000004B9FFDF9DF80100000604D5287833
:105DC000062807D005282AD0607840F008006070C7
:105DD00046E044E06088042107F021FE060000D17F
:105DE000FFDF86F80490A888708018E004B9FFDF10
:105DF0006088042107F013FE060000D1FFDF06F1E2
:105E0000080004F0E8FF90F0010F02D1E8790006E5
:105E100026D560880227F080D6E704B9FFDF022785
:105E2000D2E704B9FFDF022761880122204601F092
:105E30006DFE4FF00108C7E7A88986B204B1FFDF05
:105E4000686800902889ADF8040001226946304650
:105E500001F077FE04E0002CB6D1FFDFB4E7FFDFEE
:105E60009CB16078000710D5B8F1000F0DD12078F3
:105E7000582220F00F00001D20F0F000803020702C
:105E8000294604F1180015F024F83846BDE8FC87CF
:105E90003EB50C0008D06B4601AA002105F0E2FADD
:105EA00020B1FFF7ACFC3EBD10203EBD002020809D
:105EB000A0709DF8050002A900F00700FFF703FDA0
:105EC00050B99DF8080020709DF8050002A9C0F3A4
:105ED000C200FFF7F8FC08B103203EBD9DF80800A2
:105EE00060709DF80500C109A07861F30410A070EE
:105EF0009DF80510890961F3C300A0709DF8041096
:105F0000890601D5022100E0012161F342009DF8DC
:105F1000001061F30000A07000203EBD70B5144673
:105F200006460D4651EA040005D075B108460BF04F
:105F300075FD78B901E0072070BD2946304605F0AF
:105F4000ECFA10B1BDE8704059E454B120460BF0B2
:105F500065FD08B1102070BD21463046BDE8704097
:105F600096E7002070BD2DE9FE4F05460C46007EE9
:105F70000A31009104F108010027029190460C318A
:105F8000821E3E46BB464FF0010A0191082A7CD290
:105F9000DFE802F0F7047B32327EBCF86888042127
:105FA00007F03DFD5FEA000900D1FFDFB9F800000E
:105FB00010B152270726ECE051271026002C7CD088
:105FC0006888A08084F806A099F80400002205EBF8
:105FD000C0000099C08BFFF7A1FF00286ED199F88F
:105FE000040005EBC000C08B208199F8040005EB8C
:105FF000C000408CE081E6E0B5F82290062822D16E
:10600000E87F00061FD5512709F1140086B2002C45
:10601000D5D0A88B00220099FFF780FF002873D10C
:106020006888A0800220A071A88B208184F80EA02F
:10603000288C2082A4F812904A46696ADDF8040090
:1060400014F002FFBFE0502709F1120086B2002CC5
:1060500033D0A88B00220299FFF760FF002853D1AC
:106060006888A080A88BE080287E06280ED00220B9
:106070002073288CE081E87F4A46C0096073A4F849
:10608000109004F11200696ADAE79BE00120EFE763
:106090006888042107F0C3FCB5F822A05FEA000974
:1060A00000D1FFDF09F1080004F095FE90F0010F28
:1060B00002D1E87F000626D501E076E024E00AF16F
:1060C0001400512786B2002C70D06888A080A88B5D
:1060D00000220099FFF722FF002815D10220A071AD
:1060E000A88B20810420A073288C2082A4F812A001
:1060F0005246696A019814F0A7FE89F804B0A98B8A
:10610000A9F802105FE00320BDE8FE8F6888FBF766
:1061100089F982466888042107F081FC8146BAF13A
:10612000000F00D1FFDFB9F1000F00D1FFDFB9F898
:106130000600A0F57F41FF3902D05127142601E067
:10614000502712268CB36888A080502F06D00220DA
:10615000A071287F029901F016F934E0287FA11D73
:1061600001F011F99AF82210CDE9001BB9F80220CC
:10617000688800234946FFF727FD0028C4D122E0A4
:1061800000E016E0FE49A88BC988814205D154275A
:10619000062654B16888A08015E05327082624B14C
:1061A0006888A080A88BE0800DE0FFE7A8F8006079
:1061B0000EE055270726002CF8D0A88BA08084F885
:1061C00006B000E0FFDFA8F800600CB12780668011
:1061D000002099E7EA4900200870704730B587B081
:1061E0000C4607F0E5FB0546FF2800D1FFDF002045
:1061F0002080207160804FF6FF70E080294604F116
:10620000080003F0AFFF02AA2946012005F021F89B
:106210001AE000BF9DF80B00000715D5BDF80E0071
:106220002946FFF72FFD9DF80B00FF2340F01000DB
:106230008DF80B00BDF80B00ADF80400BDF80E00A2
:106240002946019A05F037F902A805F00AF8002856
:10625000E0D007B030BD0A46014602F1080003F065
:1062600095BF70B50546042107F0D9FB040000D1A5
:10627000FFDF294604F10800BDE8704003F080BF4D
:106280002DE9F0418AB00D468046FBF7CBF80600B9
:1062900006D03078222806D208200AB0BDE8F08166
:1062A00043F20200F9E70421404607F0B8FB074635
:1062B0000DB1A88878B101208DF8140002208DF866
:1062C000180000248DF819403DB1A888ADF82000D1
:1062D0002868079004E00920DFE7ADF82040079424
:1062E00001F05EFA050026D0A5F8028004A8CDE9E9
:1062F000000417220023ADF80C20194640460294F2
:1063000001F0D5FF0028C8D107F108000095CDE9BC
:10631000018096F8221003AA05A8049B04F0C7FA8E
:1063200004466878000701D501F018FA4CB1204600
:10633000FFF79BFAB1E713214046FCF753FA03201D
:10634000ABE704980090BDF80C30042200214046D1
:1063500002F08BF84FF6FF71F9809EE72DE9FF5FA1
:1063600083460E9E9846914677888A463846FBF7C4
:1063700059F805460421384607F051FB044605B993
:10638000FFDF04B9FFDF0834CDE90274CDE90086F0
:1063900095F822104B465246584603F027FF04B0AA
:1063A000BDE8F09F2DE9F04F99B004464FF000088A
:1063B0007348ADF84C80ADF82480ADF84880A0F863
:1063C0000480ADF80C80ADF81080ADF81880ADF801
:1063D0001480007816460D464746012809D0022849
:1063E00007D0032805D0042803D0082019B0BDE841
:1063F000F08F20460BF0D0FAD0BB28460BF0CCFA39
:10640000B0BB60680BF013FB90BB606848B160895B
:106410002189884202D8B1F5007F01D90C20E5E737
:10642000804608AA04A92846FFF7C4FA0028DDD14F
:1064300068688078C0F34100022808D19DF81100F7
:1064400010F0380F03D028690BF0E8FA80B903A9DF
:106450002069FFF767FA0028C8D1206950B1607839
:1064600080079DF80D0000F0380002D5E8B301E088
:1064700011E0D0BB9DF80C0080060ED59DF80D00F4
:1064800010F0380F03D060680BF0C8FA18B96068D4
:106490000BF0CDFA08B11020A8E705A96069FFF755
:1064A00041FA0028A2D1606940B19DF8150000F0C2
:1064B000070101293BD110F0380F38D006A9A06997
:1064C000FFF730FA002891D19DF8140080062ED4F1
:1064D0009DF8180080062AD4A06950B19DF81900D3
:1064E00000F00701012922D100E020E010F0380F70
:1064F0001DD0E06818B10078C8B11C2817D20CAACA
:10650000611C2046FFF77DFA0120B94660F30F2792
:10651000BA4607468DF8460042F60300ADF844003F
:106520000DF1330215A9286808F06BFF08B10720A8
:106530005CE79DF8540014A9CDF80090C01CCDE98B
:10654000019100F0FF0B00230BF20122514611A82C
:1065500004F0C7FDE8BBBDF850000B9008492A893C
:106560002869091D0092CDE901016B89BDF8202041
:106570002868049904F0B5FD01007CD1207801E081
:1065800058030020C1064FF0020A01D480062BD523
:10659000ADF81C90606950B905A904A8FFF762FA2C
:1065A0009DF8150020F00700401C8DF815009DF89F
:1065B00014008DF8467040F0C8008DF8140042F6C3
:1065C0000210ADF8440009A907AA0023CDF800A0E5
:1065D00000E01CE0CDE9012140F2032211A8059959
:1065E00004F07FFD010046D1F8484D464FF0070901
:1065F0008088ADF831000CA9CDE900195B46002276
:106600000295FF21BDF8500004F0CEFC10B1FFF759
:10661000F6F8EBE69DF83000000625D52946012066
:1066200060F30F218DF846704FF42450ADF844000C
:10663000ADF8285062789DF82800002362F300002E
:106640008DF828006278520862F341008DF8280026
:106650000AAACDF800A0CDE9012540F2032211A835
:1066600004F03FFD010006D1606850B3206970B9A5
:1066700003A904A800E07DE0FFF7F4F96078800743
:1066800005D49DF80D0020F038008DF80D008DF830
:10669000467042F60110ADF84400208940F2012115
:1066A000B0FBF1F201FB1202606812ABCDF8008082
:1066B000CDE90103002311A8039904F012FD0100A4
:1066C00058D12078C00729D0ADF81C50A06950B926
:1066D00006A904A8FFF7C6F99DF8190020F00700E5
:1066E000401C8DF819009DF818008DF8467040F098
:1066F00040008DF8180042F60310ADF8440013A9CD
:1067000007AACDF800A0CDE90121002340F2032221
:1067100011A8069904F0E5FC01002BD1E06868B3EC
:106720002946012060F30F218DF8467042F60410CF
:10673000ADF84400E068002302788DF858204078D6
:106740008DF85900E06816AA4088ADF85A00E06854
:1067500000798DF85C00E068C088ADF85D00CDF888
:106760000090CDE901254FF4027211A804F0B9FCA4
:10677000010003D00B9800F019FE37E6934803217F
:10678000017056B180883080BDF848007080BDF837
:106790002400B080BDF84C00F080002026E670B5E3
:1067A00001258AB016460B46012802D0022816D1D0
:1067B00004E08DF80E504FF4205003E08DF80E5099
:1067C00042F60100ADF80C0063B10024601C60F3D8
:1067D0000F2404AA08A9184608F013FE20B10720C8
:1067E0000AB070BD1020FBE704A99DF8202077486F
:1067F000CDE90021801C02900023214603A802F26B
:10680000012204F06EFC10B1FEF7F9FFE8E76F48D3
:106810000EB14188318005700020E1E770B594B079
:10682000044601268DF83E6041F60100ADF83C00BB
:1068300012AA0FA93046FFF7B2FF002848D12078EE
:10684000624CC0074FF0000544D01C2102A814F090
:1068500094FB9DF808008DF83E6040F020008DF814
:10686000080042F60520ADF83C000E959DF83A0070
:10687000119520F00600801C8DF83A009DF8380034
:106880006A4620F0FF008DF838009DF8390009A90C
:1068900020F0FF008DF839000420ADF82C00ADF891
:1068A00030000EA80A9011A80D900FA80990ADF81D
:1068B0002E5002A8FFF776FD002809D1BDF8000090
:1068C000E080BDF804002081401C6081257000201C
:1068D00014B070BDE5802581BDF84800F4E72DE9CE
:1068E000F74F8B46394900269EB00A78012A04D01A
:1068F000022A02D0082021B079E54A88824201D0DC
:106900000620F8E789465A4501D10720F3E701211F
:106910004FF000088DF86610ADF8401042464FF673
:10692000FF71531C63F30F220492ADF84210ADF8CF
:106930004A10FF2042F6020A8DF86A801AAA8DF8E2
:106940004800ADF864A0ADF868801192CDF84C8095
:1069500010A804F0ADFC0024254627460BAA072109
:1069600010A804F0A8FC78B1822857D184B37DB375
:10697000ADF85C409DF85600ADF85E508DF80C8087
:1069800017AC01285ED065E09DF832000FB30128F6
:1069900053D1BDF8301051451DD116AA07A90720C3
:1069A0008DE80700BDF82E0010230022FF2104F01F
:1069B000ECFC98BBBDF85800042801D0062847D14C
:1069C000BDF81C10594538D10F2094E7580300201A
:1069D00036E0012831D1BDF83000B0F5205F03D09A
:1069E00042F60101884228D1B9F80210BDF82E0004
:1069F000814201D1012700E0002704B17DB1584553
:106A00001BD116AB07AA07218DE80E000446102300
:106A10000022FF2104F0B9FC00B902E02DE0354668
:106A20000BE0BDF85800022801D0102810D1C0B2E8
:106A300015AA07A908F0C6FC50B9BDF82E608DE76D
:106A4000052058E703A915A8221D08F0DAFC08B1B3
:106A5000032050E79DF80C000023001DC2B22098CF
:106A60008DF80C200092CDE9014019A8049904F09A
:106A700038FB10B9022289F80020FEF7C0FE3AE781
:106A800010B50B46401E86B084B203AA00211846FA
:106A9000FEF7B7FF04AA072103A88DE8070001232A
:106AA0000022FF21204604F07FFA0446BDF81000C2
:106AB000012800D0FFDF2046FEF7A1FE06B010BD82
:106AC000F0B5FC4F044687B038780E46032804D052
:106AD000042802D0082007B0F0BD04AA03A920466C
:106AE000FEF768FF0500F6D160688078C0F34100CA
:106AF00002280AD19DF80D0010F0380F05D020694A
:106B00000AF08CFF08B11020E5E7208905AA216969
:106B10008DE807006389BDF810202068039904F010
:106B2000E0FA10B1FEF76BFED5E716B1BDF8140020
:106B30003080042038702846CDE738B50C00054673
:106B400009D000236A46FF2104F08CFC28B100BF65
:106B5000FEF755FE38BD102038BD69462046FEF7C9
:106B6000E1FE0028F8D1A078FF2100F001032846BB
:106B7000009A04F0A0FCEBE77FB5144603AA0725B2
:106B80000292CDE900350A462388FF2104F00CFA71
:106B9000BDF80C102180FEF732FE04B070BD2DE967
:106BA000F04192B04FF000050C000746ADF81050D0
:106BB00019D0E06828B1A068A8B10188ADF810101C
:106BC00005803846FAF72EFC88B1007822286AD36F
:106BD000384606F0EDFE80460421384606F01FFFD9
:106BE000060008D106E0102012B0BDE8F08143F2A3
:106BF0000200F9E7FFDFA078012803D0022801D0C6
:106C00000720F1E7208838B1401C80B206AA41462F
:106C100004F01FFB38BB02E043F20300E4E706A8E0
:106C200004F01FFB9DF822204FF45051012A09D196
:106C3000BDF82020A2F52453023B03D1822801D0C5
:106C400088B901E00846CFE7E06898B1072204A9B7
:106C5000CDE900020291A2882088BDF81030FF2102
:106C600004F0A2F910B1FEF7CAFDBDE7A168BDF8B6
:106C7000100008809DF81B00C00602D543F20140B9
:106C8000B2E70A9818B1BDF82400022801D0032009
:106C9000AAE717220A98ADF80C20A17800780129FC
:106CA00003D0800710D408209EE7C007FBD0002344
:106CB0000721384601F07EFA18B14FF0070802208C
:106CC00005E043F204008FE74FF0010803208DF840
:106CD00030002088ADF834000BA8CDE90005002372
:106CE0000295BDF80C204146384601F0E0FA002834
:106CF00087D1CDE900570836029603AA07210CA8D0
:106D00000B9B03F0D4FD10B1FEF7AFFD6CE70B98C1
:106D10000090BDF80C3004224146384601F0A5FB36
:106D200062E770B5064615460C460846FEF722FD9A
:106D3000002805D12A4621463046BDE870402EE5A0
:106D400070BDCCE570B51E4614460D0009D044B1A7
:106D5000616831B138B157494988814203D0072071
:106D600070BD102070BD2068FEF704FD0028F9D129
:106D7000324621462846BDE87040FFF713BB70B588
:106D800015460C0006D038B14A498988814203D0A3
:106D9000072070BD102070BD2068FEF7EBFC0028B6
:106DA000F9D129462046BDE8704089E670B5054610
:106DB00086B00E46144610460AF012FEF0BB60681C
:106DC0000AF035FED0BBA5F57F40FF3803D028463A
:106DD000FAF728FBA0B1284606F0EAFD0546304642
:106DE0006946FEF761FE00280CD19DF810100F20B7
:106DF000082936D2DFE801F008060606060A0A0866
:106E000043F2020006B070BD0320FBE79DF80210BC
:106E1000012908D1BDF80010B1F5C05FF2D06FF4C0
:106E2000C052D142EED09DF80610012905D1BDF81F
:106E30000410A1F528510529E4D900E022E09DF8CD
:106E40000A1001290ED1BDF80810B1F5245FD9D080
:106E5000A1F524510239D5D00129D3D0022901D17D
:106E6000D0E7FFDF606878B9002305AA29463046DD
:106E700004F0F8FA10B1FEF7C2FCC3E79DF8140065
:106E8000800601D41020BDE7618822463046636841
:106E9000FFF772FEB6E72DE9F043074685B0894655
:106EA000144610460AF09CFD30B1102005B0BDE834
:106EB000F083000058030020384606F079FD4FF6B5
:106EC000FF760546B74201D0FF2D0AD001460023C8
:106ED00004AA484604F0C6FA30B100BFFEF78FFCA2
:106EE000E4E743F20200E1E79DF81000C00602D596
:106EF00043F20140DAE74FF0070803A90027CDF875
:106F00000080CDE90171628833462946484604F085
:106F10003CFA060012D160680AF062FD58B9606858
:106F2000CDF80080CDE901072388628829464846CC
:106F300004F02BFA0646BDF80C0020803046CDE761
:106F400039B1FD4B0A881B899A4202D843F20300EB
:106F5000704724E610B586B0F74C0423ADF8143022
:106F6000E3883BB124898C4201D2914204D943F297
:106F70000300A3E50620A1E5ADF810100021009163
:106F80000191ADF8003002218DF8021005A902919F
:106F900004A90391ADF812206946FFF700FE8DE5C4
:106FA0002DE9FC4781460F4608460AF0F5FCD0BBA8
:106FB0004846FAF737FA5FEA000811D098F800005F
:106FC000222832D3002317221946484601F0F2F84E
:106FD00050B10421484606F022FD060007D105E025
:106FE00043F20200BDE8FC871120FBE7FFDF06F15A
:106FF000080003F0E1F805463878012803D002289C
:1070000004D00720EEE7A8070FD502E015F0340FF3
:107010000BD0B8793C1DC00709D0E08838B1A06812
:107020000AF0BAFC18B11020DCE70820DAE73A7859
:107030002088002128B3A0F201130721112B18D2B8
:107040000CD2DFE803F00B090D0B1D0B121D100B0A
:107050000B1D1D1D1D0B1D00022A11D10846C1E785
:10706000012AFBD00CE0EA0600E0AA06002AF5DAC5
:1070700006E0A0F5C0721F2A02D97D3A022AEDD897
:10708000C1B298F82200CDE900017288234631464A
:107090004846FEF799FDA5E72DE9FF4F89B01E464A
:1070A00015460C464FF000080F460998FAF7BAF952
:1070B00030B10078222806D208200DB0BDE8F08F4C
:1070C00043F20200F9E7B00801D00720F5E7032EEC
:1070D00000D10026099806F06BFC83464FF6FF7A34
:1070E000CCB1022D6AD320460AF0A1FC30B904EBE2
:1070F0000509A9F101000AF09AFC08B11020DCE7AB
:10710000AD1EAAB22146504604F0BCFA39F8021C62
:10711000884253D1ADB28848B10702D50189491CD4
:1071200000E001211FFA81F9F10701D0068900E092
:10713000564603AA5946484604F08BF84FF0070A12
:107140000BE07888102839D808F1040108441FFAA8
:1071500080F8A84532D804EB08078FB33988494531
:10716000EFD34DE09DF80F100A0749D54CB304EB5F
:10717000080908F10402B9F8023097B2102B1DD8A3
:10718000DA19AA421AD8B9F80020904216D1C806D6
:1071900018D5E119CDE9001A08AA0292B9F8000041
:1071A0000022594603F000FF10B1FEF728FB84E7E8
:1071B000B9F80200BDF82010884203D00B207CE70C
:1071C0001EE005E0B9F8020038441FFA80F806E036
:1071D000C90604D55946FEF755FD00288FD19DF804
:1071E0000F00FF2320F010008DF80F00BDF80F00F6
:1071F000ADF80000BDF812005946009A04F05BF9A2
:1072000003A804F02EF818B9BDF81200B042A9D9AD
:107210000421099806F003FC040000D1FFDF228856
:107220005AB10025CDE900A52B4621460998FEF765
:10723000CBFC0028BBD125803FE700203DE72DE9AE
:10724000F04F89B01E4617000D464FF000041BD0CA
:10725000B10802D0072009B030E7032E00D1002684
:1072600006F0A6FB8046FF2805D07DB128460AF02F
:10727000D5FB48B902E043F20200ECE73988681E0A
:1072800008440AF0CBFB08B11020E4E72A49B00714
:1072900001D5488900E00120F2074FF6FF7902D0BE
:1072A0004989491E00E049468EB204AA414603F0CE
:1072B000D0FF4FF0070A0DF10C0B33E09DF81310CF
:1072C00009072FD50023CDE900A3CDF808B04B4620
:1072D0000022414604F059F8E8B9F5B1BDF80C10A8
:1072E0003A8821442819091D8A4231D3BDF8162055
:1072F00020F8022BBDF80C2020F8022BCDE900A0CD
:10730000CDF808B0BDF81600BDF80C30002241469B
:1073100004F03BF808B103209DE7BDF80C002044C1
:10732000001D84B204A803F09CFF38B1822809D064
:10733000FEF765FA8FE7000058030020BDF816003D
:10734000B042BBD934B175B13988A01C814203D297
:107350000C2080E705207EE722462946484604F0B7
:1073600091F929190880A41C3C80002073E710B50E
:1073700004460AF035FB08B1102010BD11484089C1
:107380002080002010BD70B50C4605460E21204619
:1073900013F0D1FD002020802DB1012D01D0FFDFA1
:1073A00070BD062000E00520A07170BD10B50C4630
:1073B00003F01EFF00B1FFDF2046BDE81040FEF7DE
:1073C0001EBA0000580300204FF0E0224FF40041A5
:1073D0000020C2F8801120490870204990020860FE
:1073E000704730B51C4D04462878A04218BF002CC9
:1073F00002D0002818BFFFDF2878A04208BF30BDA8
:107400002C701749154A0020ECB1164DDFF858C012
:10741000131F012C0DD0022C1CBFFFDF30BD0860F4
:1074200003200860CCF800504FF400001060186092
:1074300030BD086002200860CCF800504FF040706A
:107440001060186030BD086008604FF06070106018
:1074500030BD00B5FFDF00BD1600002008F501407B
:1074600000F500406403002014F5004010B5044608
:10747000007894B0022805D0012803D043F205001B
:1074800014B010BDA07828B1032803D8607808B1E3
:10749000032801D90720F3E73F208DF8000020786A
:1074A000022801D0012000E000208DF80200607861
:1074B00000F095FDC01D8DF80300A078012800D1D3
:1074C000022000F08CFD8DF80400607800F087FD4C
:1074D0008DF80500A07800F082FD8DF80600207878
:1074E000012804D19DF80300401C8DF8030009A970
:1074F000684604F050F800B1FFDF0020C0E72DE936
:10750000FF4F8DB0FA49DDE91AB90600D1E9020151
:107510000396CDE90901507A117A9A460844154636
:10752000C7B20DD00024F01D20F00700B04200D0FB
:10753000FFDF28880399401C1FFA80F814B107E088
:107540000124F0E708F0FF0007F0E2FE00B1FFDFE2
:1075500003993A4601EB0810C01C20F00301D5F84E
:10756000108003913CB9002008701FFA88F003F0E6
:10757000E2FC00B1FFDF0399234601EB0800039012
:10758000A87A297A3A460844C1B203A800F071FDEE
:107590000398C01C20F003000390697A00912B7AB5
:1075A000AA7A04B1002001A906F015F900B1FFDFA5
:1075B000BDF804100398CDE900B90844C01C20F0C0
:1075C00003001C99CDE902103A4604B1002053464D
:1075D00005A906F08BFA00B1FFDFBDF8141003987F
:1075E0000844C01D20F007000E99821B03900A601A
:1075F000002C35D1C04ABF491160111D401E0860E2
:1076000001232C220BA9BD4806F066F800F0F1FC1E
:1076100000211E22084602F043F8FAF72DFE00F082
:107620008FFEFEF7D7FD09AB00220521B4A0FBF7C2
:10763000EAFA00B1FFDF05F10C00FFF7EFF800B147
:10764000FFDF4FF47F71B04813F097FCAE48012183
:1076500080F8F913022180F8FA13062180F8FB1351
:1076600011B0BDE8F08F10B5A74CA078092800D361
:10767000FFDF2078C0EBC00004EB001010F8041FFF
:1076800021F0FF010170417821F00701C91C21F0B0
:10769000180141700121E17010BD2DE9F04105464E
:1076A0000C4600270078052190463E46B1EB101F9E
:1076B00000D0FFDF287E58B1012810D0FFDF00BFC7
:1076C000A8F800600CB1278066800020BDE8F0813A
:1076D000022709267CB1A88BA080A87F09E0032798
:1076E000142644B16888A080286AE060A88C2082B3
:1076F000287F2072E4E7A8F80060E6E700B501788B
:1077000095B001F001018DF80210417801F00101FE
:107710008DF803100178C1F340018DF80410417811
:10772000C1F340018DF80510017889088DF8061025
:10773000417889088DF8071081788DF80810C17894
:107740008DF8091000798DF80A003E208DF80000B0
:1077500009A9684603F01FFF15B000BD70B56A4C5B
:10776000E07800281BD020780025C0EBC00004EB97
:107770000010407900F00700011991F8F803401E4D
:1077800081F8F8032078401CC0B22070092800D18D
:107790002570A078401CA07009F09FFCE57070BDBA
:1077A000594890F8FB03002800D05CE770472DE9AA
:1077B000F043554D9BB00026D5F8F40368B1FFF7B0
:1077C000EFFF002875D07022D5F8F41313F081FB79
:1077D000FFF7C4FFC5F8F463EEE795F8F903002856
:1077E00067D0FFF740FF0446444805F0A6FF6060FD
:1077F00000B9FFDF606803F019FF88B12046FAF78F
:10780000B6F86078010706D520F00700401C6070CC
:10781000FFF7A4FFD0E73948616805F097FFCBE791
:107820003648616805F092FF01A800F05BFC002873
:107830006CD10321BDF8040006F0F1F88046BDF8D4
:10784000040006F052FA0746B8F1000F00D1FFDF3E
:10785000D8F8040010B10078FF2857D0FFF703FFD5
:1078600004463846211D05F0A0FE00B9FFDFD4F81C
:10787000049089F80060BDF804006080204600F0A4
:1078800046FE384605F0BDFE00B9FFDF3B208DF80F
:107890001000BDF80400ADF8120004A805F040FB8C
:1078A0000EA804F02CF96078010703D4C00607D4B1
:1078B00009E02BE020F00700801C6070FFF74EFF0E
:1078C000C8F8049078E7D8F8040038B10178491C6A
:1078D00011F0FF0101709DD1FFDF6DE7002211461D
:1078E000384600F07AFB002894D1FFDF64E70000FF
:1078F00028B301000000002000060240B407002069
:107900006E52463578000000B80300201BB0BDE879
:10791000F08310B5FC4CA0600868E060AFF2711015
:1079200001F021FE607010BDF7490020087070471B
:1079300030B505464FF080500C46D0F8A41095B0F5
:10794000491C05D1D0F8A810C9430904090C08D076
:1079500050F8A01F01F00101297041682160806882
:107960000EE02B208DF8000009A9684603F013FEF5
:1079700000B1FFDF012028700A982060BDF82C00BC
:10798000A0802878002803D0607940F0C0006071A2
:1079900015B030BDF0B54FF080540746D4F88000E4
:1079A00095B00D462B26401C0BD1D4F88400401C0A
:1079B00007D1D4F88800401C03D1D4F88C00401CB7
:1079C0000BD0D4F880003860D4F884007860D4F804
:1079D0008800B860D4F88C0016E08DF82C606946F9
:1079E0000BA803F0D8FD00B1FFDF019838600298C2
:1079F00078608DF82C6069460BA803F0CCFD00B1CF
:107A0000FFDF0198B8600298F860D4F89000401C3D
:107A10000BD1D4F89400401C07D1D4F89800401C36
:107A200003D1D4F89C00401C08D054F8900F286073
:107A300060686860A068A860E06816E08DF8006083
:107A400009A9684603F0A7FD00B1FFDF0A98286086
:107A50000B9868608DF8006009A9684603F09BFDEB
:107A600000B1FFDF0A98A8600B98E86015B0F0BD80
:107A700030B5A64C0546D4F8F40300B1FFDFC4F8D6
:107A8000F45330BD3EB50546032105F0C8FF04465A
:107A9000284606F02AF9054604B9FFDF606818B1E8
:107AA0000078FF2800D1FFDF01AA6946284600F0D0
:107AB00094FA60B9FFDF0AE0002202A9284600F02C
:107AC0008CFA00B9FFDF9DF8080000B1FFDF9DF8D8
:107AD0000000411E8DF80010EED2606801998842C6
:107AE00001D100206060894C94F8FA03022800D389
:107AF000FFDF94F8FA03401CC0B284F8FA030128AF
:107B000003D18148407801F04DFD3EBD70B504467B
:107B1000A1F57F4016460D46FF3800D1FFDF012E4C
:107B200001D0FFDF70BD207820F00F00401D20F055
:107B3000F0005030207000202076A5830120A0772F
:107B400070BD70B515460C460646FFF729FE90B18C
:107B5000017821F00F01491D21F0F0015031017031
:107B600046800121017621680162A1888184057720
:107B7000BDE87040F2E53046BDE870401321FAF7E9
:107B800031BE70B505460C46084609F029FF08B11C
:107B9000102070BD2846F9F745FC28B1284600F0B2
:107BA000F3FE2070002070BD43F2020070BD2DE98D
:107BB000F04F87B00546002005905348894601786C
:107BC00011B1082007B04CE54F48514941602846A3
:107BD00009F006FF002868D1484609F001FF002897
:107BE00063D16F7A2B7AF818FF2870D82888FE287E
:107BF0006DD800B90A202880296909B94FF4B0610D
:107C000029616A68B2B15478907804EB4404204446
:107C10001478167904EB440400EB44005479D278CC
:107C200004EB440406EB4606344402EB420204EB48
:107C3000420406E007EB470003EB430200EB42047B
:107C40002046C7EBC7021044C3EBC30210441844DC
:107C500086B206EBC60000EB400A04EBC40000EB62
:107C600040000090D82901D20920ABE7A87AB84299
:107C70002DD84FF01208082F0DD8012B0BD807F084
:107C8000B2FC074609F0E8F93A1A297A687A521ED6
:107C90000B189A4201DA404694E76F68834688469B
:107CA000BFB1384609F0C3FE08B110208AE7B978A1
:107CB0007878014438780A180BEB0800904206D116
:107CC00079793A791144FA781144884201D0072031
:107CD00078E700981FFA8AF387B20097CDE901642C
:107CE0002A4603A90020FFF70AFCDFF81C8003994D
:107CF000D9F80020D8F80400014491420AD90420A0
:107D0000C9F800105EE7000018000020B80300204A
:107D1000881200200097CDE901641FFA8AF32A46F1
:107D200004A9FFF7ECFBDDE90301884200D0FFDF87
:107D30000498D8F804100844C8F80400C9F80000F2
:107D4000FF49012088F80000087005983AE72DE9FE
:107D5000F04707460C46084609F042FE40B938464F
:107D600009F05CFE20B9F81C20F00300B84202D0F4
:107D70001020BDE8F087F3484FF00008817899B1F2
:107D800041788246C1EBC10100EB0115B4F80090C7
:107D900015F8040F234600F00F000022294600F0DA
:107DA000F0F9060004D013E0A4F800800520E0E715
:107DB00097B12188494501D90C260DE02878234642
:107DC00000F00F003A46294600F0DBF9060005D026
:107DD0000C2E01D0A4F800803046CAE79AF80100C2
:107DE0005446401CC0B28AF80100092801D184F829
:107DF0000180A078401EA070687800F0070101297A
:107E00000BD0022903D0032918D0FFDFE4E7C00616
:107E1000E2D46888FFF736FEDEE7CB48696805F0F4
:107E200095FC94F8F903401CC0B284F8F9030128CA
:107E3000D2D1C648407801F0B5FBCDE794F8FB03FA
:107E4000401C8AF8FB03C7E770B50D46044609F0ED
:107E5000A3FD18B9284609F0C3FD08B1102070BD74
:107E600029462046BDE8704007F089BA70B504463F
:107E700015460E46084609F08FFD18B9284609F048
:107E8000AFFD08B1102070BD022C03D0102C01D022
:107E9000092070BD2A463146204607F093FA002893
:107EA000F7D0052070BD70B514460D46064609F0A2
:107EB00073FD38B9284609F093FD18B9204609F03A
:107EC000ADFD08B1102070BD22462946304607F0AE
:107ED00098FA0028F7D0072070BD10B594B004467A
:107EE00009F07EFD10B1102014B010BD0F208DF8E8
:107EF000000009A9684603F04EFB0028F4D19DF864
:107F00002C002070BDF82E006080BDF83000A080ED
:107F10000020E9E770B505460C46084609F07EFDED
:107F200020B93CB1206809F05BFD08B1102070BD9C
:107F3000A08828B121462846BDE87040FEF7A0B9C8
:107F4000092070BD70B504460D46084609F024FDB1
:107F500030B9601E1E2814D8284609F01DFD08B14E
:107F6000102070BD022C01D9072070BD04B9FFDFBD
:107F7000774800EB840050F8041C2846BDE87040A8
:107F80000847A4F120001F28EED829462046BDE866
:107F90007040FAF7BAB870B504460D46084609F0C5
:107FA0001FFD30B9601E1E280DD8284609F0F4FCCC
:107FB00008B1102070BD012C01D0022C01D1062087
:107FC00070BD072070BDA4F120001F28F9D82946F4
:107FD0002046BDE87040FAF707B905F089B90328D3
:107FE00003D0022803D001207047062070470320E9
:107FF000704710B594B003F0BFFA544841788068D8
:1080000003F0B0FC514801240C300178012916D14D
:1080100030218DF80010C0788DF8020010B10128D1
:1080200003D005E08DF8024002E000208DF8020048
:10803000684604F075FF10B109A803F060FD022046
:108040008DF824008DF825008DF8260009A8FFF78B
:108050000DFA00B1FFDF8DF8244003208DF82500D4
:108060008DF8260009A8FFF701FA002800D0FFDFED
:108070003AE72DE9F0410646022012B101EB420039
:10808000401DC7B23068C01C20F0030232601BBB29
:108090002C483B460A21283809F06FFB002408E0F1
:1080A0000A2C11D2DFE804F005070509090B0B05BE
:1080B0000505284804E0284802E0284800E0284850
:1080C00009F07AFB054600E0FFDFA54200D0FFDFA4
:1080D000641CE4B20A2CE3D3306800EB0710306074
:1080E000BDE8F0812DE9F04395B081463A208DF846
:1080F0002C0069460BA803F04EFA00B1FFDF43F2F3
:10810000040600246D46DFF83C8032E02F19B87D6C
:10811000C10706D0400704D405EB4400C08800F036
:1081200024FC98F8FA0310B3B87D80071FD505EB3F
:108130004400C08800F0B1F9C8B105EB440011E07B
:1081400008000020B8030020B40700201800002019
:1081500028B30100391F0000B3830000E12F0000A5
:10816000C9F00000C188A9F80010002605E0641CD1
:10817000E4B29DF80400A042C8D815B03046BDE86E
:10818000F0832DE9F041044600201880601E1D4652
:1081900016460F46052800D3FFDF05482A4600EBA8
:1081A0008400314650F8043C3846BDE8F041184799
:1081B00038B301002DE9F0478A4698461546064631
:1081C000032105F02CFC0446304605F0A0FD0C35DB
:1081D000AFB2002581462E4604B9FFDFB9F1000F8A
:1081E00000D1FFDF04EB8A000189B94200D30125E9
:1081F000218CB94202D2BAF1060F00D3012638EA27
:10820000050104D0817A41F0020181720BE038EA65
:10821000060108D0817A41F00401817214F8220F1E
:1082200040F00400207005EA0600BDE8F0872DE963
:10823000F0478246DDE90854174605F10C009946DF
:108240000E461FFA80F800232A4639465046FFF7AB
:10825000B1FF60B1B07800061BD424F8045C24F8A8
:10826000029C504605F053FD040008D106E0072F9C
:1082700001D01120D9E743F20400D6E7FFDF2D1D1E
:108280002046A9B204F037FF00B9FFDF504603F0E3
:10829000D5FA06EB8700062F0289A2EB08010181BF
:1082A00003D2318CA1EB080030840020BDE72DE91A
:1082B000F04385B01E46DDE90D5491460F46DDF8CA
:1082C000308005F024FD60B309F10402694692B2E2
:1082D00004F0ABFE50B300980770BDF80800042806
:1082E00000D2FFDF002701983A46394607808770A1
:1082F000019803F065FB1EB1BDF80800001F308037
:10830000B8F1000F03D00198C01DC8F8000015B1E6
:10831000BDF8100028808CB1288870B103982060C7
:108320000CE043F2020005B0BDE8F083072F01D056
:108330001120F8E743F20400F5E727600020F2E798
:108340000020FF49024600BF21F81020401C0828E9
:10835000FAD3704770B50C46897821F0FF01A170FF
:10836000217821F00F0121700121617000216160ED
:1083700005F0CDFC050000D1FFDF284604F053FED8
:10838000F53820852046BDE8704000F0A4BB70B5EC
:108390000D46032105F043FB040000D1FFDFA07868
:1083A00065F30600A07070BD70470146012009F01A
:1083B000B0BA3EB58DB20321284605F030FB04006B
:1083C00000D1FFDF2078002220F00F002070022073
:1083D0008DF800004FF6FF70ADF80200ADF8040014
:1083E00069462846F9F72DFE3EBD2DE9F0470546C2
:1083F0000C4600784FF00009012192464F46B1EB40
:10840000101F00D0FFDF287E032809D0FFDF00BF48
:10841000AAF8007014B1A4F800906780002004E767
:10842000AE8B4FF0700906F10A0087B2D4B16888AC
:10843000A080688B2081E680A889A968001F80B28F
:108440008046024604F10A00C91D12F0FDFC4645B3
:10845000DED904EB0800A6EB08020A30296912F005
:10846000F3FCD5E7AAF80070D8E72DE9FC410F46E8
:108470001C46164680460321089D05F0D0FA0100EF
:1084800008D033463A464046CDE90045FFF7CFFED7
:10849000BDE8FC8143F20200FAE770B50546A0F59D
:1084A0007F4086B0FF3811D0284605F01EFC04003E
:1084B00000D1FFDF2046694605F077F800B9FFDFFD
:1084C000019CB4F80500E41C052802D0012006B088
:1084D00070BD2E460321284605F0A1FA050000D103
:1084E000FFDF2079122807D120880C2804D1A87832
:1084F00000F07F00022806D0002306220421304627
:10850000FFF758FEE3E7002306220521F7E72DE9F0
:10851000F04F84688389818A34F8032F0B4465887F
:108520001B1F87B0934222D14FF0010B4FF0000880
:10853000042D1FD0052D78D0062D6FD0402D16D3D9
:1085400004461646284600F0BAFA08280FD02078CC
:1085500020F00F00401C20F0F000103020700320AD
:1085600020766583A683607840F00800607007B0CD
:10857000BDE8F08F04F10409164604460246494658
:108580003046FCF7B2FFC0B20828F0D1ADF80C803D
:10859000CDF8108047466088032105F040FA0500B9
:1085A00000D1FFDF67482989008881420DD304A8E4
:1085B000CDE900071722ADF80C2002970023608850
:1085C0001946FFF774FE00B1FFDF009403AA494685
:1085D0003046049BFDF7C2FEC0B205281AD2DFE880
:1085E00000F0041903150300C1E7BDF80C000028D2
:1085F000BDD004990423CDE90001608800222946FA
:10860000FFF715FE0028B2D0FFDFB0E7607840F03A
:108610001000ABE7FFDFAAE707E0FFE7009103697F
:108620004088211DFBF71AFAA1E707461646408845
:10863000032105F0F4F9050000D1FFDF8DF80C806F
:10864000A878C146400600D1FFDF042E8FD32179E0
:1086500041F30000401C06D16A7863799A4286D1C2
:108660002A78120783D04FF00208142939DA4FF61E
:10867000FF7A012933D0122902D0132931D11CE00D
:108680000C2E2ED1A97801F07F01012929D028785C
:1086900020F00F00401C2870607968708DF80CB0D5
:1086A0002089ADF80E006089ADF81000A089ADF802
:1086B0001200E089ADF8140016E0062E11D12878DA
:1086C00020F00F0028707988012009F022F98DF838
:1086D0000C80ADF80EA02089ADF8100004E0062E45
:1086E00008D09DF80C10A9B178883A4603A9F9F78B
:1086F000A8FC3CE7287820F00F002870798801203A
:1087000009F007F98DF80C802089ADF80E00ADF85E
:1087100010A0E9E7002887D07E8806A8CDE90009E7
:108720002F464D460023062204213046CDF80890FE
:10873000FFF7BDFD00B1FFDF069880F800B003E051
:10874000E407002050B3010061794170A0F8028075
:1087500085800621CDE900100523042239463046E4
:10876000FFF765FD0028C4D0FFDF00E77FB50D46A9
:108770000646032105F053F904003DD0207800F0AF
:108780000F0001283BD0002003A9CDE900100346CB
:1087900002900C2205213046FFF789FD002829D1DF
:1087A000039812210523017061781A46891C4170D3
:1087B00008214180298881806988C180A988018138
:1087C000E98841810C21CDE9001021463046FFF7B0
:1087D0002EFD00B1FFDFF02300223146012008F01A
:1087E000FBFF207820F00F00401C20706078801C78
:1087F0006070002004B070BD43F20200FAE711205F
:10880000F8E77FB50D460646032105F008F9040098
:1088100006D0207800F00F00012804D00820E9E7F6
:1088200043F20200E6E7002003A9CDE90010034669
:108830000290062205213046FFF739FD0028D9D1E4
:108840000398132105230170617841700221418052
:1088500085800621CDE900101A4621463046FFF7F3
:10886000E6FC00B1FFDF207820F00F002070002030
:10887000C0E72DE9F84F0E468146032105F0CFF8F9
:108880000546484605F043FA80464FF0000B05B90F
:10889000FFDFB8F1000F59D1FFDF57E040466946CE
:1088A000002204F025FD9DF800408246082C00D3EC
:1088B000FFDF05EB84070AF108003989062C014423
:1088C000398102D2298C08442884072C03D10BF16A
:1088D000010000F0FF0BB87AC10710D0072C03D0BD
:1088E000874A32F8141000E0298D3A898A4206D36B
:1088F00020F00100B8724846032C2DD0FFDFB87A73
:10890000810706D520F00200B8724846032C26D015
:10891000FFDF062C1AD800BF95F82200410715D5B5
:1089200020F0040085F822005FF0000405EB8400CD
:10893000817A4A0706D521F0040181724846032C4A
:1089400010D0FFDF641CE4B2062CEFD3761EF6B223
:10895000A4D25846BDE8F88FFBF721F9CFE7FBF723
:10896000E0F8D9E7FBF7DDF8ECE710B5032105F0F7
:1089700056F8040000D1FFDF204600F0ACF8A078E4
:1089800040F08000A07010BD10B5032105F047F83D
:10899000040000D1FFDF208D2321B0FBF1F0C0B235
:1089A00010BD70B50D46032105F039F8040000D163
:1089B000FFDF062D00D9FFDF072D03D0504830F828
:1089C000150000E0208D04EB85010A89824205D262
:1089D0008A7A012042F001028A7270BD002070BDC7
:1089E00010B50446402801D2072010BD00F067F8FA
:1089F000082802D04FF4445010BD0021414802E045
:108A0000491C082903D230F81120002AF8D108297E
:108A100003D020F81140002010BD042010BD10B577
:108A2000402801D2072010BD00F049F8082805D0E1
:108A3000344A002122F81010084610BD052010BD50
:108A400070B588B015460C00064606D02DB160887A
:108A5000402804D2072008B070BD1020FBE7218811
:108A600049B300F02CF8082827D003AA06A905A8C6
:108A70008DE80700228804AB07213046FFF717FC7A
:108A80000028E8D1BDF810202946059812F0DCF93D
:108A90002088BDF81010884204D9421A294403984E
:108AA00012F0D2F905980090238862880721304699
:108AB000FFF7DBFCCFE70C20CDE70520CBE7014635
:108AC0000020104A02E0401C082803D232F810307F
:108AD0008B42F8D1704710B504462021083012F0BF
:108AE0004CFA0748002100BF30F8112004EB810345
:108AF000491C1A810629F7D9208DA08410BD0000D9
:108B000050B30100E407002030B44FF0E02001230F
:108B10004FF4006C0021C0F880C11D02C0F88051E4
:108B20001C06C0F88041E54A82F80014D21E82F883
:108B30000014E34A82F80014E24A53609360C2F8DA
:108B40004011C2F84411C2F84811C0F880C2C0F800
:108B50008052C0F88042C0F800C1C0F800411360E4
:108B600030BC704770B401204FF0E023C6024FF0D4
:108B7000000CC3F880610402C3F880410506C3F805
:108B80008051D04A50609060CF4801680029FCD1E4
:108B9000C2F840C1C2F844C1C2F848C1C3F88062FB
:108BA000C3F88042C3F8805270BC70474FF0E02099
:108BB0004FF40061C0F88012C910C0F880127047ED
:108BC000002804BFC1487047012804BFC04870474F
:108BD000022804BFBF48704700B5FFDF002000BD7A
:108BE00008B5B849002298B101282FD002281CBF2F
:108BF000FFDF08BD4FF48020C1F80803C1F8480327
:108C0000B5480260C1F84821B2480068009008BD2C
:108C10004FF48030C1F80803C1F84803AF4B1A6025
:108C2000C1F84021AE4BC1031960AE49C1F8080339
:108C30004FF0E0230012C3F88001AB480260C1F896
:108C40004021C1F80022A948027008BD4FF400304D
:108C5000C1F80803C1F84803A5480260C1F84421DF
:108C60009B480068009008BD70B5DFF858C2042624
:108C70000024012558B1012840D002281CBFFFDF85
:108C800070BD9C4A4FF48020012B3CD144E0881EEB
:108C900020F07F414FF48030CCF80803CCF84041FD
:108CA000CCF84403CCF84015012B14BF002101215E
:108CB0008E4B59708B490D61DFF83CC2CCF80040F7
:108CC0008E4C4FF0020CC4F800C0DFF834C2CCF870
:108CD0000060DFF814C23D32CCF80020C1F8005229
:108CE0004FF0E02C8A15CCF88022C1F80403CCF8B0
:108CF00000210804834908601D7070BD824A4FF44A
:108D00000030012B08D0CCF80803C2F84041CCF861
:108D10004403C2F8401570BDC2F84041CCF80403CA
:108D2000CCF84403C2F8401570BD6748006870472E
:108D300070B576480568774975480860614CD4F885
:108D40004001002601280AD1D4F8080310F4803F1E
:108D500005D04FF48030C4F80803C4F84061D4F85B
:108D6000440101280DD1D4F8080310F4003F08D0C5
:108D70004FF40030C4F80803C4F84461012007F040
:108D8000BCFBD4F8480101280DD1D4F8080310F435
:108D9000802F08D04FF48020C4F80803C4F848613D
:108DA000022007F0AAFB5C48056070BD574810B56B
:108DB00004685849564808604C490878002808BF9C
:108DC00003201AD0464A4FF000401060454AC00BBD
:108DD000C2F8080303124FF0E02C0020CCF88031D9
:108DE000414B1860C2F84001C2F8000208704A788E
:108DF000002A1CBF4870002001D007F07EFB4648C7
:108E0000046010BD4FF0E0214FF08070C1F8000207
:108E100070474FF0E0214FF08070C1F8800270473A
:108E20004FF0E0214FF40010C1F8000270474FF0FE
:108E3000E0214FF40010C1F8800270472949012059
:108E400008614FF0E0210002C1F880027047410A3A
:108E500043F609525143C0F3080010FB02F000F53D
:108E6000807001EB50207047430B48F2376C03FBD6
:108E70000CF31B0C4FEA432CC1F800C0DFF89CC078
:108E800003FB0C0326484CF2F72C5843400D10FB13
:108E90000CFC0CEB432303F580735B1213700A6820
:108EA000104408607047194810B5046819491848FB
:108EB000086007F00FFC1848046010BD0BE000E0EC
:108EC00018E000E000B0004004B5004040810040E0
:108ED00044B1004048B1004048B5004040B50040B2
:108EE00008F5014000800040408500402800002037
:108EF00044B5004008B000400485004008850040AB
:108F00001085004004F5014004B000401005024007
:108F1000010000011805024014050240F7C2FFFFDE
:108F20006F0C010010B5EFF3108000F0010472B671
:108F3000EC484178491C41704078012801D108F083
:108F4000EBF8002C00D162B610BD70B5E54CE078AE
:108F500048B90125E570FFF7E5FF08F0E5F820B115
:108F6000002008F0C1F8002070BD4FF0804065710E
:108F7000C0F80453F7E770B5EFF3108000F0010577
:108F800072B6D84C607800B9FFDF6078401E607020
:108F9000607808B908F0C4F8002D00D162B670BD41
:108FA000D04810B5C17821B100214171C170FFF7DF
:108FB000E2FF002010BD10B5044608F0B5F8C9491D
:108FC000C978084000D001202060002010BD2DE9A4
:108FD000F05FDFF810934278817889F80620002549
:108FE00089F80710064689F8085000782F4620B106
:108FF00001280FD002280FD0FFDF08F0A2F898B1A7
:1090000008F0A6F8A8420FD1284608F0A5F80028D5
:10901000FAD047E00125F0E7FFF784FF08F084F875
:109020000028FBD00225E8E701208407E060C4F8AF
:109030000471AD490D600107D1F84412AA4AC1F389
:10904000423124321160A8494FF0020B34310860DC
:10905000C4F804B3A060DFF894A2DAF80010C943A2
:1090600041F3001101F10108DAF8001041F010019C
:10907000CAF8001000E020BFD4F804010028FAD09C
:10908000284608F069F80028FAD0B8F1000F05D199
:10909000DAF8001021F01001CAF80010C4F808B383
:1090A000C4F8047199F807004C4670B1307860B983
:1090B00008F03AF8064608F025FA6FF0004116B1BC
:1090C000C4E9031001E0C4E9030115B12771BDE84B
:1090D000F09F01202071BDE8F05F00F0E1B810B50D
:1090E000040000D1FFDF4FF080414FF0FF30C1F8A6
:1090F00008030022C1F80021C1F80421C1F80C21A5
:10910000C1F8102108F016F828B176490120C8707E
:109110004878401C48702046BDE8104057E72DE9CC
:10912000F0410125AF077D616E4CE079F0B1012877
:1091300003D0217A401E814218DA07F0F5FF064677
:1091400008F0E0F9E179012902D9217A491C21725C
:109150000EB1216900E0E168411A022902DA11F139
:10916000020F0EDC0EB1206100E0E060FFF7DAFED6
:1091700007F0DAFF10B13D61A57000E02570002016
:109180002072BDE8F0812DE9F05F5948D0F800B0B9
:10919000574A5849083211608406D4F8080110B1C2
:1091A0004FF0010801E04FF00008D4F8000100B1D1
:1091B00001208146D4F8040108B1012600E0002610
:1091C000D4F80C0100B101208246D4F8100108B196
:1091D000012700E0002748EA090126EA010020EA09
:1091E0000A00B84300D0FFDF0025B8F1000F04D01B
:1091F000C4F80851012007F077FFDFF8E880B9F1E3
:10920000000F13D0C4F8005198F8050020B188F879
:109210000550002007F068FF98F8000030B107F013
:1092200083FF18B1012088F8020020610EB1C4F854
:109230000451BAF1000F0AD0C4F80C5198F802009A
:10924000464600B9FFDFB5703570FFF794FE37B1C1
:10925000C4F8105198F8040008B1FFF760FF2449E2
:10926000091DC1F800B032E770B51E4DE87808B9A5
:1092700007F056FF01208407A061A87858B100BF0D
:10928000D4F80C0120B9002007F066FF0028F7D1C0
:109290000020C4F80C014FF0FF30C4F8080370BD83
:1092A0002DE9F0411926B507C5F808630124AC6122
:1092B0000020C5F80001C5F80C01C5F8100107F041
:1092C00033FF084F10B1BC702C6100E03C70FFF719
:1092D00029FE0549B87920310860C5F804636C613E
:1092E0004FE700002C0000201805004010ED00E0C2
:1092F000100502400100000110B50D2000F06FF8CC
:10930000C4B26FF0040000F06AF8C0B2844200D02A
:10931000FFDF3A490120086010BD70B50D2000F054
:1093200048F8374C0020C4F800010125C4F8045364
:109330000D2000F049F825604FF0E0216014C1F8DD
:10934000000170BD10B50D2000F033F82C4801214C
:1093500041600021C0F80011BDE810400D2000F070
:1093600033B8284810B504682649274808310860F2
:109370002349D1F80001012804D0FFDF2148001D56
:10938000046010BD1D48001D00680022C0B2C1F875
:10939000002107F0D2FFF1E710B51948D0F800110D
:1093A0000029FBD0FFF7DDFFBDE810400D2000F0E5
:1093B0000BB800F01F02012191404009800000F12C
:1093C000E020C0F88011704700F01F020121914099
:1093D0004009800000F1E020C0F8801270470028AA
:1093E00006DA00F00F0000F1E02090F8140D03E021
:1093F00000F1E02090F800044009704704D50040D7
:1094000000D00040100502400100000110B52020EE
:1094100000F075F8202000F07DF84449202081F804
:109420000004434900060860091D42480860F7F738
:1094300069FF3F49C83108603F48D0F8041341F044
:109440000101C0F80413D0F8041341F08071C0F892
:109450000413364901201C39C1F8000110BD10B5B4
:10946000202000F04CF8324800210160001D01600E
:109470002F4A481EE83A10602F4AC2F808032C4BC6
:10948000C8331960C2F80001C2F860012B490860B6
:10949000BDE81040202000F03DB825492848EC39AF
:1094A0000860704722492648E8390860704770B55F
:1094B0001F4A8069E83A224911601F49D1F80061CA
:1094C0000023204D1D4A5C1E1EB1A84206D3002178
:1094D0000FE0D1F8606186B1A84209D2C1F800312D
:1094E000C1F860311460BDE87040202000F012B86F
:1094F0001168BDE8704011F072BDFFDF70BD00F073
:109500001F02012191404009800000F1E020C0F8D5
:109510008011704700F01F02012191404009800036
:1095200000F1E020C0F880127047000020E000E069
:1095300000060240841200200000024000040240A5
:109540000100000100C001004FF0E0214FF0007069
:10955000C1F88001C1F88002384B802283F80024D2
:10956000C1F80001704700B502460420344903E009
:1095700001EBC0031B792BB1401EC0B2F8D2FFDF54
:10958000FF2000BD41F8302001EBC00100224A71EC
:109590008A7101220A7100BD294A002102EBC00034
:1095A0000171704710B50446042800D3FFDF24483A
:1095B00000EBC4042079012800D0FFDF6079A17995
:1095C000401CC0B2814200D060714FF0E0214FF0EA
:1095D0000070C1F8000210BD2DE9F041194805687E
:1095E00018491948083108601448042690F8000406
:1095F000134F4009154C042818D0FFDF16E02178DE
:1096000007EBC1000279012A08D1427983799A4295
:1096100004D04279827157F8310080472078401C8D
:10962000C0B22070042801D300202070761EF6B24C
:10963000E5D20448001D0560BDE8F08119E000E0B6
:10964000F407002010050240010000014000002046
:109650000F4A12680D498A420CD118470C4A126809
:109660000A4B9A4206D101B507F020FFFFF715FF1C
:10967000BDE80140074909680958084706480749F5
:10968000054A064B7047000000000000BEBAFECA43
:10969000980000200400002088110020881100207C
:1096A000F84B586019721A80C90011F066BC00218D
:1096B000018070474FF6FF720280032008F029B93D
:1096C00070472DE9F04F0E46017804464FF0010A2D
:1096D0000AFA01F047F2FF1100EA01086168154635
:1096E00097B00888A0F57F42FF3A06D0B8F1000F86
:1096F00007D047F2FE12104203D0012017B0BDE898
:10970000F08F40EA080008804FF00009A5B185F805
:10971000009023780027052003220221DFF864B39C
:10972000102B75D2DFE803F0740D131C2F4A515A29
:1097300031A5A175A9F1F0EF20780B28E9D004201C
:10974000DCE72970A089A5F8010032801DE1042121
:109750002970A189A5F80110E189A5F8031082E01C
:1097600006202870A089A5F80100E089A5F803006B
:10977000208AA5F80500A28AE81DA16911F064FB02
:10978000A08AC01D6FE0082129702178082901D125
:1097900010212970A189A5F80110E189A5F803100D
:1097A00030806A1D694604F1100005F02AFE002889
:1097B0007ED130889DF80010084454E00A202870BB
:1097C000A089A5F801003280AAE00C212970A189A6
:1097D000A5F80110E189A5F80310B7E0A2890AEB0A
:1097E000420081B23088884262D3052960D30E20BE
:1097F0002870002008E0236905EB400C33F8103096
:10980000401CACF8013080B29042F4D33180BCE00F
:10981000CAE09BF809005A46002873D0401E5072D7
:10982000227BDBF80400236900EBC205AA882868C4
:10983000D3F800C00244A2F1080042F808CC5A68EC
:1098400042608DF800108DF8019028680290A88879
:10985000ADF8040000216846FBF786FCA5F80490EB
:10986000002E01D0484630808FE0287840F08001FB
:109870002970287840F040012970287820F03F00B6
:1098800012302870A189A5F80110E289E81C21692D
:1098900011F0DAFAE089C01C3080287841063FD503
:1098A000000672D58DF800A08DF80190308800E098
:1098B00026E0001DADF804000295E189E81C08448B
:1098C0000390001D04909BF808008DF814000021FF
:1098D0006846FBF749FC074630880C303080022F81
:1098E00001D007B363E09DF81420DBF804109BF867
:1098F0000830584601EBC2019A4201D28A882AB147
:10990000042754E030E02BE022E00DE0427A521CC4
:109910008BF809200D6030888880A6F8009046E01A
:109920006168A089888030E0287820F03F001630F8
:109930002870A089A5F80100E089A5F80300228A13
:10994000681D616911F080FA208A401D3080E7E7C8
:10995000287820F03F0018302870207B687055E789
:1099600060680188090401D4052720E0C088A18926
:10997000884201D006271AE01E202870A6F800A011
:109980006068018821F400410180B8F1000F0ED019
:10999000BBF80000002283000320A16807F01CFF31
:1099A00061682078887007E0A6F800900327606857
:1099B000018821EA0801018038469FE62DE9FF4F22
:1099C00097B00C46249E70B117280CD83288A2F5A7
:1099D0007F43FF3B07D02278530601D4120604D5FB
:1099E00008201BB08BE60720FBE74FF000098DF83D
:1099F00000908DF801902278831E02F03F0CA0F1B8
:109A0000010A611C4D461FFA8AF702AABCF1200F19
:109A100079D2DFE80CF089107861786C78AA78CD7B
:109A200078F778FC78F478F378F2787878F178F051
:109A300078EF78EE7889052876D104208DF800003B
:109A4000B0788DF804006088ADF8060020798DF8B4
:109A50000100607800F03F000C282BD00ADCA0F158
:109A60000200092860D2DFE800F0145F175F1C5F76
:109A70001F5F2200122826D006DC0E281DD01028D9
:109A8000DAD11DE01408002016281FD01828D3D1E1
:109A90001FE03078800701E030784007002843DA83
:109AA00037E130780007F9E73078C006F6E730781C
:109AB0008006F3E730784006F0E730780006EDE7FF
:109AC0003088C005EAE73088C004E7E730888004C2
:109AD000E4E730884004E1E73178890724D503289A
:109AE000AAD105208DF80000B4F80100D2E0317849
:109AF0004907F3D5062817D3617898B2012903D016
:109B0000022999D102E01FE1022700E01027062177
:109B10008DF8001061788DF80610ADF80490A11C46
:109B2000904607F102091BE097E000BF31F8022BD5
:109B3000A0F1020AA8F800208B463A4608F102007C
:109B400011F082F908EB070202F10208BDF80420C7
:109B5000AAEB0700521C0BEB070180B2ADF8042002
:109B60008145E3D9002878D1D3E03078000774D557
:109B700007208DF800001FFA8AF1ADF80490601CF0
:109B80000DF106020FE000BF30F8023B22F8023B65
:109B900030F8023B22F8023B091FBDF8043089B2BD
:109BA0005B1CADF804300429EED2002955D1B0E099
:109BB0003178C90651D502284FD308208DF800000E
:109BC000ADF8069061789BB28DF80410A01C0CE0F3
:109BD000078822F8047B871C80C25B1ABDF80670D8
:109BE00008447F1C9BB2ADF806709942F0D9A3BB24
:109BF0008FE070E075E065E04FE042E01DE012E0CC
:109C000005E0FFE73078800627D5092003E03078AB
:109C1000400622D50A208DF80000B088ADF8040077
:109C2000ADF8067007E03078000616D50B208DF8E9
:109C30000000ADF8047002916BE03188C9050CD5C5
:109C400002287FD30C208DF8000099B2ADF8069061
:109C500063788DF80430A01C10E073E0078822F8C8
:109C6000027B478822F8027B071D80C2C91ABDF813
:109C7000067018447F1C89B2ADF806708B42EDD98E
:109C800093E73188C9045DD501285BD10D208DF89B
:109C90000000B088ADF804003BE03188890451D55C
:109CA00005284FD30E218DF80010B188ADF80410AF
:109CB000B4F80310401FADF80800601DADF80610A1
:109CC000039026E0318849043CD501283AD10F2081
:109CD0008DF800001DE03188090433D4B4F8011078
:109CE000F18003282ED3217801F03F011B2925D0D4
:109CF00011218DF80010318841F40041A6F80010C0
:109D0000B4F80110ADF80410C01EADF80600E01C58
:109D10000290207800F03F001B2809D01D2807D0B2
:109D200003201A9907F0F5FD308800F400403080D8
:109D300068461999FBF718FA284652E610218DF863
:109D40000010DDE70725F7E70825F5E700B597B030
:109D5000032806D18DF80000019100216846FBF729
:109D600003FA17B000BD00002DE9FF4F8DB09346F8
:109D7000DDE91A56DDF8749004464FF0000A082A0F
:109D800006D0E06901F02CF858B110203070BCE02A
:109D90002888092140F01000288089F80010022747
:109DA00017E0E16901208871E2694FF42051918048
:109DB000E1698872E06942F601010181E1690020F0
:109DC0008873288840F020002880112089F800003E
:109DD0000427307809900A20307004F1180009F146
:109DE000020802250B9001F063FA002066E000BF34
:109DF000BBF1100F06D1022D04D0A8EB0A00BDF86C
:109E00000C204280BDF80E001099884203D9F64913
:109E1000097A0E9104E003D1099909B131701FE06C
:109E2000A8F800001C980088A0EB0500A0EB070034
:109E300083B2C7F1FF00984200D203460E980AAAE7
:109E400008EB07018DE8070094F82010BDF80E001C
:109E5000002201F09AFA307030B1C0B2832858D095
:109E6000BDF80E0020833DE0089828B1DE48006868
:109E700000790A282BD335E0BDF82800C11901F07C
:109E8000FF0A022D0ED099F80110514503D1BDF8FB
:109E90001820824208D0D4488A46006801780329F5
:109EA00008D021E089F801A0CF4800680178042992
:109EB00006D008E000790A2816D20120089006E0B2
:109EC000BDF80E10818005EB0A00D04485B203AACC
:109ED0000E990B9801F0EFF920B91C980088401BEF
:109EE000B84285DA022D0BD0BBF1100F04D1A8EBDC
:109EF0000A01BDF80C0048801C98058000203070D5
:109F0000B94800680078032803D0002011B0BDE8EC
:109F1000F08F0220FAE72DE9F0410546406B134629
:109F2000002758B3491F8EB2698FA1F57F42FF3ACF
:109F300005D0421892881144891D8CB200E000249B
:109F4000A1192A8F0831914216D82044B3F8011084
:109F500020F8021BB3F8031020F8021B324620F849
:109F6000026B591D10F070FF6C87696B0020214453
:109F7000B61D3144088002E0092700E083273846F7
:109F8000BDE8F08110B50B88048F9C420CD9446B5E
:109F9000E018048844B1848824F40044A41D2344B8
:109FA0000B801060002010BD822010BD2DE9F0470D
:109FB00088B00025904689468246ADF810500727A4
:109FC00045E0039806888088000440D4A8F8006023
:109FD00005A80097CDE901504FF4007300224946CF
:109FE000304601F0D2F9040038D1BDF81000ADF8C8
:109FF0001800039804888188B44214D10A0412D44A
:10A00000CDE9005721F40041029541F48043428894
:10A010004946204600F0C8FF04000BD10398818810
:10A0200041F40041818003AA06A95046FFF7AAFF28
:10A030000400DED0CDE9005703980295BDF8143036
:10A0400000880022494600F0AFFF822C06D103AA07
:10A0500004A95046FFF796FF0400B2D0ADF81050A7
:10A0600004E00398818821F40041818003AA04A9B7
:10A070005046FFF787FF0028F3D0822C03D02046FC
:10A0800008B0BDE8F0870020FAE730B50446406B21
:10A0900097B0002570B10B208DF80000208FADF82F
:10A0A0000800606B0391019000216846FBF713FEE6
:10A0B0008DF800504FF6FF7065636087258717B0F5
:10A0C00030BD2DE9F041044686B00E46616B00209C
:10A0D0000C9D174600292AD0012B28D12A4631464B
:10A0E0002046FFF763FF002821D1002F1FD0A04694
:10A0F00034460026ADF8106007270EE0039800886C
:10A10000288003980296811DCDE900178388428834
:10A110000088214600F048FF30B903AA04A9404650
:10A12000FFF730FF0028E9D0822800D1002006B0D8
:10A1300026E72DE9F0411546DDE906644A1D37881A
:10A1400092B2974201D206201AE73280172204F811
:10A15000012B0A46208065801946201D10F074FEF0
:10A1600000200DE700220280C262831D0263C361EA
:10A1700042634FF6FF734387028780F820107047D1
:10A180004FF6FF720280042007F0C3BB30B597B0D2
:10A190000D460446FFF779FF208E48B101208DF867
:10A1A0000000E06ACDE9010500216846FBF793FD58
:10A1B0000020E062206382E70146002009880A0748
:10A1C00000D5012011F0F00F01D040F00200CA05C7
:10A1D00001D540F004008A0501D540F01000490582
:10A1E00001D540F020007047200800202DE9FF4FE6
:10A1F000A7B01F46349E299D379C5FEA000817D000
:10A200002878410610D400F03F011E290AD0218889
:10A2100011F4FE6F0CD13A88172A09D3A1F57F42B9
:10A22000FF3A05D0010606D500F03F00122802D003
:10A2300004202BB06BE6FE4928984FF00009087205
:10A240008DF810908DF834900DAA0A60359A4A6006
:10A25000ADF81490ADF890902878032200F03F03F9
:10A260008646711C04F1180CCB464FF0040AA8F185
:10A270000500CDF898C01F2B7DD2DFE803F07C7C71
:10A28000107C1C7C867CEF7CEE7CED7CEC7CEF7C97
:10A29000EB7C7C7CEA7CE97C7C7C7C7CE800B8F113
:10A2A000030F02D08DF810A0EFE232701720A6F84D
:10A2B00001003A80BEE2B8F1050FF3D1B5F8010014
:10A2C0002083ADF81400B5F80310618300287DD019
:10A2D00088427BD884F808B0A4F806B04FF6FF7027
:10A2E0006084269800F0E4FF05203070B01C0090D8
:10A2F0004FF0020A08AA2899269800F0DCFF0028EF
:10A300007ED19DF82600012803D002207070102015
:10A3100002E00120707002208346002201A909A8F2
:10A3200005F06FF830BB9DF80400834522D13A88D0
:10A33000801CA2EB0A0181421CDB0098BDF82210B0
:10A340000AF1020A0180009909A8891C0A460091B5
:10A3500001A905F056F89DF80400009908AA0144E7
:10A3600050441FFA80FA00912899269800F0A3FF24
:10A370000028D2D000E069E2BAF1020F40D0A7F87D
:10A3800000A057E28DF8100054E2B8F1070F89D30E
:10A39000B5F801002083ADF81400B5F8031061830F
:10A3A000A0B1884212D84FF0010A84F808A0B5F88D
:10A3B0000500E08000202073E06900F011FD90B9F5
:10A3C000E16981F806A04FF4205100E078E0E269ED
:10A3D00042F601009180E16981F80AA0E1690881F3
:10A3E000E16900208873A8F107006084E81D6062BD
:10A3F000269800F05DFF0720307006F1010A00E0AA
:10A400006FE000204FF0010BADF8220018E000BF14
:10A41000BBF1010F0CD0E069807901281FD03AF818
:10A42000021C00BF0BF102002AF8021B1FFA80FB7E
:10A43000BDF822100BF102002AF8021B1FFA80FB64
:10A4400008AA2899269800F036FF58B10FE0DAE103
:10A450006BE10AE1AEE0D2E17BE05AE01EE0BDF83C
:10A460002010DFE73988A1EB0B000428D0DABBF11C
:10A47000010F36D0E069807901280CD0BDF820109A
:10A48000A1F57F40FF3806D03AF8021CAAF8001068
:10A490000BF10200B1E1BDF82010F7E7B8F1070FAA
:10A4A00003D0B8F1150F7FF4FDAEB5F8011021838C
:10A4B000ADF81410B5F80320628309B1914201D9B7
:10A4C00001205FE701212172A4F806B084F80CB0E6
:10A4D000B8F1050F07D0C0B2691DE26904F072FF40
:10A4E00008B10A204EE74FF6FF70608404A824A943
:10A4F000CDE90010CDE902762878002300F03F0274
:10A5000020462899FFF730FC8146208BADF81400D7
:10A5100090E1B8F1030FC6D14020ADF89000B5F836
:10A5200001002083ADF81400289ACDE900210AAB80
:10A53000029339880022491E8BB294F8201000F053
:10A5400024FF8DF8100058BB0B203070BDF8280098
:10A550002EE0B8F1050FA6D18020ADF89000B5F837
:10A5600001002083B5F803206284ADF81400B2F531
:10A57000007F01D9072005E742F47C426284289BD2
:10A58000CDE900310DF12C0CCDF808C03988491EF9
:10A590008BB294F8201000F0F8FE8DF8100018B17E
:10A5A0008328B5D10220BEE00D203070BDF82C000C
:10A5B000401C22E14FEADE1000EB400002EB80007D
:10A5C000404505D95FEA4E607FF56CAE584614E110
:10A5D000B5F801C0ADF814C02978490608D50521A1
:10A5E0008DF834102978090605D58DF834B031E19D
:10A5F00006218DF83410E91C289BA8EB000ACDE950
:10A600000013CDF808B009911FFA8AF394F82010CE
:10A610000022604600F0C8FC8DF810008DF834B0C0
:10A620002978490610D52088C00509D5208B01E07E
:10A6300020080020BDF81410884201D1C4F824B0CD
:10A6400058468DF810B0D8E0832801D14FF00209A8
:10A650004FF48070ADF89000BDF814002083A4F88A
:10A6600022A0099860621320C5E0B8F1050FFFF43D
:10A6700019AEB5F801C0ADF814C0218F41B3A1F5F2
:10A680007F42FE3A24D007218DF83410289A6B1DA2
:10A69000CDE9003280B2CDF808B040F40043DA468C
:10A6A000B5F8032094F82010604600F07DFC4FF4CC
:10A6B00000718DF810008DF834A0ADF8901083284B
:10A6C00010D0E8B1218FA1F57F40FE3807D0DCE043
:10A6D0000A218DF834104FF6FE712187D6E7A4F8D1
:10A6E00038A0A7E02A4641462046FFF714FC8DF823
:10A6F000100008B1832848D1BDF81400208351E729
:10A700002A4641462046FFF706FC8DF81000E0BBC4
:10A71000618F606BCDE9007643185A88998833F8C9
:10A72000060BFFF706FD814684E095F801A0B8F11D
:10A73000020F7CD15FEA0A0002D0BAF1010F76D194
:10A7400008208DF8340005A800908DF838A094F802
:10A750002010534600222046FFF7B3FC8DF8390045
:10A760008DF83AB050B9BAF1010F12D0BAF1000F1A
:10A7700004D1218FA1F57F40FF380AD0208F40B14E
:10A780008DF834B04FF4806000E053E0ADF89000F5
:10A790000DE00DA83599FBF79EFA81464FF48060D5
:10A7A0008DF834B0ADF89000B9F1020F06D0FD4835
:10A7B0000068807928B18DF8100043E0A4F818A053
:10A7C00038E0B9F1000F03D081208DF8100043E08C
:10A7D00005A8009094F82010534601222046FFF768
:10A7E00070FC8DF8100020463699FFF74EFC9DF85E
:10A7F0001000F8B919203070012038801AE00620C6
:10A800008DF8100041E02078000723D5B8F1010F42
:10A8100020D109208DF83400A088ADF8380004203C
:10A82000369907F076F80820ADF8900000E011E0C6
:10A83000A7F800B09DF8340020B10DA83599FBF7BA
:10A840004AFA8146B9F1000F1CD005E05FEA4E607C
:10A850007FF528AD4FF004092088BDF8901008431B
:10A860002080BDF8900080050AD5218FA1F57F409A
:10A87000FE3805D12998E062A4F830804FF0030932
:10A880004846D6E49DF8100058B101203070287871
:10A890007070BDF8140070809DF8100030710520B4
:10A8A00038802088BDF8901088432080E8E72DE9A3
:10A8B000FF4F0178A5B080464FF0010B0BFA01F075
:10A8C0004FF60901349C0840ADF86C0021884FF028
:10A8D0000009A1F57F42FF3A02D028B1080703D54D
:10A8E000012029B0BDE8F08F289F4FF0000A04A88E
:10A8F00087F800A02799269A55460988ADF87C105C
:10A90000A8498DF868A00A728DF810A008603298E6
:10A91000486098F80000012830D0022809D00328A8
:10A9200076D1387820F03F001D303870B8F8040038
:10A93000A08098F80000022804D1387820F03F0069
:10A940001B30387021AAF91C07208DE80700BDF8DC
:10A950007C0094F82010C01E83B2B8F804000022D6
:10A9600000F013FD0028DBD1B8F80400A7F80100BF
:10A97000BDF88400C01CADF87C005FE198F80510BC
:10A980008DF8681098F804004FF40079012802D07F
:10A990000228C5D133E1208808F1080600F4FE60E2
:10A9A000ADF86C0010F0F00F1BD010F0C00F05D008
:10A9B0003088228B904201D005257DE189B9B0789D
:10A9C000C0070ED0B2680720CDE90020CDF808A05E
:10A9D000F388B28894F82010308800F0E5FA002857
:10A9E0006FD12899BDF86C00491C802845D006DC41
:10A9F00010280ED020280CD0402891D122E0B0F5AC
:10AA0000807F5FD048457DD0B0F5806F88D1CBE0A6
:10AA100029E1C00601D5082000E01020814604206D
:10AA2000ADF814A01BAA8DF8100000921FA81AA957
:10AA30000397CDE9011033884A4607212046FFF7E6
:10AA400093F992E09DF868004FF00A09002894D12C
:10AA500021AA07208DE80700BDF87C0094F820109B
:10AA6000401E83B2208B002200F08FFC8DF868001E
:10AA70000B203870BDF8840019E09DF868004FF095
:10AA80000C0900281CD123AA07208DE80700BDF877
:10AA90007C00628C401E83B294F82010208B00F062
:10AAA00074FC8DF868000D203870BDF88C00401CD7
:10AAB000ADF87C0004208DF81000208BADF8140058
:10AAC000BCE057E03188208B814253D19DF868105B
:10AAD0004FF01209002918D1616A81B1B178C90714
:10AAE00048D0B3680722CDE90032CDF808A0F3883A
:10AAF000B28894F8201000F057FA8DF868001320FF
:10AB0000387000E002E0ADF87CB097E0B6F800C025
:10AB1000208B84452ED19DF868004FF0160900283F
:10AB2000606B08D0E0B34FF6FF7000215646ADF8D9
:10AB300008A0019027E060B1B178C9071AD1618FF0
:10AB400043181FA8CDE900075A88998833F8060BE7
:10AB500009E0B078C0070DD01FA8CDE90007B28882
:10AB6000F1886046B368FFF7E4FA050066D0062D69
:10AB70007AD03FE005253DE0019021AA02A92046B8
:10AB8000FFF700FA0146628FBDF80800824201D04B
:10AB90000029F1D0608F616B0844068001986087BE
:10ABA0004CE00000200800209DF868004FF01809D4
:10ABB00040B1208BC8B13088208320463399FFF7FD
:10ABC00064FA3BE004F118000090237E94F8201012
:10ABD00001222046FFF775FA8DF868000028ECD1B5
:10ABE00019203870ADF87CB0E7E705252046339989
:10ABF000FFF74BFA9DF81000032857D05CE020883F
:10AC000000F40070ADF86C0048452CD1208FA0F501
:10AC10007F41FE397FF4D0AED8F808004FF0160916
:10AC200048B16063B8F80C1021874FF6FF71618757
:10AC3000A0F800A002E04FF6FF702087BDF86C007E
:10AC400030F4FE6116D0782300220420339906F0F8
:10AC5000C3FD98F80000A0702088BDF86C10084370
:10AC600020800AE000E006252088BDF86C108843AB
:10AC7000208021E02188814321809DF8100028B1A7
:10AC80005F48416804A8FBF726F805469DF8680070
:10AC900090B187F8019087F800B0208B78809DF8FC
:10ACA000680038710520ADF87C0005E05448416823
:10ACB00004A8FBF710F80546208810F4FE6F22D197
:10ACC000208E00B32799289B01AD0988ADF87C1030
:10ACD000DDE93212009385E816001FABE26A26997F
:10ACE000FFF784FA054603280DD08DF810B0E06A0E
:10ACF000059033980690002104A8FAF7ECFF00B104
:10AD00000546A4F830A02798BDF87C10018028469D
:10AD1000E7E500B597B0042807D102208DF80000C0
:10AD2000019100216846FAF7D6FF17B000BD70B553
:10AD3000334C037800222168012B02D0022B44D12E
:10AD400029E00B780BB1042B03D10A71226803218F
:10AD500011702168062582880B7905EBC303CA525E
:10AD6000216808230A250A7903EBC2021144C2882C
:10AD70000A80216802890B7905EBC303CA52418915
:10AD800020680C23027903EBC2028152206801790A
:10AD9000491C01711DE00A7482888A802168C2887A
:10ADA000CA80226801891181226841895181C16864
:10ADB0002068C1606168FAF78EFF0146022806D05C
:10ADC0002068007C002801D119B1812070BD83204A
:10ADD00070BD002070BD406B002800D0012070477E
:10ADE0008178012909D10088B0F5205F03D042F6AF
:10ADF0000101884201D10020704706207047000001
:10AE00002008002010B58B7883B102789A4205D1D2
:10AE10000B885BB102E08B79091D4BB18B789A42AC
:10AE2000F9D1B0F801300C88A342F4D1002010BD54
:10AE3000812010BD07282BD012B1012A2CD103E0AC
:10AE4000497801F0070102E04978C1F3C201052900
:10AE500022D2DFE801F0031D081017000AB1032019
:10AE6000704702207047042812D0052810D0062809
:10AE70000ED058B10EE005280AD0062808D00228C6
:10AE800008D003E0062803D0032803D0052070472C
:10AE9000002070470F2070478120704710B513883D
:10AEA0000B800B781C061FD5FE4CA47A844204D874
:10AEB00043F010000870002010BD94682478C4404E
:10AEC00064F304130B701378D17803F0030341EAA1
:10AED000032140F20123B1FBF3F403FB1411926848
:10AEE00000FB0120401C10BD906810BD37B5BDF8B7
:10AEF000041011809DF8045029061BD5E94901234F
:10AF00009468897A814209D8FE280FD1E80602D5D3
:10AF10008B405B1E00E00023237007E02178834014
:10AF20009943C5F30013834019432170107820F032
:10AF3000100010703EBD2DE9F0410746C81C0E46BA
:10AF400020F00300B04202D08620BDE8F081082A3C
:10AF500001D90E20F9E7D34D002034462E60AF8092
:10AF60002881AA72E8801AE0E988491CE9808106F4
:10AF700014D4E17800F0030041EA002040F20121FE
:10AF8000B0FBF1F201FB1201206800F0E3FA29891D
:10AF9000084480B22881381A3044A0600C342078EC
:10AFA0004107E1D40020D0E72DE9FF4F85B01546D9
:10AFB000DDE912B68046994623F4404700F0BAFA1C
:10AFC00004000BD0207800060AD5B648817A06988E
:10AFD000814205D8872009B0BDE8F08F0120FAE74B
:10AFE000224669460698FFF759FF824600208DF8F1
:10AFF0000400072E18D0012221463046FFF71AFF21
:10B000000028E8D1207840060ED502208DF80400F3
:10B01000ADF80880BDF80000ADF80C50ADF80A009E
:10B02000ADF80E70CDF810B05FEA094004D50027E6
:10B030003D46B84601260CE02178E07801F0030196
:10B0400040EA012040F20121B0FBF1F2804601FB11
:10B0500012865FEA494009D5B04507D1A178207929
:10B0600001F0030140EA0120A84201D3B54201D911
:10B070000720B0E778191FFA80F9B14501D90D20F2
:10B08000A9E79DF8040020B101A8FAF722FE0028E4
:10B09000A1D1B04507D1A0784FEA192161F3010091
:10B0A000A07084F80490149800B10780BBF1000FE1
:10B0B00015D00AEB05003A4659460FF0C5FE224668
:10B0C00069460698FFF7EAFE9DF80000224620F048
:10B0D00010008DF8000000990698FFF707FF002088
:10B0E00079E72DE9FF4FDFF8BC9182461746B9F8A2
:10B0F0000610D9F8000001EB410100EB810440F299
:10B100000120B2FBF0F183B000FB11764D46DDF873
:10B1100044803146049800F01DFA29682A898B463C
:10B12000611A0C3101441144AB8889B28B4202D8B8
:10B13000842007B050E70499CDB2290603D5A906AB
:10B1400001D58520F5E7B9F806C00CF1010C1FFA0E
:10B150008CFCA9F806C0129909B1A1F800C0A90693
:10B1600002D5C4F8088007E0104480B2A9F80800AE
:10B17000191A01EB0B00A0602246FE200499FFF78C
:10B18000B5FEE77026712078390A61F30100320AB2
:10B19000A17840F0040062F30101A17020709AF8D8
:10B1A00002006071BAF80000E080002626732806CD
:10B1B00002D599F80A7000E00127A80601D54FF0E2
:10B1C00000084D4600244FF007090DE0CDF800803F
:10B1D000CDE90196E8882146109B069AFFF7E4FE28
:10B1E0000028A6D1641CE4B2BC42EFD30020A0E743
:10B1F0002DE9F047804600F09DF9070005D00026B4
:10B200004446284D40F2012916E00120BDE8F087B0
:10B21000204600F08FF90278C17802F0030241EA7B
:10B220000222B2FBF9F309FB1321006800F092F946
:10B230003044641C86B2A4B2E988601E8142E7DC17
:10B24000A8F10100E8802889801B2881002038703F
:10B25000DCE720B1401E1080917000207047012073
:10B26000704710B50F4904460088CA88904201D340
:10B27000822010BD096800EB400001EB800250798C
:10B28000A072D08820819178107901F0030140EA02
:10B290000120A081A078E11CFFF700FE206120883A
:10B2A000401C01E02C0800202080E080002010BD20
:10B2B0000121018270472DE9FC474FF6FF780546D2
:10B2C000A2F80080406817468A4680788DF8020010
:10B2D00068680088ADF8000000208DF80600288A14
:10B2E0002C88A04200D304462C822DE0288A401CE2
:10B2F0002882701D6968FFF785FD18BB39884145B4
:10B3000001D1601E38806888A04222D3B17830799C
:10B3100001F0030140EA01296946701DFFF772FD43
:10B3200080B96989414519D0002231465046FFF75E
:10B3300081FD38B96A894A4504D1E968B0680FF0DF
:10B3400057FD58B1641CA4B2204600F0F3F8060083
:10B35000CCD1641E2C828220BDE8FC877C80707971
:10B36000B871F088B8803178F07801F0030140EAD4
:10B3700001207881A7F80C90287A324607F108015D
:10B38000FFF78CFD38610020E6E72DE9F04F85B02E
:10B390001D4690460F468346DDF838A0DDF8409004
:10B3A00000F0C8F8040009D02078000608D57148DC
:10B3B000807AB84204D8872005B00DE60120FBE76B
:10B3C000C8F30906224669463846FFF767FD074677
:10B3D0005046BAF1070F1AD000222146FFF72AFD86
:10B3E0000028E9D12078400611D501208DF804000D
:10B3F000ADF808B0BDF80000ADF80A00ADF80C607B
:10B40000ADF80E5001A8FAF764FC0028D4D12178D9
:10B41000E07801F0030140EA0121A278207902F0EE
:10B42000030240EA0220464507D0B1F5007F04D967
:10B43000691E814201DD0B20BEE7864201D907204B
:10B44000BAE7801B82B2AA4200D92A46B9F1000F9E
:10B4500001D0A9F800200F9810B1B9190FF0F4FC31
:10B460000020A9E72DE9F0411D4617460E4600F0E1
:10B4700061F8040008D02078000607D53D48807A9E
:10B48000B04203D8872060E501205EE522463946B8
:10B490003046FFF703FD65B12178E07801F0030144
:10B4A00040EA0120B0F5007F01D8012000E0002033
:10B4B0002870002049E52DE9F0411D4617460E464B
:10B4C00000F038F8040008D02078000607D5294895
:10B4D000807AB04203D8872037E5012035E522463F
:10B4E00039463046FFF702FDFF2D14D02178E07871
:10B4F00001F0030240EA022040F20122B0FBF2F325
:10B5000002FB130015B900F2012080B2E070000ABE
:10B5100060F301012170002017E510B50C4600F022
:10B5200009F828B1C18821804079A070002010BDA1
:10B53000012010BD0F49CA88824209D340B1096871
:10B5400000EB40006FF00B0202EB800008447047F4
:10B5500000207047C0B2820609D4000605D5054810
:10B56000807A4843401C80B27047084670470020EC
:10B57000704700002C08002010B506F089FB05F08C
:10B5800024FEFBF721FF0EF057FB06F081FABDE821
:10B59000104006F00DBB10B50C4601F0C1FC80B3A5
:10B5A000204600F0ACFA68B322780E2A09D00F2AA0
:10B5B00007D0022A05D0032A03D0102A2ED0FFDF9D
:10B5C0001DE0A0781E282BD00FDC0C2824D008DC2E
:10B5D000092825D2DFE800F013241724241E1E1AA0
:10B5E0001C0012281CD1072010BD302818DDA0F146
:10B5F0003A00032814D2DFE800F011130B000020FA
:10B6000010BD11E00EE043F20200F9E70420F7E775
:10B610000D20F5E70F20F3E70820F1E71120EFE711
:10B620000320EDE7FFDFEAE7FFDFE8E700F067BAB6
:10B6300070B50346002002466FF02F050EE09C5CBB
:10B64000A4F130060A2E02D34FF0FF3070BD00EB9C
:10B65000800005EB4000521C2044D2B28A42EED357
:10B6600070BD30B50A240AE0B0FBF4F304FB13000C
:10B670008D18303005F8010C521E1846D2B2002A3F
:10B68000F2D130BD30B500234FF6FF7510E0040A4B
:10B6900044EA002084B2C85C6040C0F303146040F8
:10B6A00005EA00344440E0B25B1C84EA40109BB2DF
:10B6B0009342ECD330BD000010B509F0D8FB04284C
:10B6C00003D009F0D4FB052802D108F0D2F950B913
:10B6D00009F05AFC032803D009F05CFC032804D1CC
:10B6E00007F0ACFA08B1012010BD002010BD70B504
:10B6F0000C460546062102F092F9606008B1002070
:10B7000006E00721284602F08AF9606018B101209E
:10B710002070002070BD022070BD2DE9FC470C4652
:10B7200006466946FFF7E3FF00287DD19DF800003B
:10B7300058B107F0E5F9B0427ED0002221463046EC
:10B740000BF0F1FC002874D116E007F040FFB04286
:10B7500072D00022214630460BF0D8F8002868D17C
:10B76000019D95F89800303518B9687E08B1012020
:10B7700000E00020804603E0019D95F849803035C7
:10B780004FF0010A95F82D004FF00009A0B195F88F
:10B790002E00800710D584F8019084F800A084F86A
:10B7A0000290A68095F82F10A171298E2181698EB3
:10B7B000618185F82D903CE0304602F0A8FA070040
:10B7C00000D1FFDF384601F049FD10F0FF0008D03E
:10B7D00084F801900D212170A680E08084F802A0F9
:10B7E00027E0304602F081FA070000D1FFDFB8F110
:10B7F000000F21D0384601F0BCFDA8B19DF8000033
:10B8000038B90198D0F8BC004188B14201D180F824
:10B810000090304607F0D9F884F801900A21217091
:10B8200084F80290A68000E006E0A97EA17185F868
:10B8300019900120BDE8FC870020FBE71CB5694694
:10B84000FFF755FF00B1FFDF684601F0B1FBFD498E
:10B8500000208968A1F89A001CBD2DE9FC4104462E
:10B860000E46062002F086F80546072002F082F810
:10B870002844C7B20025A8463E4417E02088401C53
:10B8800080B22080B04202D34046A4F8008080B24B
:10B89000B84204D3B04202D20020BDE8FC81694620
:10B8A000FFF725FF0028F8D06D1CEDB2AE42E5D8B9
:10B8B0004FF6FF7020801220EFE738B54FF6FF708B
:10B8C000ADF800000DE00621BDF8000002F0B9F867
:10B8D00004460721BDF8000002F0B3F80CB100B136
:10B8E000FFDF00216846FFF7B8FF0028EBD038BD26
:10B8F0002DE9F041D4A0D64C06790025076884F8DC
:10B90000425001F04EFB84F8435004202087102061
:10B9100060874FF6FF70A4F80A0184F80C51A4F870
:10B920000E0184F8315004F8EE5BC94804F8C05C9D
:10B9300004F8BA5C8030A57340F87D7FC449067175
:10B94000FD31481E0BF08DF80A202075032060752C
:10B95000A075E0750E20207606206076A076E07651
:10B96000BDE8F0812DE9F041B64C0D4660602170D4
:10B9700007F013F8FFF7A1FFFFF7BAFF207809F0EF
:10B980001CF8B349C431A1F181000F46064607F007
:10B990003FFF60680BF030F820780CF0D1FB2846B0
:10B9A00009F0B9FE3946304607F0E6F860680BF05A
:10B9B00045FC01F0F6FAA649002081F84300CFE7E4
:10B9C00010B501240AB1002010BD21B1012903D016
:10B9D0000024204610BD02210DF09EFBF9E72DE961
:10B9E000F047040000D1FFDF994D002695F83100A3
:10B9F00058B166701020207095F83200A07095F84C
:10BA00003300E07085F831606AE0287840B12C227C
:10BA1000A91C20460FF018FA0E2020702E705FE04F
:10BA200095F82E0060B10120E07095F82F00A0700D
:10BA300095F8300060700F20207085F82E604FE080
:10BA4000844802218246FFF708FF00B1FFDFB5F806
:10BA50000E91062001F08EFF0746072001F08AFFB5
:10BA60003844C7B2781C00F0FF0800BFB5F80E01DB
:10BA7000B84213D10021204607F05CFD58BB95F871
:10BA8000340080B36670132020701C21A01C0FF0BE
:10BA900052FA0220A07085F8346021E040451BD1A5
:10BAA0000021204606F0FEFFE8B12078132817D1C8
:10BAB000A0783C2814D1A088072101F0B0FF050030
:10BAC00000D1FFDF288806F080FFA088072101F061
:10BAD000B8FF00B1FFDF03E02146FFF71EFE10B103
:10BAE0000120BDE8F087FFE702215046FFF7B5FED1
:10BAF00018B9B5F80E114945B8D10020F1E76EE745
:10BB000010B508F0C8FE00B1FFDF0AF073FF00B106
:10BB1000FFDF07F033FE09F0E7FD00B1FFDF0BF0B8
:10BB20008BFB00B1FFDF06F0F5FF00B1FFDF0CF08B
:10BB300001FB00B1FFDFFFF7C0FEFFF7D9FE06F003
:10BB400015FF02F0C1F801F02CFA4148002180F8FD
:10BB500043100171012141710222C270017010BDB8
:10BB600010B53B4C207828B10A21BDE810400E20CA
:10BB700001F0E4B9FFF7A0FD08B10C2002E001F0EC
:10BB800010FA00202071012060710A21E1702070FC
:10BB900010BD70B52E4C0546207828B1BDE8704028
:10BBA00039210E2001F0CAB9FFF786FD08B10C203B
:10BBB00012E094F8430008280DD204EB0010102284
:10BBC0002946443001F0C7F994F84300401C84F83A
:10BBD0004300002000E0072020710120607139211E
:10BBE000E170207070BD70B5194C0546207828B101
:10BBF000BDE870400B210E2001F0A0B9287818B1E3
:10BC0000012801D0122016E094F8C400082823D29D
:10BC1000FFF752FD08B10C200DE00E482B7894F888
:10BC2000C4106A1C463806F018F994F8C400401C89
:10BC300084F8C40000202071012060710B21E170A4
:10BC4000207070BD44000020FFFFFFFF1F000000B8
:10BC500038080020460900200720ECE710B5FE4C0C
:10BC6000207828B13821BDE810400E2001F066B9D7
:10BC7000FFF722FD08B10C2002E0002084F8430009
:10BC80002071012060713821E170207010BDF248F0
:10BC9000017819B10F210E2001F050B90021017176
:10BCA0000E2181700F21C170FF2181714FF6FF714C
:10BCB0000181EA4949680A7882728A8882814988C2
:10BCC000C1810121417101707047E3490A781AB1BD
:10BCD0003B210E2001F032B90088A1F80A010120B1
:10BCE00081F80C0100220A7148713B22CA70087069
:10BCF000704710B5D84C207828B12B21BDE81040F2
:10BD00000E2001F01BB90821A01D05F0F7FA002054
:10BD10002071012060712B21E170207010BD70B581
:10BD2000CD4C217829B1BDE8704031210E2001F0C1
:10BD300005B990F90000042814D098B1011D11D064
:10BD400010F1080F0ED010F10C0F0BD010F1100FE6
:10BD500008D010F1140F05D010F1280F02D01220D6
:10BD6000207103E0002506F0B9F825713120E0705C
:10BD700001206071207064E730B5B74D04468DB086
:10BD8000287828B12A210E2001F0D8F80DB030BD56
:10BD900010222146684601F0DEF8102204F110015D
:10BDA00004A801F0D8F868460DF0E0FF10222C46F8
:10BDB000A81D08A901F0CFF8002020710E20A07066
:10BDC0002A20E070012060712070DFE72DE9FF413B
:10BDD000A14C207828B13A210E2001F0AFF8BDE83F
:10BDE000FF814FF0000884F80680B4F80A01ADF82E
:10BDF000040002A9FFF77BFC20B1002101A8FFF796
:10BE00002CFDE8BBBDF80400ADF8000002A980B22B
:10BE1000FFF76DFC00B1FFDFBDF8000001F077FF18
:10BE2000050000D1FFDF2846039F01F0A9FA80F04A
:10BE3000010697F84950BDF8000001F056FF0700D1
:10BE400000D1FFDF384601F094FA80F0010255EA94
:10BE5000020019D0A179BDF8000004EB410108816E
:10BE60007D49A3791831585C65F300005854A379D3
:10BE700062F341005854A27966F38200505400E006
:10BE80000DE0A079401CA07100216846FFF7E5FC99
:10BE900028B9BDF80000BDF804108842B6D10120D1
:10BEA00084F8048060713A21E170207097E770B5E2
:10BEB000694C0546207828B1BDE8704034210E2039
:10BEC00001F03CB808F0D3FF052804D0284608F05C
:10BED00061FD002000E00C20207101206071342100
:10BEE000E1702070ADE65C48017819B10E2108467A
:10BEF00001F024B85949CA68C0F80620098A41816E
:10BF000000210171012141710E22C2700170704740
:10BF100070B5514C0646251D207828B1BDE870400B
:10BF200032210E2001F00AB83146002006F00CFF45
:10BF3000287058B900213246084607F051FD287094
:10BF400020B946483168C160B18801820120607122
:10BF50003221E170207074E670B53F4C05462078C0
:10BF600028B1BDE8704030210E2000F0E7BF08F096
:10BF7000C4FD10B909F05CFE68B1287809F02CFC0A
:10BF8000287807F0A5FD0020207101206071302184
:10BF9000E170207055E60C20F6E72DE9F0412E4CBB
:10BFA0000646251D207828B1BDE8F04117210E2056
:10BFB00000F0C4BF3146012006F0C6FE28700127FC
:10BFC00068B932460121002007F00AFD287030B917
:10BFD0003068E063B088A4F8400084F8427067716C
:10BFE0001720E0702770BBE438B51B4D0446287855
:10BFF00028B1BDE8384030210E2000F09FBF2279E3
:10C0000061798A4215D0A079E379984211D01F2A2C
:10C010000FD81F290DD8002211460EF055F940B94E
:10C020000022E07911460EF04FF910B9207A072866
:10C0300001D912201BE04FF6FF70ADF8000008F0A8
:10C04000A3FFD8B908F0A6FFC0B908F010FFA8B93F
:10C050000021684604E00000380800204400002069
:10C06000FFF7FBFB50B1204605F030FE00202871A1
:10C07000012068713E21E970287038BD0C20F6E778
:10C080002DE9FC47FE4C054694F82E0028B12821E6
:10C090000F2000F053FFBDE8FC87282084F8300013
:10C0A000012184F82E10A8784FF000091A2825D015
:10C0B0000EDC162831D2DFE800F03030303030218D
:10C0C000303030303030303030303030302121219D
:10C0D0002A2822D00BDCA0F11E000C281DD2DFE89C
:10C0E00000F01C1C1C1C1C1C1C1C1C1C1C0D3A38AD
:10C0F000042812D2DFE800F0110211022888B0F5FE
:10C10000706F0AD21F20884684F82F00288869465D
:10C11000FFF7EDFA18B1022019E0122017E09DF8A0
:10C120000000019F002806D007F1CE07019E05D12F
:10C1300006F1B50604E007F1B407F7E706F1CF060C
:10C14000684600F023FF08B1387818B10C2084F855
:10C150002F00A0E787F80080A878307084F82F902F
:10C16000684600F025FF96E77CB5C54C054620786B
:10C1700020B125210E2000F0E1FE7CBD2888694613
:10C18000FFF7B5FA002168B102202071BC48816038
:10C190000173E1800E20A0702520E0700120607105
:10C1A00020707CBD019A104612F1300282F83610E0
:10C1B0008368A360037B237392F83630002BF5D19C
:10C1C0002888E080E6E72DE9FC41AD4C064694F86E
:10C1D0002E0028B110210F2000F0B0FEBDE8FC8138
:10C1E0001F2084F82F00102084F83000012784F8E5
:10C1F0002E7030886946FFF77AFA70B9684600F009
:10C20000C5FE50B1019D9DF8000030350028019811
:10C2100005D0E230017841B904E0022006E0D0F810
:10C22000BC00F7E795F82D1019B13A2084F82F00DB
:10C23000D4E795F82E1089070CD1042101709DF8E0
:10C24000000020B901993088D1F8BC1048806846B8
:10C2500000F0AEFE002084F82F0085F82D70BDE7B9
:10C260002DE9F047864D0646287828B1BDE8F0470D
:10C270001D210E2000F062BE4FF01F0985F80490CA
:10C28000012068711D21E970287008F0F0FD0C276D
:10C2900004284ED005284CD0B0791224012800D0B3
:10C2A000E8B9307808B1012819D1F07908B101282E
:10C2B00015D1708843F6FD71021F30248A420ED2D8
:10C2C000B288121F8A420AD22887B0886887B0795C
:10C2D0004FF000084446012803D050B111E02C7102
:10C2E0000CE495F8420020B3654A3C32012108462F
:10C2F00002E0644A0021012007F072FB040000D034
:10C30000FFDFF079012800D010B907F091FB044657
:10C3100014B185F80490E3E73078012801D018B112
:10C3200009E00021022001E00021012007F095FB37
:10C3300008B12F71D4E785F80480D1E770B5504C6F
:10C34000217829B1BDE870401E210E2000F0F6BD15
:10C350001F212171012161711E22E270217002787A
:10C360001221012A00D01AB9407818B1012801D051
:10C37000217166E400260C25012A08D008F077FD1B
:10C38000052802D008F034FA30B1257159E4618FE4
:10C39000208F08F0BFFBF7E7267152E42DE9FE4F2E
:10C3A0000546AFF25C71D1E90001354E01908A4635
:10C3B00096F82E0030B103B02121BDE8F04F0F20D8
:10C3C00000F0BCBD1F2086F82F00212086F8300029
:10C3D0004FF0010886F82E80298843F6FD730A1F66
:10C3E00030209A427ED26A88141F9C42FAD28A4236
:10C3F00078D8EA8940F67B43911F9942F2D2298A84
:10C400008C1F9C42EED28A42F2D86A8AB2F5FA7F39
:10C41000E8D2AA8A40F67744A2F10A03A342E1D205
:10C42000B2EBD10F5ED9E98A2A8B9142E0D8297903
:10C43000122011B1012955D102E069790029F9D101
:10C44000297B09B10129F6D108F011FD4FF00C0943
:10C4500005286ED008F00BFD0428FAD096F83400B9
:10C46000002866D107F0B3F8A0F57F41FF39F8D175
:10C47000062102A801F0A4FA040050D0032103E031
:10C4800038080020500000200CF034FB96F803011F
:10C4900000901B2296F802312088114601F070FBB3
:10C4A00004283ED000B1FFDF208806F08DFA04F1A9
:10C4B0000D07B4F800B00421384604F01FFF5946B8
:10C4C00038460CF00CFCFDA03F1D006800900321D5
:10C4D000684604F09EFE002069460A5C3A54401CFF
:10C4E000C0B200E06FE00328F7D3288A6080688A32
:10C4F000A080A88AE08096F8051196F8040108F05B
:10C50000C8FA0146204608F0F0FA002784F8367091
:10C5100084F83770687968B101280FD10CE00920E0
:10C5200051E02088062101F08CFA00B1FFDF0720DE
:10C5300049E071E0677601E084F81980D5F80600DB
:10C54000C4F81A006889E0830198A06084F80CA000
:10C5500084F8C4808DF800700121684604F059FE0B
:10C560009DF8000000F00701C0F3C1021144C0F3C0
:10C57000401008448DF80000401D2076092801D2A3
:10C5800008302076002120460CF0B4FA287B18B140
:10C59000012805D0FFDF24E00021C94A012005E081
:10C5A00096F8420098B10121C64A084607F018FAE9
:10C5B000B8B1208806F009FA2088062101F041FA76
:10C5C00000B1FFDF1F2086F82F00BDE8FE8F208816
:10C5D00006F0FBF92088062101F033FAE0B1FFDF15
:10C5E0001AE02879012800D010B907F021FA50B9D3
:10C5F0002146032007F031FA28B96A8829882046A5
:10C6000008F005FA58B1208806F0DFF920880621E5
:10C6100001F017FA00B1FFDF86F82F90D5E784F814
:10C62000B87086F82F70D0E738B5A64C3C3C20781F
:10C6300020B122210E2000F081FC38BD1F20207186
:10C64000012565712220E070257008F010FC052896
:10C6500002D00C20207138BD00202071684608F0FF
:10C6600090FA0028F7D10098008806F0AEF90098FB
:10C670000621008801F0E5F900B1FFDF904884F859
:10C6800034500C380078FCF78DFF38BD2DE9F041AF
:10C690008C4D04463C3D95F82E0028B1BDE8F04194
:10C6A00023210F2000F04ABC1F2085F82F002320F3
:10C6B00085F83000012085F82E00618840F67B4324
:10C6C0008A1F30209A4251D2A288961F9E424DD294
:10C6D00091424BD8E188B1F5FA7F47D2218940F6E3
:10C6E0007746A1F10A03B34240D2B1EBD20F3DD954
:10C6F0006189A289914239D84FF00008208806212B
:10C7000001F08DF906004FF0020707D000F030FC71
:10C7100020B1D6F8BC00017839B902E085F82F7055
:10C7200061E4D6F8D010097809B13A201EE005215D
:10C730008171D6F8BC004146A0F80880D6F8BC202C
:10C74000A0885081D6F8BC20E0889081D6F8BC2023
:10C750002089D081D6F8BC00028943899A4204D846
:10C760008279082A01D89A4203D3122085F82F0033
:10C7700039E422884280D6F8BC00077085F82F1073
:10C7800031E42DE9FE434F4C06463C3C207830B165
:10C7900003B02421BDE8F0430E2000F0CFBB0125FB
:10C7A00065712420E070257030460CF0BAFA08B1AB
:10C7B000002000E01220207100282DD1414884F88B
:10C7C000FC504430316840F87D1F317901714FF0E1
:10C7D000000884F8FC806946062001F0ACF800B13E
:10C7E000FFDF684601F085F8A0B9BDF8047000BF0E
:10C7F000BDF80400062101F012F9060000D1FFDFA8
:10C8000086F8C450684601F074F818B9BDF8040001
:10C81000B842EDD184F80480BDE8FE8370B5294D9F
:10C8200006463C3D95F82E0028B1BDE87040262113
:10C830000F2000F083BB1F2085F82F00262085F8ED
:10C840003000012085F82E003088062101F0E7F83D
:10C85000040007D000F08CFB20B1D4F8BC000178B4
:10C8600031B901E002200CE0D4F8D010097809B108
:10C870003A2006E005210170D4F8BC1030884880C9
:10C88000002085F82F0074E50E483C38017819B176
:10C8900006210E2000F052BB002101710E22827091
:10C8A0000622C270C0F80610C0F80A10817941F063
:10C8B0000101817101214171017070471122330022
:10C8C000500000207408002070B5F84E054696F818
:10C8D0002E0028B1BDE870402C210F2000F02EBBA7
:10C8E0001F2086F82F002C2086F83000012086F8C3
:10C8F0002E002888062101F092F8040007D000F0ED
:10C9000037FB20B1D4F8BC00017831B901E0022036
:10C9100020E0D4F8D010097809B13A201AE094F850
:10C920006410D1B1D5F802104160D5F806108160CD
:10C9300054F8BC0F698910228181206805F10C012F
:10C940000E300EF081FA21680320087021682888D3
:10C950004880002086F82F000BE50C20FAE770B520
:10C96000D24E04460C25307828B1BDE8704018211D
:10C970000E2000F0E3BA08F007FB032852D008F0BD
:10C9800009FB03284ED0607908B1012829D1A0798C
:10C9900008B1012825D1A07B28B1012803D00228A5
:10C9A00001D003281DD1607BD8B1C00819D162889D
:10C9B0004FF48040824202D82188814203D92079F5
:10C9C00001280ED118E0207930B1012814D00228B6
:10C9D00005D0032805D102E0202A0BD30CE0A029C2
:10C9E0000AD22079042805D12088202802D3618822
:10C9F000884201D9122515E0207986F83600607941
:10CA000010B1012804D00DE0A94A0021204606E01B
:10CA100096F8420030B1A54A01213C32204606F08A
:10CA200014F905460120357170711821F1703070CC
:10CA30009FE410B59D4C217829B11A21BDE8104022
:10CA40000E2000F07BBA01781F2902D91220207134
:10CA500006E0002121710278411C104606F0A6F97B
:10CA6000012060711A21E170207010BD10B58F4C4B
:10CA7000217829B12021BDE810400E2000F05EBAD7
:10CA800001781F2902D91220207106E000212171AE
:10CA90000278411C104606F078F9012060712021CF
:10CAA000E170207010BD2DE9FC41804C217829B146
:10CAB000BDE8FC411B210E2000F040BA0127677140
:10CAC0000C21217100780026012803D000286AD0AB
:10CAD00012205CE006F083F800287ED094F836003F
:10CAE000A0B1012812D0042810D008F053FA002871
:10CAF00073D108F049FA18B108F046FA02286CD14F
:10CB0000002008F06CFEE0B3FFDF4AE008F03CFADA
:10CB1000002862D108F03EFA00285ED105F0F0FF4F
:10CB2000A0F57F41FF3958D1072101A800F048FF47
:10CB30005F4905460C398860280000D1FFDF0321DA
:10CB400028460BF025FF284606F0FAF994F809115B
:10CB500094F8080108F021FA0146284608F049FA3D
:10CB600094F8070100901B2294F80631288811469A
:10CB700001F006F868B1042800D0FFDF28880721FB
:10CB800000E00EE000F05DFF00B1FFDF0720207144
:10CB900023E0288805F018FF284608F020FE00B1A1
:10CBA000FFDF267119E008F0EFF9032803D008F041
:10CBB000F1F9032811D108F0EAF90546002008F040
:10CBC0001FFD50B9267145B1288805F0FEFE288862
:10CBD000072100F036FF00B1FFDF1B20E070277057
:10CBE000BDE8FC812DE9F041304C0646207828B1A3
:10CBF000BDE8F0412D210E2000F0A0B930880721BA
:10CC000000F00DFF05004FF0010720D095F8D1008E
:10CC100040B995F83C000F2801D0102802D195F8B2
:10CC2000040150B10C2020710E20A0702D20E07066
:10CC30003088E0806771277072E51022B11C05F121
:10CC4000D2000EF001F985F8D1700020EBE7022048
:10CC5000E9E770B5154C0546207828B1BDE870406D
:10CC60002E210E2000F06AB92888072100F0D7FE97
:10CC7000022178B190F8D1202AB990F83C200F2AEF
:10CC800004D0102A02D00C20207104E080F8D110CA
:10CC90000020F9E721710E20A0702E20E070288876
:10CCA000E080012060712070EDE500003808002070
:10CCB000500000207CB5C54C0546207820B13721B6
:10CCC0000E2000F03BF97CBD28886946FEF70FFD79
:10CCD00038B102202071012060713721E17020708D
:10CCE0007CBD01987F22014680F8382080F83920E9
:10CCF000002280F83A20A87801F8280FE8784870D8
:10CD0000287988702271E6E71CB5B04C217821B1F2
:10CD100013210E2000F012F91CBD00886946FEF7B1
:10CD2000E6FC08B1022005E0019890F828100129DE
:10CD300002D00C20207106E0382100222271095C0B
:10CD400021720088E080012060711321E1700E21C2
:10CD5000A17020701CBD2DE9F0419C4C0546207847
:10CD600028B1BDE8F04135210E2000F0E7B8A878E1
:10CD700008B1012803D1A888B0F5FA7F01D91220A3
:10CD800020712888072100F04AFE0126A0B1002763
:10CD900080F8C870A988A0F8CA1080F8A460A978A3
:10CDA000012900D0002180F8C81090F8A50008B132
:10CDB00008F014FE277101E0022020716671352011
:10CDC000E0702670ACE42DE9F041804C05462078F7
:10CDD00028B1BDE8F0413C210E2000F0AFB8288812
:10CDE000072100F01CFE012358B382886D88C68895
:10CDF000418803EB4207BD4217D342F210777E43CE
:10CE0000BF107943B6FBF1F1491E89B24FF4FA76AF
:10CE1000B14200D931468D4200D22946491C521CEC
:10CE2000B1FBF2F15143491E8AB290F8F01001B9FA
:10CE30000284E2800020207163713C20E070237046
:10CE40006EE40220F7E770B5604C0546207828B103
:10CE5000BDE8704033210E2000F070B808F094F85F
:10CE600008B10C2017E0297889B10A290FD01429BC
:10CE70000DD01E290BD0282909D0322907D04B29E3
:10CE800005D0642903D0FF2901D0122003E02846F1
:10CE900008F047FD00202071012060713321E1700E
:10CEA0002070F0E449490A781AB13F210E2000F0C1
:10CEB00045B800220A710278454B4AB1012A0CD0CC
:10CEC00012200871012048713F22CA700870F4E4F2
:10CED000D0F80100C3F80200F4E7D0F80100C3F86D
:10CEE0000600EFE770B5394C0546207828B1BDE85B
:10CEF00070403D210E2000F021B808F045F810B92F
:10CF000008F048F808B10C2003E0287805F05EFF2F
:10CF100000202071012060713D21E1702070B2E499
:10CF200010B50178402907D22A4A52F8211019B1C8
:10CF3000801C8847012010BD002010BD234A92F8B4
:10CF40003130002B06D182F8320082F833100120F4
:10CF500082F83100B1E430B5134606E0CC18D51A9A
:10CF600014F8014C5B1E4455DBB2002BF6D130BDEA
:10CF700090F8491041B990F8981029B190F89800AC
:10CF8000042801D0012098E4002096E4017840684C
:10CF900021B190F8490010B100208EE4E8E70120AB
:10CFA0008BE40A480021C0F8F81080F8C41084E42B
:10CFB0000178012909D1406890F8A510002904D012
:10CFC000002180F8A51008F009BD76E4380800209B
:10CFD0003809002060B301003D3070470844C01D8F
:10CFE000424301F13D00104480B2704770B51C46C9
:10CFF0000546A018049BC01D00FB03F204F13D0090
:10D00000104486B2B14238BFFFDF1C2128460DF024
:10D0100092FFA6F11C0080B22C752880B0F5004F5D
:10D0200088BFFFDF70BD008870472DE9F04F0E46C6
:10D030008188044600F11C0AC088154620F400428D
:10D0400021F40043002721F4004820F400499A42CB
:10D0500008D100F4004001F4004188421CBF0020C8
:10D06000BDE8F08FC14517D9207DA9EB0801091A49
:10D07000C91F8D4227DCC11D0AEB08000144C91EEF
:10D0800071603581F7603782011D3160058047800E
:10D090000120A074BDE8F08F2088217DA0EB08005E
:10D0A000401AB0F1070B0ED4BBF11B0FB8BFFFDF66
:10D0B0005D45D4BF28461FFA8BF0291A0A04120CCA
:10D0C00018BF4A4503DDA7740020BDE8F08F217D1D
:10D0D000CB1D0AEB08010B44DB1E7360308104F1A9
:10D0E0001C03F36032820B1D336008804A800120EC
:10D0F000A074BDE8F08F2DE9F041044600F11C0258
:10D10000808820F40043A07C002808BFBDE8F0819F
:10D11000D0180288438813448B423CBF0020BDE8EE
:10D12000F081002791429CBF0180478013D9891A62
:10D130000D042D0C45800ED0A088261D20F4004043
:10D14000854288BFFFDF30884FF4004121EA0000AC
:10D150002843308008E0217D0088CB1D184481B22F
:10D160002288201D00F09AFAA7740120BDE8F08102
:10D1700030B4B0F802C08488034600F11C052CF4DA
:10D1800000402844A44503D10020D88130BC70471A
:10D19000B3F80AC00488A44509D34088ACEB040C5A
:10D1A000A0EB0C0084B20CEB0500C01E06E0A4EB63
:10D1B0000C041D7DA4B2AC446044001DB1F800C055
:10D1C000A44588BF0C80B3F80AC0BCF1000F0CBFA7
:10D1D0004FF0010C4FF0000C82F800C00988D98193
:10D1E00030BC70472DE9F041044600F11C01408835
:10D1F00020F400404518E089002808BFBDE8F08110
:10D200006189084480B2608129886A88114481421A
:10D2100038BFFFDF28886D88628941190027914255
:10D2200018D175B16088A61C20F40040A84238BF10
:10D23000FFDF30884FF4004121EA000028433080AE
:10D2400007E0217D2288CB1D184481B2A01C00F08C
:10D2500025FA6781E7810120BDE8F0812DE9F047DB
:10D260000189B0F802800027044600F11C0A4145FC
:10D2700018BF4FF4004938D021F400400AEB0001F8
:10D280004E886EB1208904F1080520F40040B042B8
:10D2900038BFFFDF288829EA0000304328801FE0DC
:10D2A000207D2389C21D088823F40045104421886D
:10D2B000284480B204F1080C88420AD2091A89B2C3
:10D2C0001B3291422CBF03F4004129EA030004D22F
:10D2D00004E0401A80B229EA03010843ACF80000D8
:10D2E000781C218987B24145C6D13846BDE8F08710
:10D2F0002DE9F047B0F806800B46044600F11C010A
:10D30000B0F80890408828F4004C01EB0C058045EB
:10D3100004BF0020BDE8F087002A1CBF281D106054
:10D3200023B1227D291D18460DF08EFD2F886D88B2
:10D3300085B1E81987B2E088A61D20F40040A84214
:10D3400038BFFFDF30884FF4004121EA0000284356
:10D35000308007E0207D2288C31DD81981B2A01D2E
:10D3600000F09CF9C84504BFE08820813846BDE83C
:10D37000F0874188808881420CBF012000207047DF
:10D380004188C08888420CBF01200020704730B41B
:10D390004488828800F11C0324F4004C22F40041EC
:10D3A000634494421BD04289C48915191C885A8849
:10D3B000A3189D4216D312B18A4210D212E0037D07
:10D3C0000CF1070C1A196244008892B2801A80B2DC
:10D3D0002233984201D211B104E08A4202D130BC1A
:10D3E0000020704730BC012070472DE9F007858888
:10D3F000C48800F11C06024625F4004C24F40049C0
:10D4000025F4004A002024F4004306EB0C074FF0FB
:10D410000108D1450AD104F4004405F40045AC42AA
:10D4200004D01082BDE8F00700207047634506D99C
:10D43000147DA3EB0C031B1BDD1F002305E01488E8
:10D44000157DA4EB0C04641BE51F002DE9DB94891A
:10D450005CB13C887F8847B1DB1BD0748B42E0DB3A
:10D4600090893044001BC01E12E02D1BD0748D42E9
:10D4700006DB107D9389C01D60443344184406E0E8
:10D480008B42CEDB82F8138090893044001BC01E93
:10D490001182BDE8F00770472DE9F05F044600F106
:10D4A0001C088088924620F4004B208A894608EBAD
:10D4B0000B0608B1484502D20020BDE8F09FA089C4
:10D4C000002804BF00273D4605D0378875887919A4
:10D4D000884218BFFFDFE07C50EA050101D078B335
:10D4E00038E0A08950B1217D4044C91D5944084409
:10D4F000B4F8151020F8031DE17D8170A18907EBB8
:10D5000009004944A181308000257580207DBAF151
:10D51000000F09D0C31D30882288184481B2201D15
:10D5200000F0BCF8A5813AE0A189C01D58444144EF
:10D53000084430F8031DA4F815108078E0752EE03B
:10D54000FFE7A089B4F815104044C01B20F8031D64
:10D55000E17D817005EB090085B2A089BAF1000F69
:10D560004844A0813780758010D0A088261D20F403
:10D570000040A84238BFFFDF30884FF4004121EA65
:10D580000000284330800020A08108E0A0894044AA
:10D59000C01B30F8031DA4F815108078E07500203A
:10D5A0002082A0740120BDE8F09F10B4B0F802C042
:10D5B000848800F11C022CF400431344A44504D0D9
:10D5C000B0F80AC0BCF1000F02D010BC00207047B8
:10D5D00003F1040CC1F800C0007D00F1070C0CEB56
:10D5E0000300C01E486018880881CA605B880B82EF
:10D5F00020B9D01E48600B810020088210BC012099
:10D60000704770B5044600F11C018288408820F400
:10D6100000431944904205D06289002A04BFE28980
:10D62000002A01D0002070BD0A884D8885B1A61C53
:10D6300020F40040A84238BFFFDF30884FF400419B
:10D6400021EA0000284330800020E081012070BDE5
:10D65000207DC31D981881B22288A01C00F01EF8FE
:10D66000F2E700218181C17401828174704782894F
:10D67000002A04BF00207047828800F11C0322F4B6
:10D6800000421A44B2F800C0BCF1000F1DBF037D78
:10D69000121D1A44DA1E4A608089704710B4B0F82F
:10D6A00000C02CF40044214489B24FF4004491425C
:10D6B0000AD2521A92B21B339A422CBF0CF4004287
:10D6C00024EA0C0104D204E0891A89B224EA0C028B
:10D6D0001143018010BC70472DE9F04188464FF698
:10D6E000FC7102F103021E46040002EA010509D0A2
:10D6F0000027E01C20F00300A04200D0FFDF201D27
:10D7000001210CE00127F4E7024628442FB9B14279
:10D7100001D2034600E000231360491CC9B2B142A4
:10D72000F2D9011BC8F80010002F04D10EB1201D42
:10D7300000E000202060BDE8F08102460020116872
:10D74000002902D0084609681160704702680A6023
:10D75000016070474FF6FC73C91C1940101A001F76
:10D7600090FBF1F0C0B270474FF6FC73C91C194032
:10D77000001D01FB02007047F8B5D24D04460E466D
:10D78000A878A04200D8FFDF05EB8607B86A50F8FA
:10D79000240000B1FFDFB868FFF7CFFF05000DD010
:10D7A000B86A062E40F824500AD0082E00D3FFDFB6
:10D7B000C548294650F82620204690472846F8BDFF
:10D7C000C048C24B7A30A0F12E0200902946204674
:10D7D00009F087F8F2E72DE9F84F8046DDF8289048
:10D7E0001E4603EB090093468A46C4B25FEA080767
:10D7F00007D00025FF2800D9FFDFBAF1000F03D1C1
:10D8000001E00125F6E7FFDF08F1030020F0030146
:10D81000414500D0FFDFCB4500D9FFDF65B9A94AFC
:10D8200000204C324FF6FF7110705180A74A1070E3
:10D83000A44A7A3210705180A24880F800B0467035
:10D840008470C4700471447180F80690DFF878B277
:10D85000C67100260BF1400B8146FF1C27F0030028
:10D860000746002D02D109EB860188603BF816209F
:10D8700019F8063001D04FF000006946FFF72CFF81
:10D880000098761CF6B20744082EE6D3FF1C27F05A
:10D8900003002346064675B1002002226946FFF7C1
:10D8A0001BFF00983118002003464E46C91C21F08A
:10D8B00003021DB110E0C9F84800EEE706EB80074F
:10D8C0000021BA6206E000BFD7F828C04CF821302A
:10D8D000491CC9B2A142F7D3401CC0B202EB84017B
:10D8E0000828E3D3A1EB0800AAF800000020BDE857
:10D8F000F88F10B5044604F073F808B1102010BD7D
:10D900002078704A618802EB800092780EE0836A8A
:10D9100053F8213043B14A1C6280A180806A50F8DC
:10D920002100A060002010BD491C89B28A42EED8B7
:10D930006180052010BD70B505460C46084604F010
:10D940004FF808B1102070BD082D01D3072070BD1D
:10D9500025700020608070BD0EB56946FFF7EBFFB3
:10D9600000B1FFDF6846FFF7C4FF08B100200EBD1D
:10D9700001200EBD10B50446082800D3FFDF514832
:10D98000005D10BD3EB5054600246946FFF7D3FF94
:10D9900018B1FFDF01E0641CE4B26846FFF7A9FF9D
:10D9A0000028F8D02846FFF7E5FF001BC0B23EBDB7
:10D9B00044498978814201D9C0B27047FF2070473D
:10D9C0002DE9F0410C460546062901D0072C10D15F
:10D9D0003C4FB86CFFF7B1FE02004FF6FF7604D063
:10D9E0000221B86CFFF7B6FE00E030462880B04256
:10D9F00002D10020BDE8F0812146FFF7BDFE040002
:10DA000002D1288800F050F82046F3E7A0F57F42C5
:10DA1000FF3A01D0082901D300207047ACE6A0F5F9
:10DA20007F42FF3A0BD0082909D2264A93788342D5
:10DA300005D902EB8101896A51F820007047002066
:10DA400070472DE9F04104460D46A4F57F4143F2AD
:10DA50000200FF39CED0082D01D30720CAE71949AB
:10DA60004FF000088A78A242C4D901EB850721460D
:10DA7000BA6A52F82460002EBCD0134A08462032FD
:10DA8000314652F825209047B96A062D41F8248086
:10DA900001D0072D02D1204600F006F83146B868C3
:10DAA000FFF754FE0020A5E710B5064CC2B20221D4
:10DAB000A06CFFF759FE0146A06CBDE81040FFF7CF
:10DAC00045BE00004809002060B401005600002057
:10DAD0000146A048002200680260037A00EB830040
:10DAE00040F80C2F8180114600F025B92DE9F05F38
:10DAF0009846DDF830B0DDF828A0154689460400C8
:10DB00004FF0000625D00027E01C20F00300A042C3
:10DB100000D0FFDF7DB30120FFF75EFA00FB056256
:10DB20000AEBCB00104486B20120FFF755FA00FB48
:10DB300005620B9908EBC100104405EB450100EBB1
:10DB40004100143000EB850000EB850086B217B170
:10DB500011E00127D8E7A6EB85000C3887B27D4895
:10DB6000A9000460257204F10C0060600DF005FA54
:10DB70003846FFF7ADFFA9F800600020BDE8F09F30
:10DB80002DE9FF4F734C814681B020689A468B4641
:10DB900000B9FFDF2068027A4A4503D9426852F88B
:10DBA000291021B143F2020005B0BDE8F08F0068F2
:10DBB00000B9FFDF01210E9A0398FFF70FFAC61C88
:10DBC0004FF6FC752E40584601215246FFF706FAE3
:10DBD000C01C00EA050808EB0600001D85B25D4880
:10DBE00000270068046801E027460446206838B131
:10DBF000A188A942F8D13946204600F0A4F813E0E4
:10DC000005F10800A18880B2814229D33946204617
:10DC100000F099F8A0880022411B60190260818001
:10DC2000394600F088F8A580A08860802680251DF0
:10DC30000E9F0123039A314628460097FFF7D6F935
:10DC40002088414628445A460123CDF800A0FFF71A
:10DC5000CDF9404800684168002041F82940A3E719
:10DC60000420A1E770B53B4C0546206800B9FFDFF2
:10DC70002068017AA94210D9426852F8250060B1A3
:10DC80004188002342F8253003608180194600F066
:10DC900052F8216800200A7A08E043F2020070BDC1
:10DCA0004B6853F820306BB9401CC0B28242F7D8A1
:10DCB000002002E08A88104480B209680029F9D166
:10DCC000FFF706FF002070BD70B5224D28680028C0
:10DCD0000AD0002404E02046FFF7C4FF641CE4B22D
:10DCE0002868007AA042F6D870BD70B5194E054676
:10DCF0000024306800B9FFDF3068017AA94204D9F6
:10DD0000406850F8250000B1041D204670BD70B574
:10DD1000104E05460024306800B9FFDF3068017AF4
:10DD2000A94206D9406850F8251011B131F8040B0A
:10DD30004418204670BD19B10A6802600860704737
:10DD400004490968F8E7006809B1086070470149AB
:10DD50000968FAE75C00002070B5044600780E46BA
:10DD600001281AD0072802D00C281AD115E0A06883
:10DD7000216905780B2D0CD0052003F0CAFD052D77
:10DD80000FD0782300220520D4F8101003F024FDD2
:10DD900007E0782300220620F8E70520216903F038
:10DDA000B8FD31462046BDE8704001F0BBB910B562
:10DDB00000F13902C3799478411D64F003042340D3
:10DDC000C371DB070DD04B79547923404B710B792C
:10DDD000127913400B718278C9788A4200D9817018
:10DDE00010BD00224A710A71F5E74178012900D07F
:10DDF0000C21017070472DE9F74F86B000208C6927
:10DE00008DF800000878012617460D464FF0070BE5
:10DE10004FF011094FF00A0A2A2878D2DFE810F0F3
:10DE20002A00140357036C03A603B503D103FE03B2
:10DE300015043F0468048704A004DD04EE04110502
:10DE4000190539055E058905AD05D605F305FD05FE
:10DE50001F063006420674069606E8061F072D07C1
:10DE6000580778078C079D07D6070E083A08F6076B
:10DE7000FA07000814B120781D2829D0D5F80880A9
:10DE80005FEA080043D001208DF80000686A049022
:10DE900003208DF804008DF805A0286A0290A88858
:10DEA0000028EFD098F8001091B10F2910D27DD240
:10DEB000DFE801F07C144BDCFEFDFCFBFAF9F8080E
:10DEC0009EF7F600022822D124B120780C2801D038
:10DED000002675E302208DF80000B1E10620696A92
:10DEE00003F017FDA8880728EDD1204601F015F9A9
:10DEF000022809D0204601F010F9032808D920464D
:10DF000001F00BF9072803D20120207005E010E290
:10DF1000002CB7D020780128D5D198F80400C11F73
:10DF20000A2902D385F81CA08DE2A070D8F8001051
:10DF3000A163B8F80410A18798F8060084F83E00A1
:10DF4000012028700320207046E00728BBD1002C58
:10DF500098D020780D28B6D198F8031094F83B207B
:10DF6000C1F3C000C2F3C002104201D00E2000E095
:10DF70000F20890707D198F805100142D2D198F8EF
:10DF800006100142CED194F83D2098F8051020EA01
:10DF900002021142C6D194F83E2098F80610904330
:10DFA0000142BFD198F80400C11F00E049E20A29EC
:10DFB000B8D2617F814201D90620C9E3D8F80010A8
:10DFC0006160B8F80410218198F80600A072012061
:10DFD00028700E20207003208DF80000686A0490DD
:10DFE00004F139000190601D029017300390DBE0CE
:10DFF000B5F806B041288FD1204601F08EF80428EC
:10E0000002D1E078C00704D1204601F086F80F283D
:10E010009CD1CBF14006324608F10101606A0CF058
:10E0200013FF606A5A463044E9680CF00DFF0E2079
:10E030008DF80000686A0490606A019000216846CB
:10E04000FFF78AFE2078042808D0A07F48B1012875
:10E0500007D0032808D0102020709CE005202070F5
:10E060000FE284F8009033E71220F5E71128C2D1BF
:10E07000204601F052F8042802D1E078C00719D0F8
:10E08000204601F04AF8062805D1E078C00711D1F2
:10E09000A07F02280ED0204601F03FF8112808E0AA
:10E0A000B3E083E09BE172E152E10AE1E9E0CFE015
:10E0B00017E0A0D1102208F1010104F148000CF092
:10E0C000C3FE6078012809D012202070E078C007D4
:10E0D00065D0A07F90B301285DD060E084F800B0E7
:10E0E00059E0112887D1204601F017F8082804D0FC
:10E0F000204601F012F813288AD12869D0B1686946
:10E10000C0B104F17800102208F1010106460CF0BC
:10E110009BFE2078082812D014202070E078C007D9
:10E120000FD0A07F022818D06178022912D00328CE
:10E1300031D034E000208DF80000FAE02BE0092017
:10E14000EBE70B202870296902204870206CC1E998
:10E1500001069AE208B1012879D10B2028702969BB
:10E1600008204870606A4860206AC1E9020680E2BF
:10E17000206CE2780068C2F34402521ED04000F0E6
:10E18000010040F0800000E000200874E06A48616F
:10E1900084E20646F0E3042028700520F0E185F8CB
:10E1A00000A08DF800A0BFE33946FFE31128C4D1D9
:10E1B000204600F0B2FF0A2802D1E078C00704D15F
:10E1C000204600F0AAFF1528B7D1102208F101015E
:10E1D00004F148000CF038FE20780A2810D01620F0
:10E1E000207012202870296904F1580081F801A0DC
:10E1F0004860203088601038C860206C0861B5E342
:10E200000B202070E7E22870D9E1022895D1204642
:10E2100000F083FF042804D3204600F07EFF082886
:10E2200009D3204600F079FF0E2886D3204600F05F
:10E2300074FF12287DD2A07F0228B8D18DF80090FB
:10E24000686A049098F801008DF80400FEE36DE21E
:10E250000228ACD1204600F060FF002869D020469B
:10E2600000F05BFF0128F9D0204600F056FF0C2893
:10E27000F4D005208DF8040098F801008DF8050011
:10E280005BE71128FCD1002CFAD020781728F7D1B1
:10E290006178E06A022912D05FF0000101EB4101D0
:10E2A000182606EBC1011022405808F101010CF0BC
:10E2B000CBFD0520696A00F023FF267008E60121E6
:10E2C000ECE70B28DCD1002CDAD020781828D7D145
:10E2D0006178E06A02292DD05FF0000101EB410175
:10E2E000102202EBC1014158B8F8010008806078A3
:10E2F000E16A022821D0002000EB4002142000EB4C
:10E30000C2000958404650F8032F0A604068486030
:10E310000520696A00F0F4FE6078022810D04FF002
:10E3200000002044407A20F001010CD14FF00100A0
:10E330000BE0D9E14FF00101D0E74FF00100DBE73E
:10E340004FF00100EDE74FF000002044417285E3FB
:10E35000112895D1002C93D02078192890D161787C
:10E36000E06A022911D0002101EB41011C2202EBDD
:10E37000C1011022405808F101010CF065FD052093
:10E38000696A00F0BDFE1A20EEE00121ECE70828E2
:10E3900098D1002C98D020781A2893D1E16A98F867
:10E3A00001000870E16AD8F8022041F8012FB8F89E
:10E3B000060088800520696A00F0A2FE60780228C5
:10E3C00007D04FF000002044407A20F002002CD00B
:10E3D00034E04FF00100F6E7214448723EE3112893
:10E3E000B7D1002CB7D020781B28B2D16178E06A71
:10E3F00002291DD05FF0000101EB4101202202EB58
:10E40000C1011022405808F101010CF01DFD05204A
:10E41000696A00F075FE607802280CD04FF00000A9
:10E420002044407A20F0040008D14FF00101D3E7E6
:10E430004FF00101E0E74FF00100F1E74FF000017C
:10E44000CAE785F81CB0F8E33878012886D11C2289
:10E4500004F11C0079680CF03CFDE079C10894F8E7
:10E460003B0001EAD001E07861F30000E070217F19
:10E4700009B1297738E1217803290AD0C0073FF490
:10E48000ECAD032028708DF800A0686A049041204C
:10E49000ABE3607FA17888423FF68EAD02262671FD
:10E4A000E179204621F0E001E171617A21F0F0018B
:10E4B0006172A17A21F0F001A172FFF778FC2E7051
:10E4C0008DF800A0686A04908DF804B06CE6387886
:10E4D0001228CFD18DF800B0696A04919168029139
:10E4E000ADF804B008466168016021898180A17A95
:10E4F000817104202070A9E23878B7F806801228CC
:10E50000B8D18DF800B0686A0490381D01AB07C817
:10E5100083E807004120ADF8040008460C2100F80C
:10E52000011BC8F140021646216A0CF08DFC206ADE
:10E5300042468119F8680CF087FC00216846FFF715
:10E540000BFCE07820F03E00801CE070207805286D
:10E5500001D00F2008E0A07F00283FF4BFAD0128C4
:10E56000FBD0032870D108202070B1E4387803284C
:10E57000AFD178680168A1664068E0660520287020
:10E580008DF80000686A04900EE638780328A0D160
:10E5900078680168216740686067206C68B9A07F6F
:10E5A00028B1012803D0062028700420E8E785F868
:10E5B00000B0FD482064606401E085F800B00326E7
:10E5C000EFE33878022884D13879E0BBA07F0228B5
:10E5D0000BD00328F1D1607801280BD0A07994F8F2
:10E5E0003A1001280AD0F0480BE0B86800287BD028
:10E5F000206411E0A17994F83A00F2E7B8680028A5
:10E60000F5D02064E078C00701D0012901D0E648A8
:10E6100002E0F8680028EAD06064CEE78DF800A038
:10E62000696A0491E1785046C90709D061780229E6
:10E6300003D1A17F29B1012903D0A17F032900D0F3
:10E640000820287047E102E1C0E0387812288FD115
:10E65000B868286209202870E0782969C0070DD0C1
:10E6600008204870206A4860606A886004F1680089
:10E67000C860A07F02287FF487AD79E5022048704A
:10E68000206C486004F16800886004F13800C860BC
:10E69000201D0861206B4861606B88612DE2E17884
:10E6A0003878C90701D0072100E00B2188428AD1C0
:10E6B0002078072819D084F8009000BF8DF800B0AA
:10E6C000686A0490286A0290ADF80490032100F86B
:10E6D000011B516810220CF0B7FB00216846FFF7C0
:10E6E0003BFB00202862BEE44AE208202070E5E7F8
:10E6F00038781228ABD18DF800B0686A0490906821
:10E700000290ADF80490042100F8011B102204F1DE
:10E7100068010CF099FB00216846FFF71DFB20788B
:10E72000092801D013201FE784F800A016E0E17843
:10E730003878C90701D0072100E00B21884286D133
:10E74000102204F1480079680CF052FB10B104204B
:10E750002877AFE3207809283FF4BFAC0C2052E5BE
:10E76000E078C10737D0A17F012902D002291BD050
:10E770002EE00D20287029690B2048706078012850
:10E7800009D0206A4860606A886004F16800C86047
:10E7900010300861FAE4606A4860206A886004F119
:10E7A0007800C8601038F4E7C0F3440114290FD290
:10E7B0004FF0006101EBB0104FEAB060E07060789C
:10E7C000012803D01020207004205FE10620CBE652
:10E7D0006078012887D00E2015E538780A2889D17D
:10E7E00085F800A010208DF80000686A0490506839
:10E7F000019000216846FFF7AFFAE9E7E078C0072B
:10E800000AD0A07F012803D10F20287004203FE107
:10E81000102028700F203BE1152028702969032063
:10E820004870206C48606078012805D004F17800B9
:10E8300088601038C86060E104F1680088601030BA
:10E84000F8E738780228CAD138790028E0D028774C
:10E850002EE338781428FBD185F800902969092027
:10E86000487078684860607801280DD004F168002D
:10E8700088601030C860206B0861606B486104F1EB
:10E8800058008861A06A22E004F17800886010389E
:10E89000F0E738780828DBD16078012801D0132010
:10E8A00041E2A178A06A0844C1F110010CF043FBD9
:10E8B00012202870296904F1580081F801A04860ED
:10E8C000203088601038C860206C086147E0C8615B
:10E8D000E06A086211E18DF80490DDE038780928DB
:10E8E000B6D1102204F1480079680CF081FA08B121
:10E8F0000B202DE720780B2812D02046FFF757FA7F
:10E90000A178A06A0844C1F110010CF014FB162094
:10E91000287008208DF80000686A049000206DE0DF
:10E92000132028708DF800A0686A04908DF8049078
:10E930003AE4387812288BD1B868286214202870FD
:10E94000296904F1580081F801A0486010308860FE
:10E950001030C860606C08616078012806D004F14E
:10E9600039004861206B8861606BB0E7601D4861C9
:10E97000606B8861206BAAE789E2387809288AD120
:10E980008DF800B0686A0490286A0290ADF804908F
:10E990000D2100F8011B102279680CF055FA0021B6
:10E9A0006846FFF7D9F902E07EB5010075E0002066
:10E9B00028626178012901D01520D5E5162129703A
:10E9C00008218DF80010696A049117E038780C2846
:10E9D00086D1162028706078022802D12046FFF7E1
:10E9E000E6F9A17878680844C1F110010CF0A3FAA7
:10E9F00008208DF80000686A049078680190A0787B
:10EA00008DF8080062E53878102894D1E079C007C5
:10EA100079D01720287009203AE0387811288AD157
:10EA20001422391D04F11C000CF053FAE16A208D08
:10EA3000A1F80900E16AA078C871E179E26A01F001
:10EA400003011172E16A627A0A7300E049E2E16A45
:10EA5000A07A81F824006078012876D0B4E160784B
:10EA6000022801D0012000E000202044407AC007A5
:10EA700004D0E078C00701D1192054E11E206EE6D1
:10EA8000387812287CD1B86828621A2028700520AE
:10EA90008DF80000686A049011466846FFF75CF93B
:10EAA000FFF777BB387803286AD16078E16A0228DB
:10EAB00001D0012000E0002000EB4002142000EB18
:10EAC000C20289587A6813680B6052684A601B2139
:10EAD0002970D5E9041206234B70636A4B6066788F
:10EAE000E36A022E01D0012600E0002606EB46066E
:10EAF00000EBC6001858C1E90202686A486206982D
:10EB000000F027FBCCE788E138780F2838D160780F
:10EB1000E26A022801D0012000E0002000EB400062
:10EB2000102101EBC00002231058093279680AF065
:10EB300077FC1C202870296905204870206A4860ED
:10EB4000E06A09308860FA4874E65BE138780E289C
:10EB500016D16178E06A022901D0012100E000218C
:10EB600001EB4101182606EBC101A27840587968F3
:10EB70000CF06AF96178E06A022902D0012101E013
:10EB8000B8E0002101EB410106EBC1014158A0783A
:10EB90000A18C0F1100110460CF0CDF98DF800B044
:10EBA000686A0490286A0290ADF80490062101700A
:10EBB0006278E16A022A01D0012200E0002202EB21
:10EBC000420206EBC202401C895810220CF03CF9AC
:10EBD00000216846FFF7C0F8002028621D20287039
:10EBE0008DF800A0686A04900B208DF804006DE495
:10EBF000387812287ED18DF800B0686A0490906849
:10EC000002900B20ADF80400029880F800B0627802
:10EC1000E16A022A01D0012200E0002202EB420256
:10EC2000102303EBC20289580988A0F8011061780B
:10EC3000E26A022902D0012101E03BE1002101EB5F
:10EC40004103142101EBC30151580A6840F8032F16
:10EC50004968416000216846FFF77EF80EE760785A
:10EC6000022801D0012000E000202044407A8007E3
:10EC700001D51F2057E0212071E53878122839D1BD
:10EC80008DF800B0686A0490B8680290ADF80490FE
:10EC9000082606706278E16A022A01D0012200E0AB
:10ECA000002202EB42021C2303EBC202401C8958E3
:10ECB00010220CF0C9F800216846FFF74DF820201B
:10ECC00028708DF800A0686A04908DF804605BE4F9
:10ECD000387812280ED18DF800B0686A04909068D8
:10ECE00002900820ADF80400029809210170E16942
:10ECF000097800E093E04170E16951F8012FC0F814
:10ED000002208988C18000216846FFF725F8B2E714
:10ED10006078022801D0012100E000212144497AD5
:10ED2000490706D5222028708DF800A0686A049053
:10ED3000D1E5012848D067E0387812286FD1B8684B
:10ED4000286223202870296905204870206A4860BD
:10ED5000E06A0930886077486CE538780E285ED123
:10ED60006178E06A022901D0012100E0002101EB75
:10ED70004101202606EBC1014058516810220CF0D9
:10ED800063F88DF800B0686A0490286A0290ADF8C4
:10ED9000049080F800A06278E16A022A02D0012281
:10EDA00001E0A4E0002202EB420206EBC202401C9A
:10EDB000895810220CF048F800216846FEF7CCFF75
:10EDC000002028626078B4E72420C8E46078022834
:10EDD0000BD000202044407AC10702D0E178C90757
:10EDE00005D0810705D519209DE40120F2E7172001
:10EDF00099E4400701D51B2095E41C202070607821
:10EE0000012801D01820AAE42720A8E4282028708F
:10EE10000B203DE6387813284AD129209FE40CE0E6
:10EE20002078012844D00C2842D02046FEF7DDFF90
:10EE30000C208DF80000686A049039E038784FF0B3
:10EE40002608122805D013201070032685F80080AC
:10EE50004DE08DF800B0686A0490B8680290022016
:10EE6000ADF80400029805210170297F417000214E
:10EE70006846FEF771FF0B208DF80000686A049069
:10EE800039466846FEF768FF064685F80080012E81
:10EE90000ED02CE001208DF80000686A0490042058
:10EEA0008DF80400287F8DF805000020287712E0F7
:10EEB000287F80B11D202070252028708DF800A0AB
:10EEC000686A049002208DF8040039466846FEF70F
:10EED00043FF06460BE00CB1FE2020709DF80000B9
:10EEE00028B100216846FEF737FFFEF7F1BF09B0F1
:10EEF0003046BDE8F08F2DE9F04F0C4601274E69F2
:10EF0000097885B09046BA464FF00209072021B132
:10EF100001294FD0022920D1C9E0217901290BD044
:10EF2000022916D0032911D0042916D11CE00000B3
:10EF300076B50100B0B40100707801280CD106202C
:10EF4000616A02F0BFFC002807D11AE01D20307072
:10EF500017E07178022901D0052796E031780C2955
:10EF600027D18DF804000EE03078011F042902D368
:10EF70000E3803281DD2B07F02281AD1208902281A
:10EF800017D38DF8049084F800A020899DF8041010
:10EF9000884203D20A208DF800003FE01221083495
:10EFA00088F8001094E80E00C8E901120327C8F899
:10EFB0000C306AE098F80010122966D18DF8000034
:10EFC000616A0491D8F80850029521794FF00B0B33
:10EFD000012906D0022929D0032911D0042954D1AE
:10EFE0005AE0ADF8049085F800B0207E4F4600F05E
:10EFF0001F00687000216846FEF7AEFE377043E0E0
:10F00000ADF8049005202870207E68704E460021DF
:10F010006846FEF7A1FE26708DF800B0606A049085
:10F0200041466846FEF798FE07462EE0ADF804001C
:10F0300085F800A0207F6870607F00F00100A87054
:10F04000A07F00F01F00E870E17F2971C0071FD08A
:10F0500094F8200000F00F00687194F8210000F08F
:10F060000F00A87100216846FEF776FE2868B0639D
:10F07000A888B087A87986F83E00A06940787077A4
:10F080002879B0700D2030700027384605B030E781
:10F090000020A8716871E5E7ADF804900E20287093
:10F0A000207E687000216846FEF756FEECE7FE20E1
:10F0B00030708DF800A0606A049004208DF8040080
:10F0C000207E8DF80500EDE700B50023012285B014
:10F0D00005280FD006280BD102208DF800200491BE
:10F0E0008DF804008DF8053000216846FEF734FEE7
:10F0F00005B000BD8DF8002004918DF80420F1E7E3
:10F1000070B50C46054602F004FC21462846BDE8D1
:10F1100070407823002202F05FBB08B1007870478E
:10F120000C20704770B50C0005784FF000010CD032
:10F1300021702146F4F71EF973482178405D88421A
:10F1400001D1032070BD022070BDF4F713F9002037
:10F1500070BD027B032A05D000220A704B780C2B6D
:10F1600002D003E0042070470A770A62027B930012
:10F17000521C0273C15003207047F0B585B00F4692
:10F1800005460124287B05EB800050F8046C70785C
:10F19000411E0D290AD25C493A46123101EB80002A
:10F1A000314650F8043C2846984704460CB1012CDF
:10F1B00011D1287B401E10F0FF00287301D00324DA
:10F1C000E0E70D208DF80000706A049000210196A0
:10F1D0006846FFF7A7FF032CD4D005B02046F0BD4A
:10F1E00070B515460A46044629461046FFF7C5FF86
:10F1F000064674B12078FE280BD1207E30B1002065
:10F200002870294604F10C00FFF7B7FF2046FEF7EF
:10F21000ECFD304670BD704770B50D460446882140
:10F220000BF0ABFE012D03D0022D03D0052070BDE5
:10F23000012000E0022060702046FEF7D6FD00208D
:10F2400070BD28B1027E1AB10A4600F10C01C7E771
:10F250000120704730B5044687B00D46062002F005
:10F2600058FB2946052002F054FB2078FE2806D0E2
:10F2700000208DF8000069462046FFF7E2FF07B046
:10F2800030BD7FB50E4600218DF80C1041780C2959
:10F2900003D00D2903D0002405E0846900E044690F
:10F2A0000CB1217E91B16D4601462846FFF751FF12
:10F2B000032809D1324629462046FFF791FF9DF8E1
:10F2C0000C10002900D0042004B070BD04F10C051E
:10F2D000EAE710B590B00C4607900B480521801E58
:10F2E00008900A488DF8191009900F92694606A8EF
:10F2F000FFF7C7FF002805D11022204601990BF027
:10F30000A3FD002010B010BDB6B4010076B5010019
:10F3100070B50D46040011D085B1210128460BF0CF
:10F320000AFE10224E4928460BF08EFD4C48012162
:10F330000838018044804560002070BD012070BD08
:10F3400070B5474E00240546083E10E07068AA7B61
:10F3500000EB0410817B914208D1C17BEA7B914292
:10F3600004D10C2229460BF043FD30B1641C3088D7
:10F370008442EBDB4FF0FF3070BD204670BD70B5AE
:10F380000D46060006D02DB1FFF7DAFF002803DB9B
:10F39000401C14E0102070BD314C083C208862886D
:10F3A000411C914201D9042070BD6168102201EB1B
:10F3B000001031460BF048FD2088401C208028704A
:10F3C000002070BD70B514460D0018D0BCB10021EE
:10F3D000A170022802D0102811D105E0288870B150
:10F3E0000121A170108008E02846FFF7A9FF00283E
:10F3F00005DB401CA070A8892080002070BD012082
:10F4000070BD70B5054614460E000BD0002030705C
:10F41000A878012808D005D91149A1F108010A8866
:10F4200090420AD9012070BD24B128782070288824
:10F43000000A5070022008700FE064B14968102281
:10F4400001EB0011204610390BF0FEFC28782073E8
:10F450002888000A607310203070002070BD000002
:10F46000680000202DE9F041FE4C207EE17D8842BD
:10F4700008BFBDE8F0810126FB4D0027E07D215C3F
:10F4800001EB810205EB8200037C052B10D0037C8D
:10F49000062B1BD0037C072B27D0437C012B18BFE6
:10F4A000FFDF30D0207EE17D8842E7D1BDE8F081EA
:10F4B0000674E07D16281ABFE07D401C0020E07530
:10F4C000481CC0B255F8222002210CE00674E07DF1
:10F4D00016281ABFE07D401C0020E075481C55F836
:10F4E0002220C0B203219047DCE70674E07D162895
:10F4F0001ABFE07D401C0020E075481CC0B255F8E2
:10F5000022200821EFE74774E07D16280EBF002077
:10F51000E07D401CE075481CC0B255F82220072150
:10F52000E1E770B5D14E00240C2086F82900A6F53D
:10F530003B70254680F8CD4180F8CC4100F5F47051
:10F540000476C47506F12C000AF0C8FDA6F58E708D
:10F55000057586F82B50601EB06086F8255086F839
:10F56000225086F8235086F8245086F82150C0484F
:10F5700005704570A6F1E80004EB840100EB810101
:10F580000D74611CCCB20B2CF6D30120F9F728FBCB
:10F590000020F9F725FB012086F82600F9F7D4FFB3
:10F5A000B448F9F7E0FFB44C2070B448F9F7DBFF3A
:10F5B0006070BDE87040F9F7A7BA10B5F9F7D2FA54
:10F5C000AD4C2078F9F7E8FF6078F9F7E5FFA74C34
:10F5D00094F82800002808BF10BDF9F7CCFC0020E3
:10F5E00084F8280010BD0B20704770B5F9F79DFB1B
:10F5F0009E4C054694F8260000281CBFFFDF70BD16
:10F6000094F82B00002808BFFFDF6FF07F4260698D
:10F610000026291AB1F5800F24BF431BB3F5800FD4
:10F620000DD38A4203D2101A2844411C07E09A42A3
:10F6300028BFFFDF05D2511B0844401C414200296E
:10F6400000DBFFDF012584F8265084F82B6094F856
:10F6500029100420844A01EB810102EB8101087426
:10F66000A068B0F1FF3F04D0A81EA0600120F9F708
:10F67000B7FA0020F9F7B4FAF9F798FA0AF0C0FEE1
:10F68000F9F7DCFB7E48066006604FF0E0214FF49E
:10F690000040C1F88002F3F790FC7548007802281A
:10F6A00004D0032805D194F8230010B184F8225027
:10F6B00001E084F82260BDE87040F9F7A3BB03467F
:10F6C00069490B2000EB800201EB820212F8042C46
:10F6D00022B1401E10F0FF00F4D1704700EB800211
:10F6E00001EB8201012241F8143C01F8042C70471F
:10F6F000012804D0032808BF002926D000E021B348
:10F700005A4B4FF0000C83F821C0594A00289070E2
:10F7100014BF022882F803C00BD0072915D2DFE8F6
:10F7200001F01404060C0E1012001B2000E03A2019
:10F73000D070012083F8210070475820F8E7772027
:10F74000F6E79620F4E7B520F2E700207047484836
:10F7500010B54078F9F77BFB80B210BD421E10B5A2
:10F76000414900EB800001EB80040A2A02D814F81A
:10F77000040C00B9FFDF14F8040C012818BFFFDFE8
:10F78000002004F8040C10BD70B53E4C94F8CD0177
:10F7900094F8CC1188420CBF01250025F9F7C5FA71
:10F7A000F9F755FB94F8CD1194F8CC2191420CBF98
:10F7B00001210021A942E9D170BD2DE9F05F804609
:10F7C0004B1E1746DCB2284804EB840200EB82058E
:10F7D0002E1D287CDFF88C9007282DD199F8170072
:10F7E000002299F818C0844524D000BF19F800C041
:10F7F000A44508BF012200D04AB116280CBF4FF023
:10F80000000C00F1010C19F80CC009F800C0162812
:10F810000CBF0020401CC0B299F818C08445E5D147
:10F8200042B199F818204846002A0EBF1622027EDF
:10F83000521E0276012028740A2B10D80A4801EBC8
:10F84000810100EB810010F8040C40B1287C0128F4
:10F8500006D0287C012802D0B87A012816D0FFDF14
:10F86000B87A11E0BC0B0020D80B0020C00C00209F
:10F870007A000020851601007800002065F4000061
:10F8800000F50040D409002001284AD1FE49287C17
:10F89000022816D099F8180016284AD099F81800AE
:10F8A00099F81710401C884200D1FFDF01206874CE
:10F8B00099F8180009F8004099F8180016283DD06A
:10F8C0003EE0DFF8C8C39CF829000246A04207D0FA
:10F8D000024600EB820001EB8000807CA042F7D161
:10F8E0009CF8293083420CD19CF8292002EB82023B
:10F8F00001EB8202927C8CF8292001228CF82A20CC
:10F9000009E000EB800301EB830302EB820201EBD1
:10F9100082029B7C937400EB800001EB80000C2240
:10F920008274387A062825D2DFE800F012211E1BE7
:10F93000181599F817000028B8D1B6E7002002E0A2
:10F9400099F81800401C89F818000020BDE8F09FC5
:10F950004FF0000A11E04FF0B40A0EE04FF0730AC6
:10F960000BE04FF0320A08E04FF00A0A05E04FF0D2
:10F97000060A02E0FFDF4FF0000A3868A0EB0A0039
:10F980003060397A00290CBF04210221401A20F08E
:10F990007F423260D7E90001084420F07F40706068
:10F9A000B87A022818BF387B7ED1387A00280CBF7D
:10F9B0000420022000EB0A037868591D00EB010BBC
:10F9C000B3484078504503D9B04991F8231011B19C
:10F9D0000BF1060003E0A0EB0A005844801DAB4980
:10F9E00091F829C0BCF10C0F24D08E4691F8291053
:10F9F00001EB810CA44901EB8C0CDCF804C06245DE
:10FA000018D0DFF890C29EF8292002EB820201EBA9
:10FA100082014A688968A2EB080222F07F42A1EBCA
:10FA2000080121F07F41904298BFB2F5800F49D282
:10FA30008C4547D34044A0EB0B0020F07F41316060
:10FA40001944F86821F07F410A1A6FF07F43B2F53C
:10FA5000800F24BFA0EB010CBCF5800F0DD39342A7
:10FA600003D2181A0844421C07E0634528BFFFDF91
:10FA70001FD2591A0844401C4242002A19DD0520B1
:10FA8000287499F8180016282DD099F8180099F8BC
:10FA90001710401C884200D1FFDF99F8180009F8C0
:10FAA000004099F8180000E00BE016287FF448AFFA
:10FAB00044E73068ABF10501084420F07F407060F6
:10FAC000002030727068401D20F07F407060787AAE
:10FAD000B072387A0627707203280DD260B101F037
:10FAE00023FB28B108E099F817000028D5D1D3E707
:10FAF000CAF138074FF0320A65480178012918BF6A
:10FB000003290AD14078504507D9604991F823105C
:10FB1000002904BFA0EB0A0007445E4B3068A0EB4D
:10FB20000802706822F07F41A0EB080020F07F4CB3
:10FB30008F4298BFB1F5800F1CD263451AD3534949
:10FB400091F829300C2B32D091F829704FF00C0B22
:10FB50004FEA0B0A4C4907EB870301EB8303D3F809
:10FB600008C0ACEB080C944531D8BB469F7C0C2FE9
:10FB7000F0D199E00520287499F81800162811D0C2
:10FB800099F8180099F81710401C884200D1FFDF3F
:10FB900099F8180009F8004099F8180016287FF421
:10FBA000CFAECBE699F817000028F1D1EFE702209D
:10FBB000287491F829000C2818BF91F82900A8741E
:10FBC00081F82940012081F82A00BDE8F09F0C2F20
:10FBD0001CBFBA46002267D00AEB8A0301EB8303FD
:10FBE000D3F804C0ACEB080C844528D29A7B96F875
:10FBF0000AC094451CD30520287499F818001628CB
:10FC000011D099F8180099F81710401C884200D1BB
:10FC1000FFDF99F8180009F8004099F81800162835
:10FC20007FF48EAE8AE699F817000028F1D1EFE74D
:10FC300093F812A00122BAF10C0FCDD103E0002AF3
:10FC400008BFBA4630D03E460F4806EB860200EBAE
:10FC50008208062188F8101099F81800162836D066
:10FC600099F8180099F81710401C884200D1FFDF5E
:10FC700099F8180009F8006099F8180016280CBFC8
:10FC8000002099F8180007E0D80B0020C00C0020D5
:10FC90007A000020FFFF3F0018BF401C89F81800C1
:10FCA00098F81260B245CFD10220FE4E287406F1BA
:10FCB000E80090F82910B9420ED185F812A080F81A
:10FCC0002940012180F82A100120BDE8F09F99F811
:10FCD00017000028CCD1CAE70C2F0BD0BBF10C0FBA
:10FCE00008BFFFDF0BEB8B0006EB8000847485F808
:10FCF00012A0E9E7BBF10C0F08BFFFDF0BEB8B0095
:10FD000006EB800084740C20A874DDE730B50D4646
:10FD1000E54A44190021101A71EB010038BFFFDFDA
:10FD2000E2488542C8BFFFDFE1488542B8BFFFDF38
:10FD3000E0488442A8BFE04804DA002CAABF20466D
:10FD4000DC4830BD201830BD401E70B5C0B200EB9D
:10FD50008001D44800EB8104607B062810D2DFE8E4
:10FD600000F0030D0B090705002033E0B4200BE081
:10FD7000732009E0322007E00A2005E0062003E0B6
:10FD8000FFDF617B002029B3022108446168084439
:10FD900020F07F40F9F75BF894F90C50C24A4419FF
:10FDA0000021101A71EB010038BFFFDFBF48854208
:10FDB000C8BFFFDFBE488542B8BFFFDFBD488442F1
:10FDC000A8BFBD4804DA002CAABF2046B94870BDC0
:10FDD000201870BD0421D8E72DE9F04F0646B7483A
:10FDE00085B00068C005C00D11D0103840B20028A1
:10FDF000B8BF00F00F0000F1E020B4BF90F8140D80
:10FE000090F80004400908BF4FF0010A01D04FF0FC
:10FE1000000A3078002817BF01283079002005B08B
:10FE200018BFBDE8F08F062810D2DFE800F0030D00
:10FE30000B090705002015E0B4200BE0732009E052
:10FE4000322007E00A2005E0062003E0FFDF3179D9
:10FE5000002039B15FF0020100EB0109BAF1000F97
:10FE600006D101E00421F7E79549002081F8270039
:10FE70006C4602AA2146B068F8F7F6FF9DF9082003
:10FE8000F068211D10440122C01C1F28B8BF019238
:10FE900008DB03AAF8F7E8FF9DF80C0010B1019801
:10FEA000401C0190DDE900100844401D20F07F4017
:10FEB0000190A1EB090020F07F40009070798DF84F
:10FEC0000A0000980390F8F730FF0099019B091A87
:10FED000181A7C4A21F07F4120F07F40B1F5800F55
:10FEE00010D282420ED3764890F82950009CAB463F
:10FEF000191B21F07F486FF07F41091BA0F1E80733
:10FF0000049101E0002080E00C2D26D005EB850057
:10FF100007EB80026FF07F435068011BB1F5800F43
:10FF200010D3A4EB000CBCF5800F0BD38B4203D293
:10FF300004990844411C05E063450DD2181A204479
:10FF4000401C4142002908DA5D48AB46957C90F898
:10FF500027000028D8D04CE0FFDF5D4525D00BEB13
:10FF60008B0007EB80036FF07F429968081BB0F5A8
:10FF7000800F12D3A4EB010CBCF5800F0DD382428D
:10FF800003D204980844401C07E0624528BFFFDF05
:10FF90000BD2521A1019401C4042002805DD9DF872
:10FFA0000A009A7B904228BF0C460C2D1CBF9DF87E
:10FFB0000A10434A14D000BF05EB850007EB800010
:10FFC00043681B1B23F07F43434509D2837B99423F
:10FFD00028BF8468857C92F8270050B90C2DEBD19E
:10FFE0000098A04205D004EB080020F07F40009468
:10FFF000019000990398814206D001EB090020F09E
:020000040001F9
:100000007F40F8F724FFB06001202D4991F82710B8
:10001000002904BF05B0BDE8F08FBAF1000F3FF42E
:1000200023AF05B0BDE8F08F2DE9F04F814687B0D2
:100030000C4625480AF05AF8244901274FF00008D9
:1000400001EB090500287DD0A1F5887898F8140007
:10005000002818BFFFDF2078012800F0238200BFAE
:1000600088F810902078022808BFFFDF184E20790A
:1000700006F10C023072607970723146A068F8F7B0
:10008000F3FE96F90C000F2804DD1F38307330683A
:10009000401C306096F90C00E168351D0844C01C16
:1000A0001F2817E0D80B0020FF7F841E0020A10727
:1000B00000E05EF80080841E00807BE104ED00E03B
:1000C000C00C0020FFFF3F00EC0C0020B40C00200F
:1000D000A40B0020B8BF2F6009DB6A462946F8F759
:1000E000C3FE9DF8000010B12868401C28602078ED
:1000F000B07288F81470F64D95F8CD0195F8CC11D2
:10010000884204BF07B0BDE8F08FF24890F829405C
:100110000C2C00F0CF81F8F708FEEF4904EB8402C5
:1001200001EB82010A7C042A19BF0A7C032A07B06A
:10013000BDE8F08FE94B4A688968121A22F07F42C5
:10014000081A00E01BE020F07F40062A3CBF07B001
:10015000BDE8F08FB2F5800F24BF07B0BDE8F08F87
:1001600083423CBF07B0BDE8F08F95F8CD0195F80C
:10017000CC11884240F0A78107B0BDE8F08FD44E83
:1001800096F8CD01162855D096F8CD0196F8CC11E9
:10019000401C884200D1FFDF207801284FD0CC4896
:1001A00090F8CD1101EB810100EB810080F81090F7
:1001B000207802284BD0C64890F8CD1101EB810180
:1001C00000EB8105207928726079687205F10C02D4
:1001D0002946A068F8F748FE95F90C000F2804DDC1
:1001E0001F3828732868401C286095F90C00E168C6
:1001F0002E1D0844C01C1F28B8BF376009DB6A46A3
:100200003146F8F731FE9DF8000010B13068401C0F
:1002100030602078A872AE4991F8CD0116280EBF43
:10022000002091F8CD01401C81F8CD01AC4809F0C7
:1002300073FF60E796F8CC010028ADD1ABE715F865
:10024000010C002818BFFFDF05F8017CA7E7A548CF
:100250000068C005C00D0FD0103840B20028B8BFEC
:1002600000F00F0000F1E020ACBF90F8000490F81F
:10027000140D400908BFFFDF954890F8CD1101AA81
:1002800001EB810100EB8106E068CDF800808DF87C
:1002900004806946F8F7E8FD9DF904000F28CCBFFB
:1002A000012000200099351D084401900220B07201
:1002B0002079307260797072A068C01C1F28B8BFA6
:1002C0002F6009DB6A462946F8F7CEFD9DF800004D
:1002D00010B12868401C2860307A062810D2DFE868
:1002E00000F0030D0B09070500200BE0B42009E026
:1002F000732007E0322005E00A2003E0062001E039
:10030000FFDF0020217900290CBF042102210844CD
:1003100002907168401D08440199009001440298C0
:10032000081A05906B4C002084F82700F8F7FDFCB4
:10033000804630600198404420F07F40F06094F89F
:1003400029000C287ED0204690F8291001EB81026C
:10035000A0F1E80101EB82025468009A274622448A
:1003600022F07F42039296F809B090F82950121BB0
:1003700022F07F4A6FF07F42121BA94604920C2D97
:1003800027D0554805EB850100EB81036FF07F42D4
:100390005868011BB1F5800F24BFA4EB000CBCF51D
:1003A000800F0BD38A4203D204990844411C05E014
:1003B00062450DD2111A0819401C4142002908DA81
:1003C0004448A9469D7C90F827000028D7D04DE0EE
:1003D000FFDF4D4525D0404809EB890100EB810145
:1003E0006FF07F438868021B8146B2F5800F24BFFF
:1003F000A4EB000CBCF5800F0DD3934203D2049AFA
:100400001044421C07E0634528BFFFDF09D21A1AD7
:100410001019401C4242002A03DD887B834528BF17
:100420004C460C2D1CBF2B4BA3F1E80116D000BF8E
:1004300005EB850001EB80025068001B20F07F4037
:10044000504500E026E009D2907B834528BF9468A0
:10045000957C93F8270048B90C2DE9D1A74205D027
:1004600004EB0A0020F07F4027460390039AA7EB95
:10047000080121F07F41A2EB0802059822F07F429B
:10048000B1F5800F06D2904204D30298384420F090
:100490007F4030600F4890F8270000287FF442AF7B
:1004A000B9E600BF15F8010C002818BFFFDF05F8FA
:1004B000017CD5E595F8CD0195F8CC11884204BFB3
:1004C00007B0BDE8F08F07B0BDE8F04FF8F79ABC71
:1004D000D4090020C00C0020D80B0020FFFF3F00F3
:1004E000EC0C002004ED00E00020F8F769BB0120CF
:1004F000F8F766BBFD48007870472DE9F0410546E6
:1005000002282DD0FA4C94F829000C2808BFFFDFF0
:10051000002784F82670012684F82B6094F82910AF
:100520000320DFF8D08301EB810108EB810108741F
:10053000F8F76FFCD5B1012D39D0032D1CBFFFDFBB
:10054000BDE8F08194F8290094F82910401CC0B24D
:1005500001EB810158F82120BDE8F0410521104749
:10056000E2480078BDE8F041F9F71CB8207F002888
:1005700018BFFFDF84F8256000202760F8F730FB04
:10058000A168B1F1FF3F04D0012300221846F8F71B
:100590006BFB94F8290094F82910401CC0B201EBC1
:1005A000810158F82120BDE8F041012110470120C8
:1005B000F8F716FB94F8250000281CBFA068B0F1DE
:1005C000FF3F0DD094F8290094F82910401CC0B2C8
:1005D00001EB810158F82120BDE8F04106211047C8
:1005E000207F012815D002281FD0032833D00428EB
:1005F0001CBFFFDFBDE8F08194F820106068012384
:10060000411A00221846F8F72FFB94F82800B8BBCF
:1006100037E094F8240028B184F82470F8F700FC3F
:1006200084F823602777BDE8F08194F8280018B992
:10063000F8F778FC84F8286094F8290094F82910D9
:10064000401CC0B201EB810158F8212000219047E5
:100650002777BDE8F081217B60680123411A0022E1
:100660001846F8F701FB94F8240028B184F82470A8
:10067000F8F7D6FB84F8236002202077BDE8F081EC
:1006800003E0F8F74FFC84F8286094F8290094F808
:100690002910401CC0B201EB810158F82120002133
:1006A00090472677BDE8F08110B5914C94F8290069
:1006B0000C2808BFFFDF94F8290094F82910401C8B
:1006C000C0B28C4A01EB810152F82120BDE81040F4
:1006D000042110472DE9F05FF8F727FB844C814691
:1006E0004FF00C0B94F829000026A4F1E8084FF015
:1006F000010A0C282CD094F82910204601EB810126
:1007000008EB8101097C042922D090F8291001EB23
:10071000810108EB8101097C032908BFBDE8F09F36
:10072000754922696069A2EB090222F07F42A0EBC1
:10073000090020F07F40062A38BFBDE8F09FB2F5DF
:10074000800F28BFBDE8F09F814238BFBDE8F09F11
:10075000A068B0F1FF3F18BFFFDF84F8256094F870
:100760002900664F0C2806D194F8210018B1F878BA
:100770007870B87838705E4890F829000C281ED040
:100780005B4890F8291001EB810108EB8101097C9D
:10079000042914D190F829B090F8291001EB8101B7
:1007A00008EB810181F810A090F8291001EB81017C
:1007B00008EB8101897C80F8291080F82AA0504C30
:1007C00094F8CD0194F8CC1104F2DF2588424ED084
:1007D00094F8CC0100EB800004EB8000007C405DCD
:1007E000012894F8CC0100EB800004EB800004D0D9
:1007F000007C405D022878D018E0807A01280DD076
:1008000094F8CC11022001EB810104EB8101097CF9
:10081000485594F8CC01162820D01BE094F8CC0160
:1008200000EB800004EB8000007C465594F8CC017E
:1008300000EB800004EB800294F8CC0100EB800018
:1008400004EB8000017C4846FEF7B7FF94F8CC012A
:10085000162803D094F8CC01401C00E0002084F856
:10086000CC0194F8CD0194F8CC118842B0D1254C3C
:10087000207D70B1207C415D012966D0405D022859
:100880006BD0207D28B1217C1E4A4846FEF795FF9B
:100890002675BBF10C0F06D00BEB8B0008EB80002C
:1008A000017C012961D0124C94F829000C2800F039
:1008B000388194F82A00002800F0428184F82A60E8
:1008C00094F8290000EB800008EB8003A4F53B704E
:1008D000D3E90112DB68C0F80433C0E9BF12607EBF
:1008E00000280CBF042502250EE01CE07800002043
:1008F000C00C0020D80B0020FFFF3F007A00002032
:10090000D4090020A40B002094F82900C34600EB72
:10091000800108EB8100407B06284DD2DFE800F023
:10092000404A4846444294F8CC0100EB800004EB76
:100930008000807A012818BFFFDF94F8CC0100EB1B
:10094000800004EB8000867268E7A17A01291DBF50
:10095000022141552675465593E7A07A012818BF14
:10096000FFDFA672207C46558BE707210174FE4C01
:10097000207E162810D0207EE17D401C884200D1C8
:10098000FFDF207E04F800B0207E16280EBF002076
:10099000207E401C207686E7E07D0028F1D1EFE73D
:1009A00000200BE0B42009E0732007E0322005E0CE
:1009B0000A2003E0062001E0FFDF00202073617EB3
:1009C000022918BF012911D121690144A1EB0902B3
:1009D00022F07F42382A09D903206076A1F1320043
:1009E00020F07F4020613220207309E0322807D2B6
:1009F00094F8280058B9F8F795FA84F828A006E08A
:100A000094F8280018B1F8F7B6FA84F828607978D5
:100A100084F8201038780622012818BF032806D150
:100A200084F824A0207B814284BF081A821D94F898
:100A30002230002B18BF921C94F82400002808BF15
:100A4000002B6AD0D4F810806069A8EB0908DFF8A1
:100A50001CC328F07F48A0EB090020F07F404245EE
:100A600098BFB8F5800F41D284453FD3207B8842A0
:100A700015D22369A1EB0002A3EB020222F07F4210
:100A80001144294421F07F412261616000280CBF9C
:100A900001200320207710F0FF0F36D114E00AD98F
:100AA000226900291044284420F07F4060600CBF78
:100AB00002200420EEE7002B08BFFFDF2069284456
:100AC00020F07F40606026770120F8F789F800BFAA
:100AD00094F82900012300EB80010BEB8100616891
:100AE00090F90C200020F8F7BFF829E084F8246082
:100AF00084F82260207B0028E0D021690844284443
:100B000020F07F4060600220207720690123411996
:100B100000221846F8F7A8F8DAE7207B0028ECD185
:100B2000CCE70120F8F75CF80020F8F759F8F8F75F
:100B30003DF894F8280018B1F8F71DFA84F82860F9
:100B400094F8220028B1F8F76BF984F8236084F850
:100B5000226094F8210018B1F8787870B87838706D
:100B600094F8240030B184F823603878002808BF56
:100B700084F824607C48017EC07D814203D07C489B
:100B80004078F8F70FFD84F827A0BDE8F09F70B516
:100B9000784C054682B094F829000C2808BFFFDF86
:100BA00094F8290000EB8000734E06EB8000007C77
:100BB000032818BFFFDFA068B0F1FF3F18BFFFDFB9
:100BC00094F82900002100EB800006EB800001AAC8
:100BD00090F90C0000918DF8041028446946F8F74C
:100BE00043F99DF904000F28CCBF01200020009993
:100BF00008446168084420F07F41A16094F8250012
:100C0000002804BF02B070BD012302B00022BDE87D
:100C100070401846F8F728B8584A0B1A02F1010C30
:100C2000B3EB9C0F3CBF1846704710B5441AB4EBA9
:100C30009C0F3CBF184610BD9A4203D2101A0844BC
:100C4000401C10BD94429EBFFFDF002010BD511A12
:100C50000844401C404210BD0123002201460220EE
:100C6000F8F702B80220F7F7BBBFF8F75EB8F0B5A7
:100C7000404C054683B094F82B00002808BFFFDFE6
:100C8000642D50D33E490020491B80414BD33D4841
:100C900090F8CD1190F8CC01814244D13A48007DC2
:100CA000002840D194F82900334F00EB800007EB77
:100CB0008006206801AA28446946F8F7D5F89DF90E
:100CC0000400002802DD0098401C0090B2680099E2
:100CD00073685018C01A20F07F40B0F5800F22D200
:100CE000B07C0C2809D000EB800007EB8000406846
:100CF000801A20F07F40884215D3A068B0F1FF3FF2
:100D000005D00120F7F76CFF4FF0FF30A06020689E
:100D100028442060B0680099084420F07F4060615A
:100D200003B00120F0BD03B00020F0BD2DE9F0417B
:100D30000646401EC5B2104805EB850100EB810454
:100D4000207C002808BFFFDF0E4A92F8CC1192F8F1
:100D5000CD01814221D000BF01EB810302EB83036F
:100D60001B7CB34220D011E0BC0B0020FFFF3F00F2
:100D700078000020C00C0020D80B0020FF7F841ECC
:100D8000FF1FA107D4090020A40B002016290CBFC7
:100D90000021491CC9B28142DED13A48017D0029B7
:100DA00062D0007CB0425FD10020BDE8F081217CA0
:100DB00005291FBF217C0629217C07292CD12774F6
:100DC000C27D0023017E914218BF014624D000BF9E
:100DD00011F80280A84508BF012300D04BB1162AA4
:100DE0000CBF4FF0000802F1010811F8088001F86B
:100DF0000280162A0CBF0022521CD2B291F8188031
:100E00009045E5D143B10A7E002A08BF81F818C099
:100E100002D00A7E521E0A76617C21B36674C27DBE
:100E20000021037E934224D0835CAB4208BF0121A2
:100E300000D029B1162A0CBF0023531CC35C835475
:100E4000162A0CBF0022521CD2B2037E9342EBD171
:100E500049B1027E0146002A08BF81F818C008D0B7
:100E60000A7E521E0A7604E00127074800264FF04A
:100E7000160C217C012904BF617C002997D1012037
:100E8000BDE8F081A40B0020BC0B0020F0B5734A34
:100E9000D2F80032724D002401212E7856B9714EDD
:100EA0003460704F03263F1D3E606E4F04260C37A2
:100EB0003E602970C2F80042D1601160694C48342C
:100EC000D16425688542FBD35160D160C2F80032FD
:100ED000F0BD2DE9F041044680074FF000054FF0CA
:100EE000010604D560480560066024F00204E004B1
:100EF0004FF0FF3705D55D484660C0F8087324F40D
:100F00008054600003D55A48056024F08044E00511
:100F10000FD55248C0F80052C0F8087351490D600F
:100F2000091D0D604F4A04210C321160066124F442
:100F30008074A00409D54F484660C0F80052C0F83C
:100F400008734D48056024F40054C4F38030C4F3A2
:100F5000C031884200D0FFDF14F4404F14D047481E
:100F60004660C0F8087346488660C0F80052C0F872
:100F7000087344490D600A1D16608660C0F8087346
:100F80000D60166024F4404420050AD53E484660B2
:100F90008660C0F80873C0F848733C48056024F4C4
:100FA000006409F007FA3A48044200D0FFDFBDE8C8
:100FB000F08170B5202500224FEA020320FA02F1E9
:100FC000C90719D051B201F01F060124B4404E09DF
:100FD000B60006F1E026C6F88041C6F88042002936
:100FE00006DA01F00F0101F1E02181F8143D03E080
:100FF00001F1E02181F80034521CAA42DED370BD19
:1010000070B5174C0D466060FFF763FF6068FFF72F
:10101000D0FF2846F8F763F808F00EFE00F0D5F888
:1010200009F0C8F909F016F9F8F78EFABDE8704032
:1010300008F0B0BE10B50A4C6068FFF74AFF606860
:10104000FFF7B7FF09F0B6F9F8F70EF90020606076
:1010500010BD034840687047022070470080004080
:101060008000002004850040FC1F004000C00040BC
:1010700004E5014000D0004004D5004000E00040FD
:1010800000F0004000F5004000B0004008B500400E
:10109000FEFF0FFC70B51F490A68BAB100231D4658
:1010A00001244A68521C4A60092A00D34D600E7917
:1010B00004FA06F20E6816420AD072B60B68934321
:1010C0000B6062B649680160002070BD052070BDEC
:1010D0005B1C092BE5D3FFDFF8E74FF0E0214FF46D
:1010E0008000C1F800027047EFF3108111F0010F8A
:1010F00072B64FF0010202FA00F20648036842EAB3
:101100000302026000D162B6E7E7024800210160F5
:101110004160704788000020012081070860704707
:10112000012081074860704712480068C00700D05E
:10113000012070470F48001F0068C00700D0012041
:1011400070470C4808300068C00700D00120704785
:10115000084810300068704706490C310A68D2030D
:1011600006D5096801F00301814201D101207047D1
:10117000002070470C040040C84911F8210F49783D
:10118000884201D3401A02E0C1F121010844C0B2F3
:101190007047C249233111F8210F4978884201D3A1
:1011A000401A02E0C1F121010844C0B27047BB49B6
:1011B000463111F8210F4978884201D3401A02E0E4
:1011C000C1F121010844C0B27047B54910B5802073
:1011D00081F80004B1490020233101F8210F487043
:1011E000AE4901F8210F4870AC49463101F8210F92
:1011F0004870AC4808F072FFAA48401C08F06EFF27
:10120000F8F77AF8BDE8104000F03DB920207047AB
:10121000B2E770B50C4605460026FFF7ADFF014664
:101220009E48A14212D30022641EE4B20DD390F86E
:101230002210435C491CC9B205F8013B80F822101A
:101240002129F1D180F82220EEE7012600F01BF9D8
:10125000304670BD202070479BE770B50C460546B0
:101260000026FFF796FF01468C482330A14212D397
:101270000022641EE4B20DD390F82210435C491C96
:10128000C9B205F8013B80F822102129F1D180F87C
:101290002220EEE7012600F0F6F8304670BD20214E
:1012A00001700020704710B50446FFF780FF2070E2
:1012B000002010BD70B50C460546FFF778FF0146CB
:1012C00076484630A14213D30022641EE4B20DD307
:1012D00090F82210435C491CC9B205F8013B80F824
:1012E00022102129F1D180F82220EEE7002401E02C
:1012F00042F2070400F0C7F8204670BD70B50C46F6
:101300000546212900D9FFDF67480068103840B240
:1013100000F0A0F8C6B20D2000F09CF8C0B28642E2
:1013200004D2FFDF02E000BFF8F736F82146284676
:10133000FFF76FFF0028F7D070BD2DE9F047DFF809
:101340006481564CA8F101080746233498F8000040
:10135000DFF84891002604F1230A38B994F82210E6
:1013600094F82100212200F084F890B14D4699F8BC
:10137000221099F82100212200F07BF8B8B15546DF
:101380009AF822109AF82100212200F072F848B34E
:1013900035E094F82100275494F82100401CC0B295
:1013A00084F8210021282AD184F8216027E095F8CB
:1013B00021002F5495F82100401CC0B285F821006F
:1013C000212801D185F8216098F800004746B0B186
:1013D00095F8221095F82100212200F04AF870B10A
:1013E0003E700CE095F821002F5495F82100401C28
:1013F000C0B285F82100212801D185F8216094F838
:10140000221094F82100212200F033F800281FD088
:1014100099F8221099F82100212200F02AF80028DA
:1014200016D09AF822109AF82100212200F021F813
:1014300000280DD0F7F786FF1A4808F057FEB0F5E0
:10144000005F00D0FFDFBDE8F047164808F064BE3B
:10145000BDE8F087002806DA00F00F0000F1E02078
:1014600090F8140D03E000F1E02090F8000440092A
:101470007047401C884204D0904200D109B100203E
:1014800070470120704710B5064808F02FFE00286D
:1014900003D1BDE81040F7F740BF10BDF00C0020AD
:1014A0000DE000E09100002004ED00E01349087811
:1014B0004A78401CC0B2904205D0114B01221A60FC
:1014C000BFF34F8F0870704770B54FF0E0250B4C9D
:1014D000F7F7E8FF20BF40BF20BF60782178617038
:1014E000D5F8001229B9D5F8041211B92178814232
:1014F000EED0F7F7D2FF002070BD0000930000206F
:10150000180502402DE9F041012528034FF0E021A4
:101510000026C1F880011E4CC4F800610C2000F0C8
:101520002CF81C4801680268C94341F3001142F0DD
:1015300010020260C4F804532560491C00E020BF7B
:10154000D4F80021002AFAD019B9016821F010015D
:101550000160114807686560C4F80853C4F8006169
:101560000C2000F00AF83846BDE8F08110B50446BA
:10157000FFF7C8FF2060002010BD00F01F0201210E
:1015800091404009800000F1E020C0F880127047CF
:1015900000C0004010ED00E008C500402DE9F04714
:1015A000F84C0646FF21606800EB061211702178A6
:1015B000FF2916D04FF0080909EB011109EB0617B6
:1015C0004158C059491E21F07F4100F0DDF918B1A2
:1015D00094F80080454614E06168207801EB06111C
:1015E00008702670BDE8F087626809EB0510D159D4
:1015F000105800F0C9F930B96068A84600EB08102F
:101600000578FF2DF0D1606800EB061100EB0810A3
:101610000D700670E6E7F0B5DA4B044600200125B0
:101620005A680C261B7A0BE005EB0017D75DA74222
:1016300004D106EB0017D7598F4204D0401CC0B22A
:101640008342F1D8FF20F0BD70B5FFF70EFBCD4C03
:10165000014608252278606805EB0212805800F0E8
:1016600093F9012808D92178606805EB01114058E9
:10167000BDE87040FFF7F0BAFEF73CFFBDE87040F0
:10168000F7F790BF2DE9F041BE4C2578FFF7EDFA52
:101690000146FF2D6FD04FF00808626808EB051671
:1016A000905900F071F90228606801D980595EE014
:1016B00000EB051109782170022101EB0511425C54
:1016C0005AB1521E4254815901F5000121F07F4167
:1016D00081512846FFF762FF34E00423012203EB27
:1016E000051302EB051250F803C0875CBCF1000F34
:1016F00010D0BCF5806F10D9CCF3090250F806C0A9
:101700000CEB423C2CF07F4C40F806C0C3589A1AB0
:10171000920A09E0FF2181540AE0825902EB4C321F
:1017200022F07F428251002242542846FFF736FFC2
:101730000C21606801EB05114158E06850F8272042
:10174000384690472078FF2815D0FFF78EFA0146DB
:101750002278606808EB02124546805800F014F9C0
:10176000012891D92178606805EB01114058BDE846
:10177000F041FFF771BABDE8F081F0B51D4614469F
:101780000E460746FF2B00D3FFDFA00700D0FFDF88
:101790007C48FF210022C760446005720674017016
:1017A00042701046012204E002EB0013401CE15499
:1017B000C0B2A842F8D3F0BD70B5724C0646657849
:1017C000207C854200D3FFDFE06840F82560607828
:1017D000401C6070284670BD2DE9FF5F1D468B469A
:1017E0000746FF24FFF741FADFF89891064699F87B
:1017F0000100B84200D8FFDF00214FF001084FF090
:101800000C0A99F80820D9F804000EE008EB01133F
:10181000C35CFF2B27D0BB4205D10AEB011350F864
:1018200003C0DC4521D0491CC9B28A42EED8FF2C46
:101830001BD008EB04110AEB0412475440F802B025
:101840000421029B0022012B01EB041111D0425014
:101850004FF4806808234FF0020C454519D9A905BB
:10186000890D08D008E00C46DDE7FF2004B0BDE894
:10187000F09F4550ECE7414606EB413203EB041381
:1018800022F07F42C250691A0CEB0412890A81547B
:101890000BE005B9012506EB453103EB041321F0FC
:1018A0007F41C1500CEB0411425499F8005020467E
:1018B000FFF774FE99F80000A84201D0FFF7C4FEBC
:1018C0003846D3E770B50C460546FFF7CEF9064615
:1018D00021462846FFF79FFE0446FF2817D0294DD2
:1018E000082101EB041168684058314600F04CF8BB
:1018F00000F58050400B02216A6801EB0411515C35
:1019000009B100EB8120002800D1012070BD00202A
:1019100070BD2DE9F0410F468046FFF77CFEFF28A1
:101920001BD0184E357871682A462C4605E0844253
:1019300006D0254601EB05131C78FF2CF7D10CE0EF
:10194000FF2C0AD0A5420CD101EB021000783070B8
:10195000FF2804D0FFF778FE03E000200BE7FFF735
:1019600081F939464046FFF7ADFFFF220123716838
:1019700003EB0413CA5401EB041201EB05111278B6
:101980000A70F8E65C0D0020401A20F07F40B0F5A8
:10199000000F00D90020704770B50446A0F5000084
:1019A0002C4EB0F1786F02D23444A4F500042A48DA
:1019B000844201D2012500E0002500F041F830B159
:1019C000B4420BD32548006804E0284370BDB442FC
:1019D00004D32348844201D20120F6E70020F4E733
:1019E00010B50446A0F50000B0F1786F03D2194895
:1019F0000444A4F5000400F023F84FF0804130B116
:101A00001648006804E08C4204D2012003E0144828
:101A10008442F8D2002080F0010010BD10B520B142
:101A2000FFF7DEFF08B1012010BD002010BD10B58A
:101A300020B1FFF7B1FF08B1012010BD002010BD9B
:101A4000084809490068884201D1012070470020F8
:101A5000704700000000002000C001001C000020B2
:101A60000800002098000020BEBAFECA0548064AB9
:101A70000168914201D10021016004490120086000
:101A80007047000098000020BEBAFECA40E5014041
:101A9000404800210170417010218170704770B57D
:101AA000054616460C460220F5F79BFC39490120F5
:101AB00008703949F01E086038480560001F04604E
:101AC00070BD10B50220F5F78CFC3249012008707A
:101AD00033480021C0F80011C0F80411C0F8081103
:101AE00030494FF40000086010BD2A480178C9B1A0
:101AF0002D4A4FF4000111602949D1F8003100222C
:101B0000002B1CBFD1F80431002B02D0D1F80811F2
:101B100011B14270102103E001214170234909688D
:101B2000817002700020F5F75CBC1A48017800292A
:101B300004BF407870471A48D0F80011002904BF4C
:101B400002207047D0F8001100291CBFD0F8041102
:101B5000002905D0D0F80801002804BF01207047F3
:101B6000002070470B480178002904BF8078704737
:101B70000B48D0F8001100291CBFD0F8041100292F
:101B800002D0D0F8080108B110207047074800685B
:101B9000C0B270479C00002010F5004008F50040DE
:101BA00000F0004004F5014008F5014000F4004059
:101BB0003148002101704170704770B506461446E7
:101BC0000D460120F5F70DFC2B49012008702B482C
:101BD0000660001D0460001D056070BD2DE9F04128
:101BE00004460120F5F7FDFB234901200870244934
:101BF0000C60244D0026C5F8046123494FF040775E
:101C00000F60A1F1040844B1012C18BFFFDFC5F833
:101C10000062C8F80070BDE8F081C5F800024FF01E
:101C20008070C8F80000BDE8F0811348017879B1F0
:101C3000154A4FF0407111601249D1F8042100217A
:101C4000002A08BF417002D0104A12684270017029
:101C50000020F5F7C6BB08480178002904BF40788A
:101C600070470848D0F80401002808BF70470748AB
:101C70000068C0B2704700009F00002008F50040D7
:101C800004F5004000F0004008F5014000F4004079
:101C900070B5FE4C002501266570257025626572C1
:101CA000A572E67284F82950256304F13C00A5630F
:101CB00008F014FA002818BFFFDF84F82450F44815
:101CC00009F07CFAF3480660657770BD30B4EF49DF
:101CD0000268DFF8C8C34A6142688A61007A0877FF
:101CE0000A7DED4BACF1040401204AB10A7E00FAF2
:101CF00002F21A608D7D002D0CBF2260CCF800200E
:101D00004A7D002A04BF30BC70474A7E904018606C
:101D1000C97D00290CBF2060CCF8000030BC7047A2
:101D2000DF4900B50A1D40B101281CBFFFDF00BD1F
:101D3000DC480860DC48106000BDDC480860DC4816
:101D4000F9E7F0B502264FF0E02701240025C7F897
:101D50008061D8490D600C60D7490A6822F077028B
:101D600042F0880242F000420A60CD490A1DD0B11B
:101D7000012818BFFFDF1AD0D04940F25B6008602D
:101D8000091F40F203100860081F0460CC490320BB
:101D90000860CC4996200860BC4C94F9240010F0EF
:101DA000030F09D033E0C1480860C14802E0BD48D4
:101DB0000860BD481060DFE780100A300C2826D28A
:101DC000DFE800F021252525251D1915110D0A062E
:101DD000BD49042008601BE0BB48056018E0BA4913
:101DE000FC20086014E0B849F820086010E0B6490B
:101DF000F42008600CE0B449F020086008E0B24923
:101E0000EC20086004E0B049D820086000E0FFDF63
:101E1000607F002814BF4FF4C020AC48AC49086074
:101E2000AD49AC480860091FAC480860C7F880623B
:101E3000AB491020C1F80403F0BD944A0368C2F80E
:101E400002308088D08011727047904890F8290045
:101E500070478E4A517010707047F0B50D460446B9
:101E600004EB4501908808841078D2F8011001270E
:101E700040EA012044F8250005F1080007FA00F6C1
:101E8000002B04BF206BB04304D0012B18BFFFDF31
:101E9000206B304307FA05F108432063F0BD30B5ED
:101EA0000D460446082988BFFFDF0022002D11D906
:101EB00054F82210900000F1804000F58050C0F8E6
:101EC000001604EB4201098CC0F82016501CC2B267
:101ED0009542EDD8206B8349086030BD10B50446AB
:101EE00010F0030F2BD1A0100A300C2827D2DFE806
:101EF00000F022262626261E1A16120E0A067249FF
:101F0000042008601CE070490020086018E06E4959
:101F1000FC20086014E06C49F820086010E06A4971
:101F2000F42008600CE06849F020086008E0664989
:101F3000EC20086004E06449D820086000E0FFDF7E
:101F4000524880F8244010BD504890F83400704743
:101F5000654AC178116000686449000208607047F2
:101F6000252808BF02210ED0262808BF1A210AD032
:101F7000272808BF502106D00A2894BF0422062231
:101F800002EB4001C9B25A4A11605A4908607047D1
:101F90003E49086270473D498A7A012A49D0022A9F
:101FA00018BF70474B7D002B08BF7047DFF848C152
:101FB000012A42D0CA7D4B7E002A18BF01227D3003
:101FC000CCF80000DFF834C10020CCF84C01180236
:101FD00082F0010240EA025040F00312087F8300C1
:101FE00003F1804303F5C043C3F81025444A02EBD4
:101FF0008002887EC30003F1804303F5F833C3F801
:102000001425DFF800C1C3F810C5C97ECB0003F169
:10201000804303F5F833C3F81425304AC3F810257C
:10202000012202FA00F002FA01F108433649086081
:1020300070470B7D002BB9D170478A7D0B7E002A3B
:1020400018BF01227E30BBE72DE9F84F00280CBFF6
:10205000012002200D4C224D0322A072C5F800225F
:10206000627F002A14BF4FF4C022184A264F3A60FC
:102070004FF00108002976D0012973D002291CBF36
:10208000FFDFBDE8F88F206A00283FE0700D0020D8
:10209000840D0020A0050040180500500C050050DC
:1020A00014150040050103001F0003020601020091
:1020B00025000302FC1F00403C170040381500407B
:1020C00010150040441500400C15004000000404A9
:1020D00008F5014040800040A4F501401011004087
:1020E0000010004040160040241500401C15004020
:1020F00008150040541500404C8500400080004009
:10210000006000404C81004004F5014008BFFFDF43
:10211000216A206B0844FB490860FC49FA480860C2
:10212000A17AFB4801290EBF0560FA490160A06B46
:1021300040F40020A063D5F800924FF0100AC5F8D3
:1021400008A30026C5F80062F3484FF4802BC0F8BE
:1021500000B0FF208DF80000C5F81061C5F81080B0
:102160003DE000E01CE0012813D0C5F804800228FF
:1021700018BFBDE8F88F607D002808BFBDE8F88F64
:10218000E648C0F84C80E6480068BDE8F84F0A30E1
:1021900001E7C5F80080207D0028F1D1BDE8F88F67
:1021A000E0490128896B07D0022818BFFFDF09D05A
:1021B000BDE8F84F0A20EEE641F48010A0634FF42A
:1021C000801004E041F40010A0634FF40010386068
:1021D000EEE700BF9DF80000401E8DF800009DF85E
:1021E000000018B1D5F810010028F3D09DF80000C8
:1021F000002808BFFFDFC5F80C61C5F81061C5F8FD
:102200000461C5F81461C5F81861C5F82861C648AD
:1022100000680090C5F80092C7F800B0C5F804A3A4
:102220004FF400203860216A206BBDE8F84F084465
:102230000A30B0E62DE9F847BC4CD4F8000220F093
:102240000309D4F804034FF0100AC0F30018C4F8CF
:1022500008A30026C4F80062B24D687F002814BFAE
:102260004FF4C020B248AC490860A87A0127012881
:1022700002D0022803D014E0287D10B911E0687D57
:1022800078B1A87EEA7E07FA00F007FA02F210435E
:102290000860287F800000F1804000F5C040C0F851
