:1000000000000120BD0B0000E50B0000E70B000025
:10001000E90B0000EB0B0000ED0B000000000000FE
:10002000000000000000000000000000EF0B0000D6
:10003000F10B000000000000F30B0000F50B0000C6
:10004000F70B0000F70B0000F70B0000F70B0000A8
:10005000F70B0000F70B0000F70B0000F70B000098
:10006000F70B0000F70B0000F70B0000F70B000088
:10007000F70B0000F70B0000F70B0000F70B000078
:10008000F70B0000F70B0000F70B0000F70B000068
:10009000F70B0000F70B0000F70B0000F70B000058
:1000A000F70B0000F70B0000F70B0000F70B000048
:1000B000F70B0000F70B000000000000000000003C
:1000C000F70B0000F70B0000F70B0000F70B000028
:1000D000F70B0000F70B0000F70B0000000000001A
:1000E0000000000000000000000000000000000010
:1000F0000000000000000000000000000000000000
:1001000000000000000000000000000000000000EF
:1001100000000000000000000000000000000000DF
:1004000010B5054C237833B9044B13B10448AFF34E
:1004100000800123237010BD700000200000000048
:10042000140C00000C4B43B10C480D4910B5AFF350
:1004300000800C48036823B910BD0A48036833B92B
:100440007047094B002BF7D0BDE810401847064B0A
:10045000002BF5D0184700BF00000000140C00006E
:10046000740000206C00002000000000154B002BE1
:1004700008BF134B9D46A3F5803A00218B460F46DB
:100480001348144A121A00F063F80F4B002B00D0E7
:1004900098470E4B002B00D0984700200021040005
:1004A0000D000D48002802D00C48AFF3008000F08A
:1004B0002BF82000290000F012FB00F011F800BF1B
:1004C0000000080000000120000000000000000003
:1004D000700000208C0000200000000000000000E0
:1004E00008B5074B044613B10021AFF30080054B5C
:1004F0001868836A03B19847204600F031F800BFBE
:1005000000000000100C000070B50D4E0D4CA41B37
:10051000A4100025A54209D10B4E0C4C00F06CFB39
:10052000A41BA4100025A54205D170BD56F82530A6
:1005300098470135EEE756F8253098470135F2E740
:100540006400002064000020640000206800002097
:1005500002440346934200D1704703F8011BF9E7B8
:10056000FEE700BF80B400AFBFF34F8F0549054BD6
:10057000DB6803F4E062044B1343CB60BFF34F8F9F
:1005800000BFFDE700ED00E00400FA0580B400AF15
:10059000034B044A1A6000BFBD465DF8047B7047F8
:1005A000600000200090D00380B500AF00F028F973
:1005B0000346002B02D0854B854A1A6000F042F9B1
:1005C0000346002B06D0834A834B1B685B0B03F06A
:1005D0000703136000F068F90346002B05D07F4A3B
:1005E0007E4BDB6823F08073D36000F07FF9034615
:1005F000002B0ED04FF080430022C3F80C214FF0A7
:1006000080430022C3F810214FF080430022C3F83A
:10061000382500F09DF90346002B02D0704B0322D1
:100620001A6000F0B7F90346002B0BD06D4B052282
:100630001A606D4B01221A606C4B00221A606C4BE1
:100640003F221A6000F0C8F90346002B76D0694AB1
:100650004FF08053D3F80434C2F82035654A4FF088
:100660008053D3F80834C2F82435624A4FF08053DF
:10067000D3F80C34C2F828355E4A4FF08053D3F8D3
:100680001034C2F82C355B4A4FF08053D3F8143441
:10069000C2F83035574A4FF08053D3F81834C2F8B7
:1006A0003435544A4FF08053D3F81C34C2F84035E7
:1006B000504A4FF08053D3F82034C2F844354D4AA5
:1006C0004FF08053D3F82434C2F84835494A4FF0EC
:1006D0008053D3F82834C2F84C35464A4FF0805343
:1006E000D3F82C34C2F85035424A4FF08053D3F837
:1006F0003034C2F854353F4A4FF08053D3F8343485
:10070000C2F860353B4A4FF08053D3F83834C2F812
:100710006435384A4FF08053D3F83C34C2F868351A
:10072000344A4FF08053D3F84034C2F86C35314A24
:100730004FF08053D3F84434C2F870352E4A2E4B14
:10074000D3F8883043F47003C2F88830BFF34F8F7A
:10075000BFF36F8F4FF01023D3F80032002B05DB6F
:100760004FF01023D3F80432002B2BDA234B012255
:10077000C3F8042500BF214BD3F80034002BFAD076
:100780004FF010231522C3F8002200BF1B4BD3F8F3
:100790000034002BFAD04FF010231522C3F80422A6
:1007A00000BF164BD3F80034002BFAD0134B0022B5
:1007B000C3F8042500BF114BD3F80034002BFAD046
:1007C000FFF7D0FEFFF7E2FE00BF80BD74C0074018
:1007D0000DF0ADBA3C05004044020010F0ED00E021
:1007E000A0050040105600408856004018560040B2
:1007F0001456004000C0004000ED00E000E0014061
:1008000080B400AF0C4B1B68DBB2062B0DD10B4B39
:100810001B6803F00F03002B07D1094B1B6803F083
:10082000F003302B01D1012300E000231846BD4620
:100830005DF8047B704700BFE00F00F0E40F00F0AC
:10084000E80F00F080B400AF144B1B68DBB2062B3E
:100850001DD1134B1B6803F00F03002B17D1114B55
:100860001B6803F0F003302B01D1012310E00D4B86
:100870001B6803F0F003402B01D1012308E0094B72
:100880001B6803F0F003502B01D1012300E000238B
:100890001846BD465DF8047B704700BFE00F00F0CE
:1008A000E40F00F0E80F00F080B400AF0C4B1B68C1
:1008B000DBB2062B0DD10B4B1B6803F00F03002B93
:1008C00007D1094B1B6803F0F003302B01D1012342
:1008D00000E000231846BD465DF8047B704700BF6A
:1008E000E00F00F0E40F00F0E80F00F080B400AF7C
:1008F000144B1B68DBB2062B1DD1134B1B6803F096
:100900000F03002B17D1114B1B6803F0F003302BA2
:1009100001D1012310E00D4B1B6803F0F003402BC5
:1009200001D1012308E0094B1B6803F0F003502BB1
:1009300001D1012300E000231846BD465DF8047B89
:10094000704700BFE00F00F0E40F00F0E80F00F088
:1009500080B400AF0C4B1B68DBB2062B0DD10B4BE8
:100960001B6803F00F03002B07D1094B1B6803F032
:10097000F003302B01D1012300E000231846BD46CF
:100980005DF8047B704700BFE00F00F0E40F00F05B
:10099000E80F00F080B400AF0C4B1B68DBB2062BF5
:1009A0000DD10B4B1B6803F00F03002B07D1094B34
:1009B0001B6803F0F003302B01D1012300E000237A
:1009C0001846BD465DF8047B704700BFE00F00F09D
:1009D000E40F00F0E80F00F080B400AF0C4B1B6890
:1009E000DBB2062B0DD10B4B1B6803F00F03002B62
:1009F00007D1094B1B6803F0F003502B01D10123F1
:100A000000E000231846BD465DF8047B704700BF38
:100A1000E00F00F0E40F00F0E80F00F080B483B0C6
:100A200000AF7860084611461A460346FB700B4635
:100A3000BB7013467B704FF0A041FA78BB785B0027
:100A40001A437B789B001A433B7C1B021A433B7D75
:100A50001B041A437B6803F5E07341F8232000BFB1
:100A60000C37BD465DF8047B704780B584B002AF9B
:100A700078600023019300230093002301220121C9
:100A80007868FFF7CBFF00BF0837BD4680BD80B553
:100A900084B002AF78600B46FB70FA7800230193B4
:100AA000002300931346002200217868FFF7B6FF69
:100AB00000BF0837BD4680BD80B483B000AF78600A
:100AC0004FF0A043D3F810257B6822FA03F303F01C
:100AD000010318460C37BD465DF8047B704780B5AE
:100AE00082B000AF00237B600EE04FF4F0127B6811
:100AF00042FA03F303F00103002B02D07868FFF7FA
:100B0000B4FF7B6801337B607B681F2BEDD901212B
:100B10000B20FFF7BCFF4FF0A04212231946012320
:100B20008B4003F4F013C2F808354FF0A0430022C5
:100B3000C3F80C254FF0A0421323194601238B4024
:100B400003F4F013C2F808354FF0A0430022C3F8B5
:100B50000C254FF0A0421423194601238B4003F4C7
:100B6000F013C2F808354FF0A0430022C3F80C255B
:100B70000B20FFF7A1FF0346002B0FD04FF0A04240
:100B80001123194601238B4003F4F013C2F80C35EE
:100B90004FF0A0430022C3F80825E9E74FF0A04238
:100BA0001123194601238B4003F4F013C2F80835D2
:100BB0004FF0A0430022C3F80C25D9E70649074AA5
:100BC000074B9B1A03DD043BC858D050FBDCFFF7F2
:100BD000EBFCFFF74BFC0000200C000000000020A5
:100BE00070000020FEE7FEE7FEE7FEE7FEE7FEE717
:100BF000FEE7FEE7FEE7FEE7F8B500BFF8BC08BC7D
:100C00009E467047F8B500BFF8BC08BC9E467047CA
:080C10000000002000000000BC
:080C180054F8FF7F0100000009
:100C200000000000000000000000000000000000C4
:100C300000000000000000000000000000000000B4
:100C400000000000000000000000000000000000A4
:100C50000000000000000000000000000000000094
:100C60000000000000000000000000000000000084
:100C70000000000000000000000000000000000074
:100C80000090D003250400000104000000000000D3
:0400000300000BBD31
:00000001FF
